{
  "_format": "hh-sol-artifact-1",
  "contractName": "InsurancePool",
  "sourceName": "contracts/InsurancePool.sol",
  "abi": [
    {
      "inputs": [
        {
          "internalType": "address",
          "name": "_initialOwner",
          "type": "address"
        },
        {
          "internalType": "address",
          "name": "_bqBtc",
          "type": "address"
        }
      ],
      "stateMutability": "nonpayable",
      "type": "constructor"
    },
    {
      "inputs": [
        {
          "internalType": "address",
          "name": "owner",
          "type": "address"
        }
      ],
      "name": "OwnableInvalidOwner",
      "type": "error"
    },
    {
      "inputs": [
        {
          "internalType": "address",
          "name": "account",
          "type": "address"
        }
      ],
      "name": "OwnableUnauthorizedAccount",
      "type": "error"
    },
    {
      "inputs": [],
      "name": "ReentrancyGuardReentrantCall",
      "type": "error"
    },
    {
      "anonymous": false,
      "inputs": [
        {
          "indexed": false,
          "internalType": "uint256",
          "name": "",
          "type": "uint256"
        },
        {
          "indexed": false,
          "internalType": "uint256",
          "name": "",
          "type": "uint256"
        },
        {
          "indexed": false,
          "internalType": "address",
          "name": "",
          "type": "address"
        }
      ],
      "name": "ClaimAttempt",
      "type": "event"
    },
    {
      "anonymous": false,
      "inputs": [
        {
          "indexed": true,
          "internalType": "address",
          "name": "recipient",
          "type": "address"
        },
        {
          "indexed": false,
          "internalType": "string",
          "name": "pool",
          "type": "string"
        },
        {
          "indexed": false,
          "internalType": "uint256",
          "name": "amount",
          "type": "uint256"
        }
      ],
      "name": "ClaimPaid",
      "type": "event"
    },
    {
      "anonymous": false,
      "inputs": [
        {
          "indexed": true,
          "internalType": "address",
          "name": "user",
          "type": "address"
        },
        {
          "indexed": false,
          "internalType": "uint256",
          "name": "amount",
          "type": "uint256"
        },
        {
          "indexed": false,
          "internalType": "string",
          "name": "pool",
          "type": "string"
        }
      ],
      "name": "Deposited",
      "type": "event"
    },
    {
      "anonymous": false,
      "inputs": [
        {
          "indexed": true,
          "internalType": "address",
          "name": "previousOwner",
          "type": "address"
        },
        {
          "indexed": true,
          "internalType": "address",
          "name": "newOwner",
          "type": "address"
        }
      ],
      "name": "OwnershipTransferred",
      "type": "event"
    },
    {
      "anonymous": false,
      "inputs": [
        {
          "indexed": true,
          "internalType": "uint256",
          "name": "id",
          "type": "uint256"
        },
        {
          "indexed": false,
          "internalType": "string",
          "name": "poolName",
          "type": "string"
        }
      ],
      "name": "PoolCreated",
      "type": "event"
    },
    {
      "anonymous": false,
      "inputs": [
        {
          "indexed": true,
          "internalType": "uint256",
          "name": "poolId",
          "type": "uint256"
        },
        {
          "indexed": false,
          "internalType": "uint256",
          "name": "apy",
          "type": "uint256"
        },
        {
          "indexed": false,
          "internalType": "uint256",
          "name": "_minPeriod",
          "type": "uint256"
        }
      ],
      "name": "PoolUpdated",
      "type": "event"
    },
    {
      "anonymous": false,
      "inputs": [
        {
          "indexed": true,
          "internalType": "address",
          "name": "user",
          "type": "address"
        },
        {
          "indexed": false,
          "internalType": "uint256",
          "name": "amount",
          "type": "uint256"
        },
        {
          "indexed": false,
          "internalType": "string",
          "name": "pool",
          "type": "string"
        }
      ],
      "name": "Withdraw",
      "type": "event"
    },
    {
      "inputs": [],
      "name": "ICoverContract",
      "outputs": [
        {
          "internalType": "contract ICover",
          "name": "",
          "type": "address"
        }
      ],
      "stateMutability": "view",
      "type": "function"
    },
    {
      "inputs": [],
      "name": "IGovernanceContract",
      "outputs": [
        {
          "internalType": "contract IGov",
          "name": "",
          "type": "address"
        }
      ],
      "stateMutability": "view",
      "type": "function"
    },
    {
      "inputs": [],
      "name": "IVaultContract",
      "outputs": [
        {
          "internalType": "contract IVault",
          "name": "",
          "type": "address"
        }
      ],
      "stateMutability": "view",
      "type": "function"
    },
    {
      "inputs": [
        {
          "internalType": "uint256",
          "name": "_poolId",
          "type": "uint256"
        },
        {
          "components": [
            {
              "internalType": "uint256",
              "name": "id",
              "type": "uint256"
            },
            {
              "internalType": "string",
              "name": "coverName",
              "type": "string"
            },
            {
              "internalType": "enum CoverLib.RiskType",
              "name": "riskType",
              "type": "uint8"
            },
            {
              "internalType": "string",
              "name": "chains",
              "type": "string"
            },
            {
              "internalType": "uint256",
              "name": "capacity",
              "type": "uint256"
            },
            {
              "internalType": "uint256",
              "name": "capacityAmount",
              "type": "uint256"
            },
            {
              "internalType": "uint256",
              "name": "coverValues",
              "type": "uint256"
            },
            {
              "internalType": "uint256",
              "name": "maxAmount",
              "type": "uint256"
            },
            {
              "internalType": "uint256",
              "name": "poolId",
              "type": "uint256"
            },
            {
              "internalType": "string",
              "name": "CID",
              "type": "string"
            },
            {
              "internalType": "enum CoverLib.AssetDepositType",
              "name": "adt",
              "type": "uint8"
            },
            {
              "internalType": "address",
              "name": "asset",
              "type": "address"
            }
          ],
          "internalType": "struct CoverLib.Cover",
          "name": "_cover",
          "type": "tuple"
        }
      ],
      "name": "addPoolCover",
      "outputs": [],
      "stateMutability": "nonpayable",
      "type": "function"
    },
    {
      "inputs": [
        {
          "internalType": "address",
          "name": "",
          "type": "address"
        }
      ],
      "name": "assetPriceFeeds",
      "outputs": [
        {
          "internalType": "contract AggregatorV3Interface",
          "name": "",
          "type": "address"
        }
      ],
      "stateMutability": "view",
      "type": "function"
    },
    {
      "inputs": [],
      "name": "bqBTC",
      "outputs": [
        {
          "internalType": "contract IbqBTC",
          "name": "",
          "type": "address"
        }
      ],
      "stateMutability": "view",
      "type": "function"
    },
    {
      "inputs": [],
      "name": "bqBTCAddress",
      "outputs": [
        {
          "internalType": "address",
          "name": "",
          "type": "address"
        }
      ],
      "stateMutability": "view",
      "type": "function"
    },
    {
      "inputs": [],
      "name": "coverContract",
      "outputs": [
        {
          "internalType": "address",
          "name": "",
          "type": "address"
        }
      ],
      "stateMutability": "view",
      "type": "function"
    },
    {
      "inputs": [
        {
          "components": [
            {
              "internalType": "uint256",
              "name": "poolId",
              "type": "uint256"
            },
            {
              "internalType": "enum CoverLib.RiskType",
              "name": "riskType",
              "type": "uint8"
            },
            {
              "internalType": "string",
              "name": "poolName",
              "type": "string"
            },
            {
              "internalType": "string",
              "name": "rating",
              "type": "string"
            },
            {
              "internalType": "uint256",
              "name": "apy",
              "type": "uint256"
            },
            {
              "internalType": "uint256",
              "name": "minPeriod",
              "type": "uint256"
            },
            {
              "internalType": "uint8",
              "name": "leverage",
              "type": "uint8"
            },
            {
              "internalType": "uint256",
              "name": "investmentArm",
              "type": "uint256"
            },
            {
              "internalType": "enum CoverLib.AssetDepositType",
              "name": "adt",
              "type": "uint8"
            },
            {
              "internalType": "address",
              "name": "asset",
              "type": "address"
            }
          ],
          "internalType": "struct CoverLib.PoolParams",
          "name": "params",
          "type": "tuple"
        }
      ],
      "name": "createPool",
      "outputs": [],
      "stateMutability": "nonpayable",
      "type": "function"
    },
    {
      "inputs": [
        {
          "internalType": "uint256",
          "name": "_poolId",
          "type": "uint256"
        }
      ],
      "name": "deactivatePool",
      "outputs": [],
      "stateMutability": "nonpayable",
      "type": "function"
    },
    {
      "inputs": [
        {
          "components": [
            {
              "internalType": "address",
              "name": "depositor",
              "type": "address"
            },
            {
              "internalType": "uint256",
              "name": "poolId",
              "type": "uint256"
            },
            {
              "internalType": "uint256",
              "name": "amount",
              "type": "uint256"
            },
            {
              "internalType": "enum CoverLib.DepositType",
              "name": "pdt",
              "type": "uint8"
            },
            {
              "internalType": "enum CoverLib.AssetDepositType",
              "name": "adt",
              "type": "uint8"
            },
            {
              "internalType": "address",
              "name": "asset",
              "type": "address"
            }
          ],
          "internalType": "struct CoverLib.DepositParams",
          "name": "depositParam",
          "type": "tuple"
        }
      ],
      "name": "deposit",
      "outputs": [
        {
          "internalType": "uint256",
          "name": "",
          "type": "uint256"
        },
        {
          "internalType": "uint256",
          "name": "",
          "type": "uint256"
        }
      ],
      "stateMutability": "payable",
      "type": "function"
    },
    {
      "inputs": [],
      "name": "getAllPools",
      "outputs": [
        {
          "components": [
            {
              "internalType": "uint256",
              "name": "id",
              "type": "uint256"
            },
            {
              "internalType": "string",
              "name": "poolName",
              "type": "string"
            },
            {
              "internalType": "string",
              "name": "rating",
              "type": "string"
            },
            {
              "internalType": "enum CoverLib.RiskType",
              "name": "riskType",
              "type": "uint8"
            },
            {
              "internalType": "uint256",
              "name": "apy",
              "type": "uint256"
            },
            {
              "internalType": "uint256",
              "name": "minPeriod",
              "type": "uint256"
            },
            {
              "internalType": "uint256",
              "name": "totalUnit",
              "type": "uint256"
            },
            {
              "internalType": "uint256",
              "name": "tvl",
              "type": "uint256"
            },
            {
              "internalType": "uint256",
              "name": "baseValue",
              "type": "uint256"
            },
            {
              "internalType": "uint256",
              "name": "coverUnits",
              "type": "uint256"
            },
            {
              "internalType": "uint256",
              "name": "tcp",
              "type": "uint256"
            },
            {
              "internalType": "bool",
              "name": "isActive",
              "type": "bool"
            },
            {
              "internalType": "uint256",
              "name": "percentageSplitBalance",
              "type": "uint256"
            },
            {
              "internalType": "uint256",
              "name": "investmentArmPercent",
              "type": "uint256"
            },
            {
              "internalType": "uint8",
              "name": "leverage",
              "type": "uint8"
            },
            {
              "internalType": "address",
              "name": "asset",
              "type": "address"
            },
            {
              "internalType": "enum CoverLib.AssetDepositType",
              "name": "assetType",
              "type": "uint8"
            }
          ],
          "internalType": "struct CoverLib.Pool[]",
          "name": "",
          "type": "tuple[]"
        }
      ],
      "stateMutability": "view",
      "type": "function"
    },
    {
      "inputs": [
        {
          "internalType": "uint256",
          "name": "_poolId",
          "type": "uint256"
        }
      ],
      "name": "getPool",
      "outputs": [
        {
          "components": [
            {
              "internalType": "uint256",
              "name": "id",
              "type": "uint256"
            },
            {
              "internalType": "string",
              "name": "poolName",
              "type": "string"
            },
            {
              "internalType": "string",
              "name": "rating",
              "type": "string"
            },
            {
              "internalType": "enum CoverLib.RiskType",
              "name": "riskType",
              "type": "uint8"
            },
            {
              "internalType": "uint256",
              "name": "apy",
              "type": "uint256"
            },
            {
              "internalType": "uint256",
              "name": "minPeriod",
              "type": "uint256"
            },
            {
              "internalType": "uint256",
              "name": "totalUnit",
              "type": "uint256"
            },
            {
              "internalType": "uint256",
              "name": "tvl",
              "type": "uint256"
            },
            {
              "internalType": "uint256",
              "name": "baseValue",
              "type": "uint256"
            },
            {
              "internalType": "uint256",
              "name": "coverUnits",
              "type": "uint256"
            },
            {
              "internalType": "uint256",
              "name": "tcp",
              "type": "uint256"
            },
            {
              "internalType": "bool",
              "name": "isActive",
              "type": "bool"
            },
            {
              "internalType": "uint256",
              "name": "percentageSplitBalance",
              "type": "uint256"
            },
            {
              "internalType": "uint256",
              "name": "investmentArmPercent",
              "type": "uint256"
            },
            {
              "internalType": "uint8",
              "name": "leverage",
              "type": "uint8"
            },
            {
              "internalType": "address",
              "name": "asset",
              "type": "address"
            },
            {
              "internalType": "enum CoverLib.AssetDepositType",
              "name": "assetType",
              "type": "uint8"
            }
          ],
          "internalType": "struct CoverLib.Pool",
          "name": "",
          "type": "tuple"
        }
      ],
      "stateMutability": "view",
      "type": "function"
    },
    {
      "inputs": [
        {
          "internalType": "uint256",
          "name": "_poolId",
          "type": "uint256"
        }
      ],
      "name": "getPoolCovers",
      "outputs": [
        {
          "components": [
            {
              "internalType": "uint256",
              "name": "id",
              "type": "uint256"
            },
            {
              "internalType": "string",
              "name": "coverName",
              "type": "string"
            },
            {
              "internalType": "enum CoverLib.RiskType",
              "name": "riskType",
              "type": "uint8"
            },
            {
              "internalType": "string",
              "name": "chains",
              "type": "string"
            },
            {
              "internalType": "uint256",
              "name": "capacity",
              "type": "uint256"
            },
            {
              "internalType": "uint256",
              "name": "capacityAmount",
              "type": "uint256"
            },
            {
              "internalType": "uint256",
              "name": "coverValues",
              "type": "uint256"
            },
            {
              "internalType": "uint256",
              "name": "maxAmount",
              "type": "uint256"
            },
            {
              "internalType": "uint256",
              "name": "poolId",
              "type": "uint256"
            },
            {
              "internalType": "string",
              "name": "CID",
              "type": "string"
            },
            {
              "internalType": "enum CoverLib.AssetDepositType",
              "name": "adt",
              "type": "uint8"
            },
            {
              "internalType": "address",
              "name": "asset",
              "type": "address"
            }
          ],
          "internalType": "struct CoverLib.Cover[]",
          "name": "",
          "type": "tuple[]"
        }
      ],
      "stateMutability": "view",
      "type": "function"
    },
    {
      "inputs": [
        {
          "internalType": "uint256",
          "name": "_poolId",
          "type": "uint256"
        }
      ],
      "name": "getPoolTVL",
      "outputs": [
        {
          "internalType": "uint256",
          "name": "",
          "type": "uint256"
        }
      ],
      "stateMutability": "view",
      "type": "function"
    },
    {
      "inputs": [
        {
          "internalType": "address",
          "name": "_userAddress",
          "type": "address"
        }
      ],
      "name": "getPoolsByAddress",
      "outputs": [
        {
          "components": [
            {
              "internalType": "string",
              "name": "poolName",
              "type": "string"
            },
            {
              "internalType": "string",
              "name": "rating",
              "type": "string"
            },
            {
              "internalType": "enum CoverLib.RiskType",
              "name": "risk",
              "type": "uint8"
            },
            {
              "internalType": "uint256",
              "name": "poolId",
              "type": "uint256"
            },
            {
              "internalType": "uint256",
              "name": "dailyPayout",
              "type": "uint256"
            },
            {
              "internalType": "uint256",
              "name": "depositAmount",
              "type": "uint256"
            },
            {
              "internalType": "uint256",
              "name": "apy",
              "type": "uint256"
            },
            {
              "internalType": "uint256",
              "name": "minPeriod",
              "type": "uint256"
            },
            {
              "internalType": "uint256",
              "name": "totalUnit",
              "type": "uint256"
            },
            {
              "internalType": "uint256",
              "name": "tcp",
              "type": "uint256"
            },
            {
              "internalType": "bool",
              "name": "isActive",
              "type": "bool"
            },
            {
              "internalType": "uint256",
              "name": "accruedPayout",
              "type": "uint256"
            }
          ],
          "internalType": "struct CoverLib.PoolInfo[]",
          "name": "",
          "type": "tuple[]"
        }
      ],
      "stateMutability": "view",
      "type": "function"
    },
    {
      "inputs": [
        {
          "internalType": "address",
          "name": "asset",
          "type": "address"
        }
      ],
      "name": "getPriceInUSD",
      "outputs": [
        {
          "internalType": "uint256",
          "name": "",
          "type": "uint256"
        }
      ],
      "stateMutability": "view",
      "type": "function"
    },
    {
      "inputs": [],
      "name": "getTotalTVL",
      "outputs": [
        {
          "internalType": "uint256",
          "name": "",
          "type": "uint256"
        }
      ],
      "stateMutability": "view",
      "type": "function"
    },
    {
      "inputs": [
        {
          "internalType": "address",
          "name": "user",
          "type": "address"
        }
      ],
      "name": "getTotalUserDepositAmountinUSD",
      "outputs": [
        {
          "internalType": "uint256",
          "name": "",
          "type": "uint256"
        }
      ],
      "stateMutability": "view",
      "type": "function"
    },
    {
      "inputs": [
        {
          "internalType": "address",
          "name": "user",
          "type": "address"
        }
      ],
      "name": "getUserBalanceinUSD",
      "outputs": [
        {
          "internalType": "uint256",
          "name": "",
          "type": "uint256"
        }
      ],
      "stateMutability": "view",
      "type": "function"
    },
    {
      "inputs": [
        {
          "internalType": "uint256",
          "name": "_poolId",
          "type": "uint256"
        },
        {
          "internalType": "address",
          "name": "_user",
          "type": "address"
        },
        {
          "internalType": "enum CoverLib.DepositType",
          "name": "pdt",
          "type": "uint8"
        }
      ],
      "name": "getUserGenericDeposit",
      "outputs": [
        {
          "components": [
            {
              "internalType": "address",
              "name": "lp",
              "type": "address"
            },
            {
              "internalType": "uint256",
              "name": "amount",
              "type": "uint256"
            },
            {
              "internalType": "uint256",
              "name": "poolId",
              "type": "uint256"
            },
            {
              "internalType": "uint256",
              "name": "dailyPayout",
              "type": "uint256"
            },
            {
              "internalType": "enum CoverLib.Status",
              "name": "status",
              "type": "uint8"
            },
            {
              "internalType": "uint256",
              "name": "daysLeft",
              "type": "uint256"
            },
            {
              "internalType": "uint256",
              "name": "startDate",
              "type": "uint256"
            },
            {
              "internalType": "uint256",
              "name": "withdrawalInitiated",
              "type": "uint256"
            },
            {
              "internalType": "uint256",
              "name": "accruedPayout",
              "type": "uint256"
            },
            {
              "internalType": "enum CoverLib.DepositType",
              "name": "pdt",
              "type": "uint8"
            },
            {
              "internalType": "enum CoverLib.AssetDepositType",
              "name": "adt",
              "type": "uint8"
            },
            {
              "internalType": "address",
              "name": "asset",
              "type": "address"
            }
          ],
          "internalType": "struct CoverLib.GenericDepositDetails",
          "name": "",
          "type": "tuple"
        }
      ],
      "stateMutability": "view",
      "type": "function"
    },
    {
      "inputs": [
        {
          "internalType": "uint256",
          "name": "_poolId",
          "type": "uint256"
        },
        {
          "internalType": "address",
          "name": "_user",
          "type": "address"
        }
      ],
      "name": "getUserPoolDeposit",
      "outputs": [
        {
          "components": [
            {
              "internalType": "address",
              "name": "lp",
              "type": "address"
            },
            {
              "internalType": "uint256",
              "name": "amount",
              "type": "uint256"
            },
            {
              "internalType": "uint256",
              "name": "poolId",
              "type": "uint256"
            },
            {
              "internalType": "uint256",
              "name": "dailyPayout",
              "type": "uint256"
            },
            {
              "internalType": "enum CoverLib.Status",
              "name": "status",
              "type": "uint8"
            },
            {
              "internalType": "uint256",
              "name": "daysLeft",
              "type": "uint256"
            },
            {
              "internalType": "uint256",
              "name": "startDate",
              "type": "uint256"
            },
            {
              "internalType": "uint256",
              "name": "withdrawalInitiated",
              "type": "uint256"
            },
            {
              "internalType": "uint256",
              "name": "accruedPayout",
              "type": "uint256"
            },
            {
              "internalType": "enum CoverLib.DepositType",
              "name": "pdt",
              "type": "uint8"
            }
          ],
          "internalType": "struct CoverLib.Deposits",
          "name": "",
          "type": "tuple"
        }
      ],
      "stateMutability": "view",
      "type": "function"
    },
    {
      "inputs": [],
      "name": "governance",
      "outputs": [
        {
          "internalType": "address",
          "name": "",
          "type": "address"
        }
      ],
      "stateMutability": "view",
      "type": "function"
    },
    {
      "inputs": [
        {
          "internalType": "uint256",
          "name": "_poolId",
          "type": "uint256"
        },
        {
          "internalType": "uint256",
          "name": "__poolPercentageSplit",
          "type": "uint256"
        }
      ],
      "name": "increasePercentageSplit",
      "outputs": [],
      "stateMutability": "nonpayable",
      "type": "function"
    },
    {
      "inputs": [],
      "name": "initialOwner",
      "outputs": [
        {
          "internalType": "address",
          "name": "",
          "type": "address"
        }
      ],
      "stateMutability": "view",
      "type": "function"
    },
    {
      "inputs": [
        {
          "internalType": "address",
          "name": "depositor",
          "type": "address"
        },
        {
          "internalType": "uint256",
          "name": "_poolId",
          "type": "uint256"
        },
        {
          "internalType": "enum CoverLib.DepositType",
          "name": "pdt",
          "type": "uint8"
        }
      ],
      "name": "initialVaultWithdrawUpdate",
      "outputs": [],
      "stateMutability": "nonpayable",
      "type": "function"
    },
    {
      "inputs": [],
      "name": "owner",
      "outputs": [
        {
          "internalType": "address",
          "name": "",
          "type": "address"
        }
      ],
      "stateMutability": "view",
      "type": "function"
    },
    {
      "inputs": [
        {
          "internalType": "uint256",
          "name": "",
          "type": "uint256"
        }
      ],
      "name": "participants",
      "outputs": [
        {
          "internalType": "address",
          "name": "",
          "type": "address"
        }
      ],
      "stateMutability": "view",
      "type": "function"
    },
    {
      "inputs": [
        {
          "internalType": "address",
          "name": "",
          "type": "address"
        }
      ],
      "name": "participation",
      "outputs": [
        {
          "internalType": "uint256",
          "name": "",
          "type": "uint256"
        }
      ],
      "stateMutability": "view",
      "type": "function"
    },
    {
      "inputs": [
        {
          "internalType": "uint256",
          "name": "poolId",
          "type": "uint256"
        }
      ],
      "name": "poolActive",
      "outputs": [
        {
          "internalType": "bool",
          "name": "",
          "type": "bool"
        }
      ],
      "stateMutability": "view",
      "type": "function"
    },
    {
      "inputs": [],
      "name": "poolCanister",
      "outputs": [
        {
          "internalType": "address",
          "name": "",
          "type": "address"
        }
      ],
      "stateMutability": "view",
      "type": "function"
    },
    {
      "inputs": [],
      "name": "poolCount",
      "outputs": [
        {
          "internalType": "uint256",
          "name": "",
          "type": "uint256"
        }
      ],
      "stateMutability": "view",
      "type": "function"
    },
    {
      "inputs": [
        {
          "internalType": "uint256",
          "name": "_poolId",
          "type": "uint256"
        }
      ],
      "name": "poolWithdrawal",
      "outputs": [],
      "stateMutability": "nonpayable",
      "type": "function"
    },
    {
      "inputs": [
        {
          "internalType": "uint256",
          "name": "",
          "type": "uint256"
        }
      ],
      "name": "pools",
      "outputs": [
        {
          "internalType": "uint256",
          "name": "id",
          "type": "uint256"
        },
        {
          "internalType": "string",
          "name": "poolName",
          "type": "string"
        },
        {
          "internalType": "string",
          "name": "rating",
          "type": "string"
        },
        {
          "internalType": "enum CoverLib.RiskType",
          "name": "riskType",
          "type": "uint8"
        },
        {
          "internalType": "uint256",
          "name": "apy",
          "type": "uint256"
        },
        {
          "internalType": "uint256",
          "name": "minPeriod",
          "type": "uint256"
        },
        {
          "internalType": "uint256",
          "name": "totalUnit",
          "type": "uint256"
        },
        {
          "internalType": "uint256",
          "name": "tvl",
          "type": "uint256"
        },
        {
          "internalType": "uint256",
          "name": "baseValue",
          "type": "uint256"
        },
        {
          "internalType": "uint256",
          "name": "coverUnits",
          "type": "uint256"
        },
        {
          "internalType": "uint256",
          "name": "tcp",
          "type": "uint256"
        },
        {
          "internalType": "bool",
          "name": "isActive",
          "type": "bool"
        },
        {
          "internalType": "uint256",
          "name": "percentageSplitBalance",
          "type": "uint256"
        },
        {
          "internalType": "uint256",
          "name": "investmentArmPercent",
          "type": "uint256"
        },
        {
          "internalType": "uint8",
          "name": "leverage",
          "type": "uint8"
        },
        {
          "internalType": "address",
          "name": "asset",
          "type": "address"
        },
        {
          "internalType": "enum CoverLib.AssetDepositType",
          "name": "assetType",
          "type": "uint8"
        }
      ],
      "stateMutability": "view",
      "type": "function"
    },
    {
      "inputs": [
        {
          "internalType": "uint256",
          "name": "_poolId",
          "type": "uint256"
        },
        {
          "internalType": "uint256",
          "name": "__poolPercentageSplit",
          "type": "uint256"
        }
      ],
      "name": "reducePercentageSplit",
      "outputs": [],
      "stateMutability": "nonpayable",
      "type": "function"
    },
    {
      "inputs": [],
      "name": "renounceOwnership",
      "outputs": [],
      "stateMutability": "nonpayable",
      "type": "function"
    },
    {
      "inputs": [
        {
          "internalType": "address",
          "name": "_coverContract",
          "type": "address"
        }
      ],
      "name": "setCover",
      "outputs": [],
      "stateMutability": "nonpayable",
      "type": "function"
    },
    {
      "inputs": [
        {
          "internalType": "address",
          "name": "_governance",
          "type": "address"
        }
      ],
      "name": "setGovernance",
      "outputs": [],
      "stateMutability": "nonpayable",
      "type": "function"
    },
    {
      "inputs": [
        {
          "internalType": "uint256",
          "name": "poolId",
          "type": "uint256"
        },
        {
          "internalType": "address",
          "name": "user",
          "type": "address"
        },
        {
          "internalType": "enum CoverLib.DepositType",
          "name": "pdt",
          "type": "uint8"
        }
      ],
      "name": "setUserDepositToZero",
      "outputs": [],
      "stateMutability": "nonpayable",
      "type": "function"
    },
    {
      "inputs": [
        {
          "internalType": "address",
          "name": "_vaultContract",
          "type": "address"
        }
      ],
      "name": "setVault",
      "outputs": [],
      "stateMutability": "nonpayable",
      "type": "function"
    },
    {
      "inputs": [
        {
          "internalType": "address",
          "name": "newOwner",
          "type": "address"
        }
      ],
      "name": "transferOwnership",
      "outputs": [],
      "stateMutability": "nonpayable",
      "type": "function"
    },
    {
      "inputs": [
        {
          "internalType": "uint256",
          "name": "_poolId",
          "type": "uint256"
        },
        {
          "internalType": "uint256",
          "name": "_apy",
          "type": "uint256"
        },
        {
          "internalType": "uint256",
          "name": "_minPeriod",
          "type": "uint256"
        }
      ],
      "name": "updatePool",
      "outputs": [],
      "stateMutability": "nonpayable",
      "type": "function"
    },
    {
      "inputs": [
        {
          "internalType": "uint256",
          "name": "_poolId",
          "type": "uint256"
        },
        {
          "components": [
            {
              "internalType": "uint256",
              "name": "id",
              "type": "uint256"
            },
            {
              "internalType": "string",
              "name": "coverName",
              "type": "string"
            },
            {
              "internalType": "enum CoverLib.RiskType",
              "name": "riskType",
              "type": "uint8"
            },
            {
              "internalType": "string",
              "name": "chains",
              "type": "string"
            },
            {
              "internalType": "uint256",
              "name": "capacity",
              "type": "uint256"
            },
            {
              "internalType": "uint256",
              "name": "capacityAmount",
              "type": "uint256"
            },
            {
              "internalType": "uint256",
              "name": "coverValues",
              "type": "uint256"
            },
            {
              "internalType": "uint256",
              "name": "maxAmount",
              "type": "uint256"
            },
            {
              "internalType": "uint256",
              "name": "poolId",
              "type": "uint256"
            },
            {
              "internalType": "string",
              "name": "CID",
              "type": "string"
            },
            {
              "internalType": "enum CoverLib.AssetDepositType",
              "name": "adt",
              "type": "uint8"
            },
            {
              "internalType": "address",
              "name": "asset",
              "type": "address"
            }
          ],
          "internalType": "struct CoverLib.Cover",
          "name": "_cover",
          "type": "tuple"
        }
      ],
      "name": "updatePoolCovers",
      "outputs": [],
      "stateMutability": "nonpayable",
      "type": "function"
    },
    {
      "inputs": [],
      "name": "vaultContract",
      "outputs": [
        {
          "internalType": "address",
          "name": "",
          "type": "address"
        }
      ],
      "stateMutability": "view",
      "type": "function"
    },
    {
      "inputs": [
        {
          "internalType": "uint256",
          "name": "_vaultId",
          "type": "uint256"
        }
      ],
      "name": "vaultWithdraw",
      "outputs": [],
      "stateMutability": "nonpayable",
      "type": "function"
    }
  ],
  "bytecode": "0x60803461027657601f615cbb38819003918201601f19168301916001600160401b0383118484101761027b57808492604094855283398101031261027657610052602061004b83610291565b9201610291565b60016000556001600160a01b0390911690811561026057600180546001600160a01b031981168417909155604051929081906001600160a01b03167f8be0079c531659141344cd1fd0a4f28419497f9722a3daafe3b4186f6b6457e0600080a3601180546001600160a01b031990811690915560158054821692909217909155600280548216732514895c72f50d8bd4b4f9b1110f0d6bd2c97526908117909155600380548316735741306c21795fdcbb9b265ea0255f499dfe515c908117909155600480548416739331b55d9830ef609a2abcfac0fbce050a52fdea17815560058054851673eca2605f0bcf2ba5966372c99837b1f182d3d62017815560066020527f54cdd369e4e8a8515e52ca72ec816c2101831ad1f18bf44102ed171459c9b4f8805486169094179093557f92599ef52398a38e84e5b15ac236af99994b80b5e390e5524198cbc8e48da63780548516831790556001600160a01b039485166000818152604081208054871690941790935590547fd1eceb50b46aea74f6b42453ba5381363a7854e4547ee8ff2fef30dd11f58cdd80548616918716919091179055915473337610d27c682e347c9cd60bd4b3b107c9d34ddd9091527f44abd9ca46b16d583f86aa1f838cb006ce9d3219783a65b570216ad498a2825a805484169190941617909255600f8054821683179055601080549091169091179055615a1590816102a68239f35b631e4fbdf760e01b600052600060045260246000fd5b600080fd5b634e487b7160e01b600052604160045260246000fd5b51906001600160a01b03821682036102765756fe6080604052600436101561001257600080fd5b60003560e01c806302266147146141d8578063068bcd8d146141a15780630c021ae514614150578063173c08cc146137155780632274346b146136ec578063248a75b7146136c357806324b38efe1461356e57806325f11e8d1461353a57806329ba7bb214613511578063318667631461303157806334808ec31461300857806335c1d34914612fc657806358526da314612abe5780635aa6e67514612a955780635f267c5514612a6c5780636817031b1461298f5780636d00696c146128f45780636f60537d146128cb578063715018a61461286e5780637c366cc6146127915780637eb111f01461265e5780638da5cb5b146126355780638f2446301461260f57806396f3a8ad146125d5578063996b8a6f146125ac5780639abd9b05146125215780639fd36b15146124c6578063a2a8baaf14611fe6578063a4948d8514611f87578063ab033ea914611e98578063ac4afa3814611d37578063b5d90c2814611d0e578063c039a53f14611c3e578063d27e52e814611bfc578063d86c044414611aa4578063d88ff1f414611998578063e0375fc01461142e578063e9e0c8b61461137a578063f2fde38b146112f0578063f420907c14610e96578063f525cb6814610e78578063f6e8055814610e4f578063fb839dda146108c7578063fde076961461029e5763fee721ed1461020b57600080fd5b346102995761021936614492565b9060018060a01b036012541633148015610285575b61023790614b6b565b6000526008602052604060002090815491600160401b83101561026f578261026791600161026d95018155614bb6565b90614bd2565b005b634e487b7160e01b600052604160045260246000fd5b506015546001600160a01b0316331461022e565b600080fd5b34610299576020366003190112610299576102b7615974565b600435600052600960205260406000206040516102d3816143c2565b81548152604051916102f3836102ec8160018501614643565b03846143de565b602082019283526040516103158161030e8160028601614643565b03826143de565b604083015260ff60038201541661032b8161426d565b60608301526004810154608083015260058101549160a08101928352600682015460c082015260ff600e60078401549360e0840194855260088101546101008501526009810154610120850152600a81015461014085015282600b820154161515610160850152600c810154610180850152600d8101546101a085015201548181166101c084015260018060a01b038160081c166101e084015260a81c166103d28161428d565b610200820152336000526007602052604060002060043560005260205260406000206000805260205260406000209260068401549051808004600114811517156107165761041f91614b0e565b93600184015491610431831515615321565b6004850161045981549761045160ff8a1661044b8161426d565b15615377565b4210156153bb565b426007870155600260009760ff191617905561049a61047c8460c08401516148ce565b8060c08401526064610493826101a08601516146dd565b04906148ce565b6104ac60ff6101c084015116826146dd565b61012083015261010082015260043586526008602052604086209384546104d281614b54565b956104e060405197886143de565b81875288526020808920899188015b8383106107e65750505050865b855181101561057d57600c548891906001600160a01b031661051e8289614b40565b515190803b156105795760248492604051958693849263106b5da160e01b845260048401525af19189831561056d5760019361055d575b5050016104fc565b610566916143de565b8989610555565b604051903d90823e3d90fd5b8380fd5b5085876101608401511515806107c9575b1561072c57506011546105a9906001600160a01b03166146f0565b906012925b60c08501519360120360128111610716576105e36001946105dd6000976105dd670de0b6b3a7640000956148db565b906146dd565b049052015560016102008201516105f98161428d565b6106028161428d565b036106e3576101e0015160405163a9059cbb60e01b81523360048201526024810184905290602090829060449082906000906001600160a01b03165af19081156106d757600091610684575b506000805160206159c08339815191529161066b61067a92615930565b51604051918291339583615407565b0390a26001600055005b90506020813d6020116106cf575b8161069f602093836143de565b81010312610299576000805160206159c08339815191529161066b6106c661067a93614b1b565b9250509161064e565b3d9150610692565b6040513d6000823e3d90fd5b5061067a6000805160206159c083398151915291610711600080808088335af161070b6158b4565b506158e4565b61066b565b634e487b7160e01b600052601160045260246000fd5b90600461074560018060a01b036101e0870151166146f0565b6101e086015160405163313ce56760e01b81529194919260209184919082906001600160a01b03165afa90811561056d578091610789575b5060ff915016926105ae565b90506020823d6020116107c1575b816107a4602093836143de565b810103126107be57506107b860ff916148c0565b8861077d565b80fd5b3d9150610797565b506101e08401516011546001600160a01b0390811691161461058e565b600b60206001926040516107f9816143a6565b855481526040516108108161030e81898b01614643565b8382015260ff6002870154166108258161426d565b604082015260405161083e8161030e8160038b01614643565b606082015260048601546080820152600586015460a0820152600686015460c0820152600786015460e0820152600886015461010082015260405161088a8161030e8160098b01614643565b610120820152600a86015460ff81166108a28161428d565b610140830152858060a01b039060081c166101608201528152019201920191906104ef565b34610299576020366003190112610299576004356108e3615974565b600d54604051632bb2b24360e11b815260048101839052336024820152906001600160a01b03166101a082604481845afa9182156106d757600092610e1e575b506020820191825115610dd95760a060029101516109408161426d565b6109498161426d565b03610d8857600060249160405192838092632500ed8d60e21b82528760048301525afa9081156106d757600091610aa3575b50600161012082015161098d8161428d565b6109968161428d565b03610a88576101400151905160405163a9059cbb60e01b8152336004820152602481019190915290602090829060449082906000906001600160a01b03165af180156106d757600090610a4d575b6109ee9150615930565b600d546001600160a01b0316803b15610299576040516307e2f9cf60e21b815260048101839052336024820152906000908290604490829084905af180156106d757610a3c575b6001600055005b6000610a47916143de565b80610a35565b506020813d602011610a80575b81610a67602093836143de565b8101031261029957610a7b6109ee91614b1b565b6109e4565b3d9150610a5a565b506000808080610a9e9451335af161070b6158b4565b6109ee565b903d8082843e610ab381846143de565b820191602081840312610d84578051906001600160401b038211610d6c570190610160828403126107be576040519261016084018481106001600160401b03821117610d70576040528251845260208301516001600160401b038111610d6c5781610b1f918501615872565b602085015260408301516003811015610d6c57604085015260608301516001600160401b038111610d6c5783019080601f83011215610d6c57815191610b6483614b54565b92610b7260405194856143de565b80845260208085019160051b83010191838311610d685760208101915b838310610c0457505050505060608401526080820151608084015260a082015160a084015260c082015160c084015260e082015160e08401526101008201516101008401526101208201519060028210156107be5750610120830152610bf89061014001615787565b6101408201528361097b565b82516001600160401b038111610d64578201610220818703601f190112610d645760405190610c32826143c2565b6020810151825260408101516001600160401b038111610d6057876020610c5b92840101615872565b602083015260608101516001600160401b038111610d6057876020610c8292840101615872565b604083015260808101516003811015610d60579061022091606084015260a0810151608084015260c081015160a084015260e081015160c084015261010081015160e0840152610120810151610100840152610140810151610120840152610160810151610140840152610cf96101808201614b1b565b6101608401526101a08101516101808401526101c08101516101a0840152610d246101e082016148c0565b6101c0840152610d376102008201615787565b6101e084015201516002811015610d5c57610200820152815260209283019201610b8f565b8880fd5b8980fd5b8780fd5b8580fd5b8280fd5b634e487b7160e01b83526041600452602483fd5b5080fd5b60405162461bcd60e51b8152602060048201526024808201527f4465706f736974206973206e6f7420726561647920666f72207769746864726160448201526377616c7360e01b6064820152608490fd5b60405162461bcd60e51b815260206004820152601d60248201527f4e6f20616374697665207769746864726177616c20666f7220757365720000006044820152606490fd5b610e419192506101a03d8111610e48575b610e3981836143de565b81019061579b565b9083610923565b503d610e2f565b3461029957600036600319011261029957600c546040516001600160a01b039091168152602090f35b34610299576000366003190112610299576020600a54604051908152f35b3461029957602036600319011261029957610eaf6141fb565b6000906001600a54905b818111156110ae575050600d546040516374d4e49160e01b815291906001600160a01b0316602083600481845afa9283156106d75760009361107a575b5060015b83811115610f0d57602085604051908152f35b604051632bb2b24360e11b8152600481018290526001600160a01b03841660248201526101a081604481865afa9081156106d75760009161105b575b5060208101519081610f66575b5050610f6190614aff565b610efa565b610180018051601154939792939192916001600160a01b039081169160009116828103610fd8575050610f9a9192506146f0565b9060125b6012036012811161071657610fc9610fd0936105dd610f61966105dd670de0b6b3a7640000956148db565b0490614b0e565b949086610f56565b60049250610fe76020916146f0565b945160405163313ce56760e01b815293849182906001600160a01b03165afa90811561056d57809161101f575b5060ff915016610f9e565b90506020823d8211611053575b81611039602093836143de565b810103126107be575061104d60ff916148c0565b89611014565b3d915061102c565b61107491506101a03d8111610e4857610e3981836143de565b86610f49565b9092506020813d6020116110a6575b81611096602093836143de565b8101031261029957519184610ef6565b3d9150611089565b60206110ba8483615421565b0180516110d1575b506110cc90614aff565b610eb9565b816000959295526009602052604060002091604051916110f0836143c2565b835483526040516111088161030e8160018901614643565b60208401526040516111218161030e8160028901614643565b604084015260ff6003850154166111378161426d565b606084015260048401546080840152600584015460a0840152600684015460c0840152600784015460e084015260088401546101008401526009840154610120840152600a840154610140840152600e60ff600b860154169461016085019515158652600c810154610180860152600d8101546101a086015201549260ff84166101c082015261020060ff6101e083019560018060a01b038160081c16875260a81c16916111e48361428d565b01525192600090511515806112d7575b156112485750601154909150611212906001600160a01b03166146f0565b9060125b6012036012811161071657610fc9611241936105dd6110cc966105dd670de0b6b3a7640000956148db565b93906110c2565b825160049190602090611263906001600160a01b03166146f0565b945160405163313ce56760e01b815293849182906001600160a01b03165afa90811561056d57809161129b575b5060ff915016611216565b90506020823d82116112cf575b816112b5602093836143de565b810103126107be57506112c960ff916148c0565b88611290565b3d91506112a8565b5082516011546001600160a01b039081169116146111f4565b34610299576020366003190112610299576113096141fb565b611311615996565b6001600160a01b0316801561136457600180546001600160a01b0319811683179091556001600160a01b03167f8be0079c531659141344cd1fd0a4f28419497f9722a3daafe3b4186f6b6457e0600080a3005b631e4fbdf760e01b600052600060045260246000fd5b34610299576040366003190112610299576024356001600160a01b0381168103610299576113ad61014091600435615421565b6101206040519160018060a01b03815116835260208101516020840152604081015160408401526060810151606084015260808101516113ec8161426d565b608084015260a081015160a084015260c081015160c084015260e081015160e084015261010081015161010084015201516114268161428d565b610120820152f35b34610299576060366003190112610299576114476141fb565b6024356044359160028310156102995761145f615974565b6013546001600160a01b031633148015611984575b156119405781600052600960205260406000209260405192611495846143c2565b845484526040516114ad8161030e8160018a01614643565b602085019081526040516114c88161030e8160028b01614643565b604086015260ff6003870154166114de8161426d565b606086015260048601546080860152600586015460a0860190815260068701549260c0870193845260078801549060e08801918252600889015497610100810198895260098a0154986101208201998a52600a8b015461014083015260ff600b8c0154169961016083019a15158b52600c8c0154610180840152600e600d8d01549c6101a085019d8e520154996101c084019360ff8c16855261020060ff6101e083019d8e60018060a01b038260081c16905260a81c169161159f8361428d565b015260018060a01b0316988960005260076020526040600020856000526020526040600020906115ce8161428d565b6000526020526040600020956006870154905180800460011481151715610716576115f891614b0e565b9b600187019687549d8e151561160d90615321565b600482019182549160ff83166116228161426d565b1561162c90615377565b421015611638906153bb565b42906007015560ff1916600217905560009c895190611656916148ce565b8091818b525190611666916146dd565b60649004611673916148ce565b925160ff1661168290846146dd565b905252885260086020526040882095865461169c81614b54565b97604051986116ab908a6143de565b8189528a526020808b208b918a015b83831061185f5750505050885b875181101561173857600c548a91906001600160a01b03166116e9828b614b40565b515190803b156105795760248492604051958693849263106b5da160e01b845260048401525af1918b831561056d57600193611728575b5050016116c7565b611731916143de565b8b8b611720565b50888851151580611846575b156117b2575050601154611760906001600160a01b03166146f0565b936012905b51906012039060128211610716576000805160206159c0833981519152956105dd61179c926105dd670de0b6b3a7640000956148db565b0490525490519061067a60405192839283615407565b8151919591600491906020906117d0906001600160a01b03166146f0565b975160405163313ce56760e01b815293849182906001600160a01b03165afa90811561056d578091611809575b5060ff91501690611765565b90506020823d60201161183e575b81611824602093836143de565b810103126107be575061183860ff916148c0565b886117fd565b3d9150611817565b5081516011546001600160a01b03908116911614611744565b600b6020600192604051611872816143a6565b855481526040516118898161030e81898b01614643565b8382015260ff60028701541661189e8161426d565b60408201526040516118b78161030e8160038b01614643565b606082015260048601546080820152600586015460a0820152600686015460c0820152600786015460e082015260088601546101008201526040516119038161030e8160098b01614643565b610120820152600a86015460ff811661191b8161428d565b610140830152858060a01b039060081c166101608201528152019201920191906116ba565b606460405162461bcd60e51b815260206004820152602060248201527f43616c6c6572206973206e6f7420746865207661756c7420636f6e74726163746044820152fd5b506015546001600160a01b03163314611474565b3461029957600036600319011261029957600a546119b581614b54565b906119c360405192836143de565b808252601f196119d282614b54565b0160005b818110611a8d57505060015b81811115611a5257826040518091602082016020835281518091526040830190602060408260051b8601019301916000905b828210611a2357505050500390f35b91936001919395506020611a428192603f198a82030186528851614297565b9601920192018594939192611a14565b611a5b816148e9565b600019820191908183116107165782611a8291611a7b611a889588614b40565b5285614b40565b50614aff565b6119e2565b602090611a98614842565b828287010152016119d6565b3461029957606036600319011261029957600435602435604435611ac6615996565b82600052600960205260ff600b604060002001541615611bac578115611b79578015611b3b576000838152600960209081526040918290206004810185905560050183905581519384528301919091527f17b8644f386d1c7c7138ef98b3c8035622bbe94d7be9b26f71d2654a547c294391a2005b60405162461bcd60e51b8152602060048201526016602482015275125b9d985b1a59081b5a5b9a5b5d5b481c195c9a5bd960521b6044820152606490fd5b60405162461bcd60e51b815260206004820152600b60248201526a496e76616c69642041505960a81b6044820152606490fd5b60405162461bcd60e51b815260206004820152602260248201527f506f6f6c20646f6573206e6f74206578697374206f7220697320696e61637469604482015261766560f01b6064820152608490fd5b34610299576020366003190112610299576001600160a01b03611c1d6141fb565b166000526006602052602060018060a01b0360406000205416604051908152f35b3461029957611c4c366145d6565b9190611c56615974565b6014546001600160a01b031633148015611cfa575b15611cb55760018060a01b03166000526007602052604060002090600052602052604060002090611c9b8161428d565b600052602052600060016040822001556001600055600080f35b60405162461bcd60e51b815260206004820152601f60248201527f43616c6c6572206973206e6f742074686520706f6f6c2063616e6973746572006044820152606490fd5b506015546001600160a01b03163314611c6b565b3461029957600036600319011261029957600e546040516001600160a01b039091168152602090f35b3461029957602036600319011261029957600435600052600960205260406000208054906040519081806001830190611d6f91614643565b03611d7a90836143de565b60405180611d8b8160028501614643565b03611d9690826143de565b600382015460ff169160048101546005820154600683015460078401546008850154600986015491600a87015493600b88015460ff1695600c89015497600d8a015499600e01549a6040519e8f9e8f9182526020820161022090526102208201611dff91614248565b908082039060400152611e1191614248565b9b8d611e1c8261426d565b6060015260808d015260a08c015260c08b015260e08a015261010089015261012088015261014087015215156101608601526101808501526101a084015260ff8181166101c0850152600882901c6001600160a01b03166101e0850152611e889060a883901c1661428d565b60a81c60ff166102008301520390f35b3461029957602036600319011261029957611eb16141fb565b611eb9615996565b600b54906001600160a01b038216611f49576001600160a01b0316908115611efa576001600160a01b03199081168217600b55600e80549091169091179055005b60405162461bcd60e51b815260206004820152602160248201527f476f7665726e616e636520616464726573732063616e6e6f74206265207a65726044820152606f60f81b6064820152608490fd5b60405162461bcd60e51b815260206004820152601660248201527511dbdd995c9b985b98d948185b1c9958591e481cd95d60521b6044820152606490fd5b3461029957611f95366145c0565b9060018060a01b036012541633148015611fd2575b611fb390614b6b565b6000526009602052611fce600c6040600020019182546148ce565b9055005b506015546001600160a01b03163314611faa565b3461029957611ff4366145d6565b6000610160604051612005816143a6565b8281528260208201528260408201528260608201528260808201528260a08201528260c08201528260e0820152826101008201528261012082015282610140820152015260018060a01b03821660005260076020526040600020836000526020526040600020906120758161428d565b60005260205260406000206040519261208d8461438a565b60018060a01b0382541684526001820154926020850193845260028301549260408601938452856003820154916060820192835260ff60048201541660808301906120d78161426d565b8152600582015460a0840190815260068301549160c0850192835260ff600960078601549560e0880196875261010060088201549801978852015416956101208c01966121238161428d565b8752886000526009602052604060002097604051986121418a6143c2565b80548a526040516121598161030e8160018601614643565b60208b01526040516121728161030e8160028601614643565b60408b015260ff6003820154166121888161426d565b60608b0152600481015460808b0152600e60058201549160a08c01928352600681015460c08d0152600781015460e08d015260088101546101008d015260098101546101208d0152600a8101546101408d015260ff600b8201541615156101608d0152600c8101546101808d0152600d8101546101a08d015201549a60ff8c166101c08c015261020060ff6101e08d019d8e60018060a01b038260081c16905260a81c169b019a6122388161428d565b8b52865191519062015180820291808304620151801490151715610716576122656020926122a294614b0e565b600c54604051630414960560e21b81526001600160a01b039687166004820152602481019390935290949193849290911690829081906044820190565b03915afa9081156106d757600091612494575b508061248457506122ef620151806122e787515b4287516122d58161426d565b6122de8161426d565b61247c576148ce565b0483516146dd565b875242811161244657506101809b600084525b519a519951905191516001600160a01b03909b169a926123218461426d565b519351945195519651976123348961428d565b519861233f8a61428d565b516040519b6001600160a01b039091169a9061235a8d6143a6565b8c5260208c0190815260408c0191825260608c0192835260808c019361237f8161426d565b845260a08c0194855260c08c0195865260e08c019687526101008c019788526101208c01986123ad8161428d565b89526101408c01996123be8161428d565b8a526101608c019a8b52604080519c516001600160a01b03168d52905160208d01529051908b01525160608a0152516123f68161426d565b60808901525160a08801525160c08701525160e0860152516101008501525161241e8161428d565b6101208401525161242e8161428d565b610140830152516001600160a01b0316610160820152f35b6124519042906148ce565b9b620151808d019c8d8111610716576201517f019c8d1161071657620151806101809d048452612302565b5089516148ce565b620151806122e76122ef926122c9565b906020823d6020116124be575b816124ae602093836143de565b810103126107be5750518e6122b5565b3d91506124a1565b34610299576124d4366145c0565b9060018060a01b03601254163314801561250d575b6124f290614b6b565b6000526009602052611fce600c604060002001918254614b0e565b506015546001600160a01b031633146124e9565b346102995760203660031901126102995760043561253d615996565b80600052600960205260ff600b604060002001541615612572576000908152600960205260409020600b01805460ff19169055005b60405162461bcd60e51b8152602060048201526012602482015271506f6f6c206973206e6f742061637469766560701b6044820152606490fd5b34610299576000366003190112610299576010546040516001600160a01b039091168152602090f35b34610299576020366003190112610299576001600160a01b036125f66141fb565b1660005260176020526020604060002054604051908152f35b3461029957602036600319011261029957602061262d600435615119565b604051908152f35b34610299576000366003190112610299576001546040516001600160a01b039091168152602090f35b346102995760203660031901126102995761267a600435614ff0565b6040518091602082016020835281518091526040830190602060408260051b8601019301916000905b8282106126b257505050500390f35b919360019193955060208091603f198982030185528751908151815261016061275d6127156126f08686015161018088870152610180860190614248565b60408601516126fe8161426d565b604086015260608601518582036060870152614248565b6080850151608085015260a085015160a085015260c085015160c085015260e085015160e0850152610100850151610100850152610120850151848203610120860152614248565b9261014081015161276d8161428d565b61014084015281878060a01b039101511691015296019201920185949391926126a3565b34610299576020366003190112610299576127aa6141fb565b6127b2615996565b601254906001600160a01b038216612835576001600160a01b03169081156127f057600c80546001600160a01b031990811684179091551617601255005b60405162461bcd60e51b815260206004820152601c60248201527f436f76657220616464726573732063616e6e6f74206265207a65726f000000006044820152606490fd5b60405162461bcd60e51b815260206004820152601160248201527010dbdd995c88185b1c9958591e481cd95d607a1b6044820152606490fd5b3461029957600036600319011261029957612887615996565b600180546001600160a01b031981169091556000906001600160a01b03167f8be0079c531659141344cd1fd0a4f28419497f9722a3daafe3b4186f6b6457e08280a3005b3461029957600036600319011261029957600d546040516001600160a01b039091168152602090f35b346102995761290236614492565b6012546001600160a01b03163314801561297b575b61292090614b6b565b60005b82600052600860205260406000205481101561026d57826000526008602052612950816040600020614bb6565b505482511461296157600101612923565b6102679061026d9360005260086020526040600020614bb6565b506015546001600160a01b03163314612917565b34610299576020366003190112610299576129a86141fb565b6129b0615996565b601354906001600160a01b038216612a33576001600160a01b03169081156129ee57600d80546001600160a01b031990811684179091551617601355005b60405162461bcd60e51b815260206004820152601c60248201527f5661756c7420616464726573732063616e6e6f74206265207a65726f000000006044820152606490fd5b60405162461bcd60e51b815260206004820152601160248201527015985d5b1d08185b1c9958591e481cd95d607a1b6044820152606490fd5b34610299576000366003190112610299576014546040516001600160a01b039091168152602090f35b3461029957600036600319011261029957600b546040516001600160a01b039091168152602090f35b34610299576020366003190112610299576004356001600160401b0381116102995761014060031982360301126102995760405190612afc8261438a565b8060040135825260248101356003811015610299576020830190815260448201356001600160401b03811161029957612b3b906004369185010161444b565b926040810193845260648301356001600160401b03811161029957612b66906004369186010161444b565b6060820190815260808201926084850135845260a0830160a4860135815260c48601359160ff831683036102995760c0850192835260e085019160e4880135835261010488013597600289101561029957610124612bcc9161010089019a8b5201614211565b966101208701978852612bdd615996565b8851612be88161428d565b612bf18161428d565b158015612fb3575b15612f6e57600a546001810180911161071657600a5586516000526009602052604060002095875187558a5160018801908051906001600160401b03821161026f578190612c478454614609565b601f8111612f1b575b50602090601f8311600114612eb657600092612eab575b50508160011b916000199060031b1c19161790555b51805160028801916001600160401b03821161026f57612c9c8354614609565b601f8111612e63575b50602090601f8311600114612df2579180612d2896949260ff99989694600092612de7575b50508160011b916000199060031b1c19161790555b51600488015560006006880155516005870155600060078701556000600987015560006008870155600b86016001851982541617905551612d1f8161426d565b60038601614b28565b519182600d850155511693600e8301918254906064039560648711610716577ff01906dc0ac306fa816e50166a7ed46af1f05721cb90cea30beebdd8dede3a6d97612de297600c612dcb97015551612d7f8161428d565b612d888161428d565b9251610100600160a81b0360089190911b1660ff60a81b60a89490941b939093166001600160b01b031992909216610100600160a81b0319919091161717179055565b519251604051918291602083526020830190614248565b0390a2005b015190508f80612cca565b90601f1983169184600052816000209260005b818110612e4b575092600192859260ff9b9a9896612d289a989610612e32575b505050811b019055612cdf565b015160001960f88460031b161c191690558f8080612e25565b92936020600181928786015181550195019301612e05565b836000526020600020601f840160051c81019160208510612ea1575b601f0160051c01905b818110612e955750612ca5565b60008155600101612e88565b9091508190612e7f565b015190508e80612c67565b60008581528281209350601f198516905b818110612f035750908460019594939210612eea575b505050811b019055612c7c565b015160001960f88460031b161c191690558e8080612edd565b92936020600181928786015181550195019301612ec7565b909150836000526020600020601f840160051c81019160208510612f64575b90601f859493920160051c01905b818110612f555750612c50565b60008155849350600101612f48565b9091508190612f3a565b60405162461bcd60e51b815260206004820152601760248201527f57726f6e6720417373657420666f72204465706f7369740000000000000000006044820152606490fd5b5087516001600160a01b03161515612bf9565b346102995760203660031901126102995760043560165481101561029957612fef6020916143ff565b905460405160039290921b1c6001600160a01b03168152f35b3461029957600036600319011261029957600f546040516001600160a01b039091168152602090f35b346102995760203660031901126102995761304a6141fb565b600a54600091906001600160a01b03821660015b828111156134b9575061307084614b54565b9361307e60405195866143de565b80855261308d601f1991614b54565b0160005b818110613444575050600c546001600160a01b03169260009060015b848111156131b357866040518091602082016020835281518091526040830190602060408260051b8601019301916000905b8282106130ee57505050500390f35b919360019193955060208091603f198982030185528751906101608061313261312285516101808652610180860190614248565b8686015185820388870152614248565b9360408101516131418161426d565b6040850152606081015160608501526080810151608085015260a081015160a085015260c081015160c085015260e081015160e08501526101008101516101008501526101208101516101208501526101408101511515610140850152015191015296019201920185949391926130df565b806000526009602052604060002084600052600760205260406000208260005260205260406000206000805260205260406000206040516131f38161438a565b60018060a01b038254168152600182015460208201526002820154604082015261012060ff600960038501549460608501958652826004820154166132378161426d565b6080860152600581015460a0860152600681015460c0860152600781015460e08601526008810154610100860152015416916132728361428d565b01526040516339e671f760e11b81526001600160a01b0385166004820152602481018490526020816044818c5afa9081156106d757600091613411575b506132ba91516146dd565b8560005260076020526040600020836000526020526040600020600080526020526001604060002001546132f9575b50506132f490614aff565b6130ad565b600382810154600088815260076020908152604080832088845282528083208380529091529081902092830154600190930154600486015460058701546006880154600a890154600b8a015495519c9960ff9687169891979296939593919291909116906133668e6143a6565b6040518e816133788160018601614643565b0361338390836143de565b528d6040518060028194019061339891614643565b036133a390836143de565b602001526133b08161426d565b60408d01528960608d015260808c015260a08b015260c08a015260e08901526101008801526101208701521515610140860152610160850152806133f390614aff565b936133fe828a614b40565b526134099088614b40565b5087806132e9565b906020823d821161343c575b8161342a602093836143de565b810103126107be5750516132ba6132af565b3d915061341d565b602090604095949551613456816143a6565b60608152606083820152600060408201526000606082015260006080820152600060a0820152600060c0820152600060e0820152600061010082015260006101208201526000610140820152600061016082015282828901015201939293613091565b8160009493945260076020526040600020816000526020526040600020600080526020526001604060002001546134fc575b6134f490614aff565b92919261305e565b936135096134f491614aff565b9490506134eb565b34610299576000366003190112610299576015546040516001600160a01b039091168152602090f35b34610299576020366003190112610299576004356000526009602052602060ff600b60406000200154166040519015158152f35b34610299576020366003190112610299576135876141fb565b600f546040516370a0823160e01b81526001600160a01b038381166004830152909160209183916024918391165afa9081156106d757600091613691575b506010546001600160a01b031691600460206135e0856146f0565b946040519283809263313ce56760e01b82525afa80156106d757600090613657575b60ff915016601203916012831161071657613651670de0b6b3a76400006136366020966105dd83956105dd61262d996148db565b04923161364c60018060a01b03601154166146f0565b6146dd565b04614b0e565b506020813d602011613689575b81613671602093836143de565b810103126102995761368460ff916148c0565b613602565b3d9150613664565b90506020813d6020116136bb575b816136ac602093836143de565b810103126102995751826135c5565b3d915061369f565b34610299576000366003190112610299576012546040516001600160a01b039091168152602090f35b34610299576000366003190112610299576013546040516001600160a01b039091168152602090f35b60c036600319011261029957604051600060c082016001600160401b0381118382101761413c576040526137476141fb565b8252602082019160243583526040810160443581526064359360028510156105795760608301948552608435946002861015614138576080840195865260a435926001600160a01b0384168403610d685760a085019384526137a7615974565b825186526009602052604086209360ff600b86015416156140e857600e850197885460ff8160a81c1691516137db8161428d565b6137e48161428d565b6137ed8361428d565b82036140945782516001600160a01b0390811660089290921c160361404f576001906138188161428d565b03613fda57815115613f955751855182516040516323b872dd60e01b81526001600160a01b039283166004820152306024820152604481019190915291602091839160649183918c91165af1908115613f8a578791613f4c575b5015613f0f57805161388960068601918254614b0e565b90558051875460081c6001600160a01b031697600460206138a98b6146f0565b9a6040519283809263313ce56760e01b82525afa8015613f04578990613eca575b60ff915016905b600d61390060ff6138f760646138f08c600681015496879101546146dd565b04846148ce565b935416836146dd565b9260120360128111613eb6578a9b6105dd670de0b6b3a7640000936105dd61392a949e9d9e6148db565b049160098801556008870155600786015560018060a01b038751168652600760205260408620845187526020526040862083516139668161428d565b61396f8161428d565b8752602052604086206001015415613d9e576139ce613b2b9160018060a01b038951168852600760205260408820865189526020526040882085516139b38161428d565b6139bc8161428d565b89526020526001604089200154614b0e565b9361016d60646139e26004890154886146dd565b040493600960018060a01b038a51168351928b60058b015494825195613a078761428d565b60405194613a148661438a565b85528d60208601928d845260408701908152606087018d8152608088019183835260a0890194855260c08901954287528c60e08b0198868a526101008c019a878c526101208d019e8f613a668261428d565b5251613a718161428d565b613a7a8161428d565b613cf757516001600160a01b039081168752600760209081526040808920935189529281528288208880529052952099518a546001600160a01b031916951694909417895592516001890155915160028801559051600387015551613aeb90613ae28161426d565b60048701614b28565b516005850155516006840155516007830155516008820155019051613b0f8161428d565b613b188161428d565b60ff801983541691161790555b51614ff0565b93855b8551811015613ba957600c546001600160a01b031690613b4e8188614b40565b5151823b15610d5c57889260248492604051958693849263106b5da160e01b845260048401525af1918215613b9e5788600193613b8e575b505001613b2e565b613b97916143de565b8a88613b86565b6040513d8a823e3d90fd5b50601654869550879086805b828110613cbf575b5015613c5f575b5080516001600160a01b0316865260176020526040862080546001810191908210613c4b5792600194927f6f85d9948d6ca3dd6ce6ce7d175da22b4e865827ae6fcd530ec7edac1240f928926040999555858060a01b039051169251613c3b895192839283528a6020840152878b84019101614643565b0390a25582519182526020820152f35b634e487b7160e01b88526011600452602488fd5b81516001600160a01b031690600160401b811015613cab57806001613c8792016016556143ff565b81546001600160a01b0360039290921b91821b191692901b91909117905586613bc4565b634e487b7160e01b88526041600452602488fd5b613cc8816143ff565b9054855160039290921b1c6001600160a01b03908116911614613ced57600101613bb5565b5050600188613bbd565b516001600160a01b039081168752600760209081526040808920935189529281528288206001808a529152919096209a518b546001600160a01b0319169616959095178a555193890193909355915160028801559051600387015551613d6090613ae28161426d565b516005850155516006840155516007830155516008820155019051613d848161428d565b613d8d8161428d565b60ff80198354169116179055613b25565b92613b2b9061016d6064613db66004890154886146dd565b040493600960018060a01b038a51168351928b60058b015494825195613ddb8761428d565b60405194613de88661438a565b85528d60208601928d845260408701908152606087018d8152608088019183835260a0890194855260c08901954287528c60e08b0198868a526101008c019a878c526101208d019e8f613e3a8261428d565b5251613e458161428d565b613e4e8161428d565b613cf757516001600160a01b039081168752600760209081526040808920935189529281528288208880529052952099518a546001600160a01b031916951694909417895592516001890155915160028801559051600387015551613d6090613ae28161426d565b634e487b7160e01b8b52601160045260248bfd5b506020813d602011613efc575b81613ee4602093836143de565b81010312610d5c57613ef760ff916148c0565b6138ca565b3d9150613ed7565b6040513d8b823e3d90fd5b60405162461bcd60e51b8152602060048201526015602482015274151bdad95b881d1c985b9cd9995c8819985a5b1959605a1b6044820152606490fd5b90506020813d602011613f82575b81613f67602093836143de565b81010312613f7e57613f7890614b1b565b88613872565b8680fd5b3d9150613f5a565b6040513d89823e3d90fd5b60405162461bcd60e51b815260206004820152601d60248201527f416d6f756e74206d7573742062652067726561746572207468616e20300000006044820152606490fd5b50341561401157601154613ff6906001600160a01b03166146f0565b96601260068601614008348254614b0e565b905534916138d1565b60405162461bcd60e51b81526020600482015260166024820152754465706f7369742063616e6e6f74206265207a65726f60501b6044820152606490fd5b60405162461bcd60e51b815260206004820152601f60248201527f506f6f6c20646f6573206e6f74206163636570742074686973206173736574006044820152606490fd5b60405162461bcd60e51b815260206004820152602660248201527f506f6f6c20646f6573206e6f74206163636570742074686973206465706f736960448201526574207479706560d01b6064820152608490fd5b60405162461bcd60e51b815260206004820152602260248201527f506f6f6c20697320696e616374697665206f7220646f6573206e6f74206578696044820152611cdd60f21b6064820152608490fd5b8480fd5b634e487b7160e01b82526041600452602482fd5b34610299576000366003190112610299576000600190600a545b8083111561417d57602082604051908152f35b9061419461419a9161418e85615119565b90614b0e565b92614aff565b919061416a565b34610299576020366003190112610299576141d46141c06004356148e9565b604051918291602083526020830190614297565b0390f35b3461029957602036600319011261029957602061262d6141f66141fb565b6146f0565b600435906001600160a01b038216820361029957565b35906001600160a01b038216820361029957565b60005b8381106142385750506000910152565b8181015183820152602001614228565b9060209161426181518092818552858086019101614225565b601f01601f1916010190565b6003111561427757565b634e487b7160e01b600052602160045260246000fd5b6002111561427757565b9081518152610200806142d06142be60208601516102206020870152610220860190614248565b60408601518582036040870152614248565b9360608101516142df8161426d565b60608501526080810151608085015260a081015160a085015260c081015160c085015260e081015160e085015261010081015161010085015261012081015161012085015261014081015161014085015261016081015115156101608501526101808101516101808501526101a08101516101a085015260ff6101c0820151166101c085015260018060a01b036101e0820151166101e08501520151916143858361428d565b015290565b61014081019081106001600160401b0382111761026f57604052565b61018081019081106001600160401b0382111761026f57604052565b61022081019081106001600160401b0382111761026f57604052565b90601f801991011681019081106001600160401b0382111761026f57604052565b60165481101561441a57601660005260206000200190600090565b634e487b7160e01b600052603260045260246000fd5b6001600160401b03811161026f57601f01601f191660200190565b81601f820112156102995780359061446282614430565b9261447060405194856143de565b8284526020838301011161029957816000926020809301838601378301015290565b90604060031983011261029957600435916024356001600160401b03811161029957610180818303600319011261029957604051916144d0836143a6565b8160040135835260248201356001600160401b038111610299578160046144f99285010161444b565b60208401526044820135600381101561029957604084015260648201356001600160401b038111610299578160046145339285010161444b565b60608401526084820135608084015260a482013560a084015260c482013560c084015260e482013560e0840152610104820135610100840152610124820135906001600160401b03821161029957600461458f9284010161444b565b6101208301526101448101356002811015610299576101408301526145b79061016401614211565b61016082015290565b6040906003190112610299576004359060243590565b606090600319011261029957600435906024356001600160a01b0381168103610299579060443560028110156102995790565b90600182811c92168015614639575b602083101461462357565b634e487b7160e01b600052602260045260246000fd5b91607f1691614618565b6000929181549161465383614609565b80835292600181169081156146a9575060011461466f57505050565b60009081526020812093945091925b83831061468f575060209250010190565b60018160209294939454838587010152019101919061467e565b915050602093945060ff929192191683830152151560051b010190565b519069ffffffffffffffffffff8216820361029957565b8181029291811591840414171561071657565b6001600160a01b039081166000908152600660205260409020541680156147f25760a060049160405192838092633fabe5a360e21b82525afa9081156106d7576000916147a5575b506000811315614760576402540be4008102908082046402540be40014901517156107165790565b60405162461bcd60e51b815260206004820152601960248201527f496e76616c69642070726963652066726f6d206f7261636c65000000000000006044820152606490fd5b9060a0823d60a0116147ea575b816147bf60a093836143de565b810103126107be57506147d1816146c6565b506147e36080602083015192016146c6565b5038614738565b3d91506147b2565b60405162461bcd60e51b815260206004820152602260248201527f50726963652066656564206e6f7420617661696c61626c6520666f7220617373604482015261195d60f21b6064820152608490fd5b6040519061484f826143c2565b60006102008382815260606020820152606060408201528260608201528260808201528260a08201528260c08201528260e08201528261010082015282610120820152826101408201528261016082015282610180820152826101a0820152826101c0820152826101e08201520152565b519060ff8216820361029957565b9190820391821161071657565b604d811161071657600a0a90565b6148f1614842565b50600052600960205260406000206040519061490c826143c2565b805482526040516149248161030e8160018601614643565b602083015260405161493d8161030e8160028601614643565b604083015260ff6003820154166149538161426d565b606083015260048101546080830152600581015460a0830152600681015460c0830190815260078201549160e0840192835260088101546101008501526009810154610120850152600a810154610140850152600e60ff600b830154169161016086019215158352600c810154610180870152600d8101546101a087015201549060ff82166101c086015260ff6101e086019260018060a01b038160081c16845260a81c16614a018161428d565b61020086015251151580614ae6575b15614a5d5750601154614a2b906001600160a01b03166146f0565b906012905b51906012039160128311610716576105dd614a57926105dd670de0b6b3a7640000956148db565b04905290565b9060046020614a7460018060a01b038551166146f0565b935160405163313ce56760e01b815292839182906001600160a01b03165afa80156106d757600090614aac575b60ff91501690614a30565b506020813d602011614ade575b81614ac6602093836143de565b8101031261029957614ad960ff916148c0565b614aa1565b3d9150614ab9565b5080516011546001600160a01b03908116911614614a10565b60001981146107165760010190565b9190820180921161071657565b5190811515820361029957565b90614b328161426d565b60ff80198354169116179055565b805182101561441a5760209160051b010190565b6001600160401b03811161026f5760051b60200190565b15614b7257565b606460405162461bcd60e51b815260206004820152602060248201527f43616c6c6572206973206e6f742074686520636f76657220636f6e74726163746044820152fd5b805482101561441a57600052600b602060002091020190600090565b90614fda57815181556001810160208301518051906001600160401b03821161026f578190614c018454614609565b601f8111614f87575b50602090601f8311600114614f2257600092614f17575b50508160011b916000199060031b1c19161790555b614c506040830151614c478161426d565b60028301614b28565b6003810160608301518051906001600160401b03821161026f578190614c768454614609565b601f8111614ec4575b50602090601f8311600114614e5f57600092614e54575b50508160011b916000199060031b1c19161790555b6080820151600482015560a0820151600582015560c0820151600682015560e082015160078201556101008201516008820155600981016101208301518051906001600160401b03821161026f57614d038354614609565b601f8111614e0c575b50602090601f8311600114614d9d579180600a9492614d90979694600092614d92575b50508160011b916000199060031b1c19161790555b0190610140810151614d558161428d565b614d5e8161428d565b825461016092909201516001600160a81b031990921660ff919091161760089190911b610100600160a81b0316179055565b565b015190503880614d2f565b90601f1983169184600052816000209260005b818110614df45750926001928592614d90999896600a989610614ddb575b505050811b019055614d44565b015160001960f88460031b161c19169055388080614dce565b92936020600181928786015181550195019301614db0565b836000526020600020601f840160051c81019160208510614e4a575b601f0160051c01905b818110614e3e5750614d0c565b60008155600101614e31565b9091508190614e28565b015190503880614c96565b60008581528281209350601f198516905b818110614eac5750908460019594939210614e93575b505050811b019055614cab565b015160001960f88460031b161c19169055388080614e86565b92936020600181928786015181550195019301614e70565b909150836000526020600020601f840160051c81019160208510614f0d575b90601f859493920160051c01905b818110614efe5750614c7f565b60008155849350600101614ef1565b9091508190614ee3565b015190503880614c21565b60008581528281209350601f198516905b818110614f6f5750908460019594939210614f56575b505050811b019055614c36565b015160001960f88460031b161c19169055388080614f49565b92936020600181928786015181550195019301614f33565b909150836000526020600020601f840160051c81019160208510614fd0575b90601f859493920160051c01905b818110614fc15750614c0a565b60008155849350600101614fb4565b9091508190614fa6565b634e487b7160e01b600052600060045260246000fd5b60005260086020526040600020805461500881614b54565b9161501660405193846143de565b818352602083019060005260206000206000915b838310615038575050505090565b600b602060019260405161504b816143a6565b855481526040516150628161030e81898b01614643565b8382015260ff6002870154166150778161426d565b60408201526040516150908161030e8160038b01614643565b606082015260048601546080820152600586015460a0820152600686015460c0820152600786015460e082015260088601546101008201526040516150dc8161030e8160098b01614643565b610120820152600a86015460ff81166150f48161428d565b610140830152858060a01b039060081c1661016082015281520192019201919061502a565b60005260096020526040600020604051615132816143c2565b8154815260405161514a8161030e8160018701614643565b60208201526040516151638161030e8160028701614643565b604082015260ff6003830154166151798161426d565b606082015260048201546080820152600582015460a082015260068201549160c08201928352600781015460e083015260088101546101008301526009810154610120830152600a810154610140830152600e60ff600b830154169161016084019215158352600c810154610180850152600d8101546101a085015201549160ff83166101c082015261020060ff6101e083019460018060a01b038160081c16865260a81c16916152298361428d565b015251151580615308575b1561527f575060115461524f906001600160a01b03166146f0565b906012905b51906012039160128311610716576105dd61527b926105dd670de0b6b3a7640000956148db565b0490565b906004602061529660018060a01b038551166146f0565b935160405163313ce56760e01b815292839182906001600160a01b03165afa80156106d7576000906152ce575b60ff91501690615254565b506020813d602011615300575b816152e8602093836143de565b81010312610299576152fb60ff916148c0565b6152c3565b3d91506152db565b5080516011546001600160a01b03908116911614615234565b1561532857565b60405162461bcd60e51b815260206004820152602160248201527f4e6f206465706f73697420666f756e6420666f722074686973206164647265736044820152607360f81b6064820152608490fd5b1561537e57565b60405162461bcd60e51b81526020600482015260156024820152744465706f736974206973206e6f742061637469766560581b6044820152606490fd5b156153c257565b60405162461bcd60e51b815260206004820152601c60248201527f4465706f73697420706572696f6420686173206e6f7420656e646564000000006044820152606490fd5b60409061541e939281528160208201520190614248565b90565b60006101206040516154328161438a565b8281528260208201528260408201528260608201528260808201528260a08201528260c08201528260e082015282610100820152015260018060a01b0382166000526007602052604060002081600052602052604060002060008052602052604060002091604051926154a48461438a565b80546001600160a01b031684526001810154602085015260028101546040850152600381015460608501908152600482015460808601949060ff166154e88161426d565b855260058301549460a08701958652600684015460c0880190815260078501549260e0890193845260ff60096008880154976101008c0198895201541661552e8161428d565b6101208a015280600052600960205260406000209060405161554f816143c2565b825481526040516155678161030e8160018801614643565b60208201526040516155808161030e8160028801614643565b604082015260ff6003840154166155968161426d565b60608201526004830154608082015261020060ff600e60058601549560a08501968752600681015460c0860152600781015460e086015260088101546101008601526009810154610120860152600a81015461014086015282600b820154161515610160860152600c810154610180860152600d8101546101a086015201548181166101c085015260018060a01b038160081c166101e085015260a81c169161563e8361428d565b01528251915190620151808202918083046201518014901517156107165761566b6020926156a894614b0e565b600c54604051630414960560e21b81526001600160a01b039b8c166004820152602481019390935290999193849290911690829081906044820190565b03915afa9081156106d757600091615752575b509262015180926156f8926157009695801560001461574a575051915b4291516156e48161426d565b6156ed8161426d565b615741575b506148ce565b0490516146dd565b905242811161571157506000905290565b61571c9042906148ce565b62015180810190818111610716576201517f0190811161071657620151809004905290565b905051386156f2565b9050916156d8565b906020823d60201161577f575b8161576c602093836143de565b810103126107be575051620151806156bb565b3d915061575f565b51906001600160a01b038216820361029957565b90816101a0910312610299576040519060006101a083016001600160401b0381118482101761413c576040526157d082615787565b83526020820151602084015260408201516040840152606082015160608401526080820151608084015260a08201516003811015610d845760a084015260c082015160c084015260e082015160e08401526101008201516101008401526101208201516101208401526101408201516101408401526101608201519060028210156107be57506101608301526158699061018001615787565b61018082015290565b81601f8201121561029957805161588881614430565b9261589660405194856143de565b818452602082840101116102995761541e9160208085019101614225565b3d156158df573d906158c582614430565b916158d360405193846143de565b82523d6000602084013e565b606090565b156158eb57565b60405162461bcd60e51b815260206004820152601c60248201527f4e6174697665206173736574207472616e73666572206661696c6564000000006044820152606490fd5b1561593757565b60405162461bcd60e51b8152602060048201526015602482015274115490cc8c081d1c985b9cd9995c8819985a5b1959605a1b6044820152606490fd5b600260005414615985576002600055565b633ee5aeb560e01b60005260046000fd5b6001546001600160a01b031633036159aa57565b63118cdaa760e01b6000523360045260246000fdfe485f1bb6524c663555797e00171a10f341656e59b02d6b557a0a38ba7d5d9751a2646970667358221220419245cc38cecc70b7361aa10b57ceb697e05a8e9442ed0ce00aa5668f8062ce64736f6c634300081c0033",
  "linkReferences": {},
  "deployedLinkReferences": {}
}