{
  "_format": "hh-sol-artifact-1",
  "contractName": "Vaults",
  "sourceName": "contracts/Vaults.sol",
  "abi": [
    {
      "inputs": [
        {
          "internalType": "address",
          "name": "_initialOwner",
          "type": "address"
        }
      ],
      "stateMutability": "nonpayable",
      "type": "constructor"
    },
    {
      "inputs": [
        {
          "internalType": "address",
          "name": "owner",
          "type": "address"
        }
      ],
      "name": "OwnableInvalidOwner",
      "type": "error"
    },
    {
      "inputs": [
        {
          "internalType": "address",
          "name": "account",
          "type": "address"
        }
      ],
      "name": "OwnableUnauthorizedAccount",
      "type": "error"
    },
    {
      "inputs": [],
      "name": "ReentrancyGuardReentrantCall",
      "type": "error"
    },
    {
      "anonymous": false,
      "inputs": [
        {
          "indexed": false,
          "internalType": "uint256",
          "name": "",
          "type": "uint256"
        },
        {
          "indexed": false,
          "internalType": "uint256",
          "name": "",
          "type": "uint256"
        },
        {
          "indexed": false,
          "internalType": "address",
          "name": "",
          "type": "address"
        }
      ],
      "name": "ClaimAttempt",
      "type": "event"
    },
    {
      "anonymous": false,
      "inputs": [
        {
          "indexed": true,
          "internalType": "address",
          "name": "recipient",
          "type": "address"
        },
        {
          "indexed": false,
          "internalType": "string",
          "name": "pool",
          "type": "string"
        },
        {
          "indexed": false,
          "internalType": "uint256",
          "name": "amount",
          "type": "uint256"
        }
      ],
      "name": "ClaimPaid",
      "type": "event"
    },
    {
      "anonymous": false,
      "inputs": [
        {
          "indexed": true,
          "internalType": "address",
          "name": "user",
          "type": "address"
        },
        {
          "indexed": false,
          "internalType": "uint256",
          "name": "amount",
          "type": "uint256"
        },
        {
          "indexed": false,
          "internalType": "string",
          "name": "pool",
          "type": "string"
        }
      ],
      "name": "Deposited",
      "type": "event"
    },
    {
      "anonymous": false,
      "inputs": [
        {
          "indexed": true,
          "internalType": "address",
          "name": "previousOwner",
          "type": "address"
        },
        {
          "indexed": true,
          "internalType": "address",
          "name": "newOwner",
          "type": "address"
        }
      ],
      "name": "OwnershipTransferred",
      "type": "event"
    },
    {
      "anonymous": false,
      "inputs": [
        {
          "indexed": true,
          "internalType": "uint256",
          "name": "id",
          "type": "uint256"
        },
        {
          "indexed": false,
          "internalType": "string",
          "name": "poolName",
          "type": "string"
        }
      ],
      "name": "PoolCreated",
      "type": "event"
    },
    {
      "anonymous": false,
      "inputs": [
        {
          "indexed": true,
          "internalType": "uint256",
          "name": "poolId",
          "type": "uint256"
        },
        {
          "indexed": false,
          "internalType": "uint256",
          "name": "apy",
          "type": "uint256"
        },
        {
          "indexed": false,
          "internalType": "uint256",
          "name": "_minPeriod",
          "type": "uint256"
        }
      ],
      "name": "PoolUpdated",
      "type": "event"
    },
    {
      "anonymous": false,
      "inputs": [
        {
          "indexed": true,
          "internalType": "address",
          "name": "user",
          "type": "address"
        },
        {
          "indexed": false,
          "internalType": "uint256",
          "name": "amount",
          "type": "uint256"
        },
        {
          "indexed": false,
          "internalType": "string",
          "name": "pool",
          "type": "string"
        }
      ],
      "name": "VaultWithdrawalInitiated",
      "type": "event"
    },
    {
      "inputs": [],
      "name": "ICoverContract",
      "outputs": [
        {
          "internalType": "contract ICover",
          "name": "",
          "type": "address"
        }
      ],
      "stateMutability": "view",
      "type": "function"
    },
    {
      "inputs": [],
      "name": "IGovernanceContract",
      "outputs": [
        {
          "internalType": "contract IGov",
          "name": "",
          "type": "address"
        }
      ],
      "stateMutability": "view",
      "type": "function"
    },
    {
      "inputs": [],
      "name": "IPoolContract",
      "outputs": [
        {
          "internalType": "contract IPool",
          "name": "",
          "type": "address"
        }
      ],
      "stateMutability": "view",
      "type": "function"
    },
    {
      "inputs": [],
      "name": "bqBTC",
      "outputs": [
        {
          "internalType": "contract IbqBTC",
          "name": "",
          "type": "address"
        }
      ],
      "stateMutability": "view",
      "type": "function"
    },
    {
      "inputs": [],
      "name": "bqBTCAddress",
      "outputs": [
        {
          "internalType": "address",
          "name": "",
          "type": "address"
        }
      ],
      "stateMutability": "view",
      "type": "function"
    },
    {
      "inputs": [],
      "name": "coverContract",
      "outputs": [
        {
          "internalType": "address",
          "name": "",
          "type": "address"
        }
      ],
      "stateMutability": "view",
      "type": "function"
    },
    {
      "inputs": [
        {
          "internalType": "string",
          "name": "_vaultName",
          "type": "string"
        },
        {
          "internalType": "enum CoverLib.RiskType",
          "name": "risk",
          "type": "uint8"
        },
        {
          "internalType": "uint256[]",
          "name": "_poolIds",
          "type": "uint256[]"
        },
        {
          "internalType": "uint256[]",
          "name": "poolPercentageSplit",
          "type": "uint256[]"
        },
        {
          "internalType": "uint256",
          "name": "_minInv",
          "type": "uint256"
        },
        {
          "internalType": "uint256",
          "name": "_maxInv",
          "type": "uint256"
        },
        {
          "internalType": "uint256",
          "name": "_minPeriod",
          "type": "uint256"
        },
        {
          "internalType": "enum CoverLib.AssetDepositType",
          "name": "adt",
          "type": "uint8"
        },
        {
          "internalType": "address",
          "name": "asset",
          "type": "address"
        }
      ],
      "name": "createVault",
      "outputs": [],
      "stateMutability": "nonpayable",
      "type": "function"
    },
    {
      "inputs": [
        {
          "internalType": "address",
          "name": "",
          "type": "address"
        },
        {
          "internalType": "uint256",
          "name": "",
          "type": "uint256"
        },
        {
          "internalType": "enum CoverLib.DepositType",
          "name": "",
          "type": "uint8"
        }
      ],
      "name": "deposits",
      "outputs": [
        {
          "internalType": "address",
          "name": "lp",
          "type": "address"
        },
        {
          "internalType": "uint256",
          "name": "amount",
          "type": "uint256"
        },
        {
          "internalType": "uint256",
          "name": "poolId",
          "type": "uint256"
        },
        {
          "internalType": "uint256",
          "name": "dailyPayout",
          "type": "uint256"
        },
        {
          "internalType": "enum CoverLib.Status",
          "name": "status",
          "type": "uint8"
        },
        {
          "internalType": "uint256",
          "name": "daysLeft",
          "type": "uint256"
        },
        {
          "internalType": "uint256",
          "name": "startDate",
          "type": "uint256"
        },
        {
          "internalType": "uint256",
          "name": "withdrawalInitiated",
          "type": "uint256"
        },
        {
          "internalType": "uint256",
          "name": "accruedPayout",
          "type": "uint256"
        },
        {
          "internalType": "enum CoverLib.DepositType",
          "name": "pdt",
          "type": "uint8"
        }
      ],
      "stateMutability": "view",
      "type": "function"
    },
    {
      "inputs": [
        {
          "internalType": "uint256",
          "name": "vaultId",
          "type": "uint256"
        },
        {
          "internalType": "address",
          "name": "user",
          "type": "address"
        }
      ],
      "name": "getUserVaultDeposit",
      "outputs": [
        {
          "components": [
            {
              "internalType": "address",
              "name": "lp",
              "type": "address"
            },
            {
              "internalType": "uint256",
              "name": "amount",
              "type": "uint256"
            },
            {
              "internalType": "uint256",
              "name": "vaultId",
              "type": "uint256"
            },
            {
              "internalType": "uint256",
              "name": "dailyPayout",
              "type": "uint256"
            },
            {
              "internalType": "uint256",
              "name": "vaultApy",
              "type": "uint256"
            },
            {
              "internalType": "enum CoverLib.Status",
              "name": "status",
              "type": "uint8"
            },
            {
              "internalType": "uint256",
              "name": "daysLeft",
              "type": "uint256"
            },
            {
              "internalType": "uint256",
              "name": "startDate",
              "type": "uint256"
            },
            {
              "internalType": "uint256",
              "name": "expiryDate",
              "type": "uint256"
            },
            {
              "internalType": "uint256",
              "name": "withdrawalInitiated",
              "type": "uint256"
            },
            {
              "internalType": "uint256",
              "name": "accruedPayout",
              "type": "uint256"
            },
            {
              "internalType": "enum CoverLib.AssetDepositType",
              "name": "assetType",
              "type": "uint8"
            },
            {
              "internalType": "address",
              "name": "asset",
              "type": "address"
            }
          ],
          "internalType": "struct Vaults.VaultDeposit",
          "name": "",
          "type": "tuple"
        }
      ],
      "stateMutability": "view",
      "type": "function"
    },
    {
      "inputs": [
        {
          "internalType": "address",
          "name": "user",
          "type": "address"
        }
      ],
      "name": "getUserVaultDeposits",
      "outputs": [
        {
          "components": [
            {
              "internalType": "address",
              "name": "lp",
              "type": "address"
            },
            {
              "internalType": "uint256",
              "name": "amount",
              "type": "uint256"
            },
            {
              "internalType": "uint256",
              "name": "vaultId",
              "type": "uint256"
            },
            {
              "internalType": "uint256",
              "name": "dailyPayout",
              "type": "uint256"
            },
            {
              "internalType": "uint256",
              "name": "vaultApy",
              "type": "uint256"
            },
            {
              "internalType": "enum CoverLib.Status",
              "name": "status",
              "type": "uint8"
            },
            {
              "internalType": "uint256",
              "name": "daysLeft",
              "type": "uint256"
            },
            {
              "internalType": "uint256",
              "name": "startDate",
              "type": "uint256"
            },
            {
              "internalType": "uint256",
              "name": "expiryDate",
              "type": "uint256"
            },
            {
              "internalType": "uint256",
              "name": "withdrawalInitiated",
              "type": "uint256"
            },
            {
              "internalType": "uint256",
              "name": "accruedPayout",
              "type": "uint256"
            },
            {
              "internalType": "enum CoverLib.AssetDepositType",
              "name": "assetType",
              "type": "uint8"
            },
            {
              "internalType": "address",
              "name": "asset",
              "type": "address"
            }
          ],
          "internalType": "struct Vaults.VaultDeposit[]",
          "name": "",
          "type": "tuple[]"
        },
        {
          "internalType": "string[][]",
          "name": "",
          "type": "string[][]"
        }
      ],
      "stateMutability": "view",
      "type": "function"
    },
    {
      "inputs": [
        {
          "internalType": "uint256",
          "name": "vaultId",
          "type": "uint256"
        },
        {
          "internalType": "address",
          "name": "user",
          "type": "address"
        }
      ],
      "name": "getUserVaultPoolDeposits",
      "outputs": [
        {
          "components": [
            {
              "internalType": "address",
              "name": "lp",
              "type": "address"
            },
            {
              "internalType": "uint256",
              "name": "amount",
              "type": "uint256"
            },
            {
              "internalType": "uint256",
              "name": "poolId",
              "type": "uint256"
            },
            {
              "internalType": "uint256",
              "name": "dailyPayout",
              "type": "uint256"
            },
            {
              "internalType": "enum CoverLib.Status",
              "name": "status",
              "type": "uint8"
            },
            {
              "internalType": "uint256",
              "name": "daysLeft",
              "type": "uint256"
            },
            {
              "internalType": "uint256",
              "name": "startDate",
              "type": "uint256"
            },
            {
              "internalType": "uint256",
              "name": "withdrawalInitiated",
              "type": "uint256"
            },
            {
              "internalType": "uint256",
              "name": "accruedPayout",
              "type": "uint256"
            },
            {
              "internalType": "enum CoverLib.DepositType",
              "name": "pdt",
              "type": "uint8"
            }
          ],
          "internalType": "struct CoverLib.Deposits[]",
          "name": "",
          "type": "tuple[]"
        }
      ],
      "stateMutability": "view",
      "type": "function"
    },
    {
      "inputs": [
        {
          "internalType": "uint256",
          "name": "vaultId",
          "type": "uint256"
        }
      ],
      "name": "getVault",
      "outputs": [
        {
          "components": [
            {
              "internalType": "uint256",
              "name": "id",
              "type": "uint256"
            },
            {
              "internalType": "string",
              "name": "vaultName",
              "type": "string"
            },
            {
              "internalType": "enum CoverLib.RiskType",
              "name": "risk",
              "type": "uint8"
            },
            {
              "components": [
                {
                  "internalType": "uint256",
                  "name": "id",
                  "type": "uint256"
                },
                {
                  "internalType": "string",
                  "name": "poolName",
                  "type": "string"
                },
                {
                  "internalType": "string",
                  "name": "rating",
                  "type": "string"
                },
                {
                  "internalType": "enum CoverLib.RiskType",
                  "name": "riskType",
                  "type": "uint8"
                },
                {
                  "internalType": "uint256",
                  "name": "apy",
                  "type": "uint256"
                },
                {
                  "internalType": "uint256",
                  "name": "minPeriod",
                  "type": "uint256"
                },
                {
                  "internalType": "uint256",
                  "name": "totalUnit",
                  "type": "uint256"
                },
                {
                  "internalType": "uint256",
                  "name": "tvl",
                  "type": "uint256"
                },
                {
                  "internalType": "uint256",
                  "name": "baseValue",
                  "type": "uint256"
                },
                {
                  "internalType": "uint256",
                  "name": "coverUnits",
                  "type": "uint256"
                },
                {
                  "internalType": "uint256",
                  "name": "tcp",
                  "type": "uint256"
                },
                {
                  "internalType": "bool",
                  "name": "isActive",
                  "type": "bool"
                },
                {
                  "internalType": "uint256",
                  "name": "percentageSplitBalance",
                  "type": "uint256"
                },
                {
                  "internalType": "uint256",
                  "name": "investmentArmPercent",
                  "type": "uint256"
                },
                {
                  "internalType": "uint8",
                  "name": "leverage",
                  "type": "uint8"
                },
                {
                  "internalType": "address",
                  "name": "asset",
                  "type": "address"
                },
                {
                  "internalType": "enum CoverLib.AssetDepositType",
                  "name": "assetType",
                  "type": "uint8"
                }
              ],
              "internalType": "struct CoverLib.Pool[]",
              "name": "pools",
              "type": "tuple[]"
            },
            {
              "internalType": "uint256",
              "name": "amount",
              "type": "uint256"
            },
            {
              "internalType": "uint256",
              "name": "apy",
              "type": "uint256"
            },
            {
              "internalType": "uint256",
              "name": "minInv",
              "type": "uint256"
            },
            {
              "internalType": "uint256",
              "name": "maxInv",
              "type": "uint256"
            },
            {
              "internalType": "uint256",
              "name": "minPeriod",
              "type": "uint256"
            },
            {
              "internalType": "enum CoverLib.AssetDepositType",
              "name": "assetType",
              "type": "uint8"
            },
            {
              "internalType": "address",
              "name": "asset",
              "type": "address"
            }
          ],
          "internalType": "struct Vaults.Vault",
          "name": "",
          "type": "tuple"
        }
      ],
      "stateMutability": "view",
      "type": "function"
    },
    {
      "inputs": [],
      "name": "getVaultCount",
      "outputs": [
        {
          "internalType": "uint256",
          "name": "",
          "type": "uint256"
        }
      ],
      "stateMutability": "view",
      "type": "function"
    },
    {
      "inputs": [
        {
          "internalType": "uint256",
          "name": "vaultId",
          "type": "uint256"
        }
      ],
      "name": "getVaultPools",
      "outputs": [
        {
          "components": [
            {
              "internalType": "uint256",
              "name": "id",
              "type": "uint256"
            },
            {
              "internalType": "string",
              "name": "poolName",
              "type": "string"
            },
            {
              "internalType": "string",
              "name": "rating",
              "type": "string"
            },
            {
              "internalType": "enum CoverLib.RiskType",
              "name": "riskType",
              "type": "uint8"
            },
            {
              "internalType": "uint256",
              "name": "apy",
              "type": "uint256"
            },
            {
              "internalType": "uint256",
              "name": "minPeriod",
              "type": "uint256"
            },
            {
              "internalType": "uint256",
              "name": "totalUnit",
              "type": "uint256"
            },
            {
              "internalType": "uint256",
              "name": "tvl",
              "type": "uint256"
            },
            {
              "internalType": "uint256",
              "name": "baseValue",
              "type": "uint256"
            },
            {
              "internalType": "uint256",
              "name": "coverUnits",
              "type": "uint256"
            },
            {
              "internalType": "uint256",
              "name": "tcp",
              "type": "uint256"
            },
            {
              "internalType": "bool",
              "name": "isActive",
              "type": "bool"
            },
            {
              "internalType": "uint256",
              "name": "percentageSplitBalance",
              "type": "uint256"
            },
            {
              "internalType": "uint256",
              "name": "investmentArmPercent",
              "type": "uint256"
            },
            {
              "internalType": "uint8",
              "name": "leverage",
              "type": "uint8"
            },
            {
              "internalType": "address",
              "name": "asset",
              "type": "address"
            },
            {
              "internalType": "enum CoverLib.AssetDepositType",
              "name": "assetType",
              "type": "uint8"
            }
          ],
          "internalType": "struct CoverLib.Pool[]",
          "name": "",
          "type": "tuple[]"
        }
      ],
      "stateMutability": "view",
      "type": "function"
    },
    {
      "inputs": [
        {
          "internalType": "uint256",
          "name": "vaultId",
          "type": "uint256"
        }
      ],
      "name": "getVaultTVL",
      "outputs": [
        {
          "internalType": "uint256",
          "name": "",
          "type": "uint256"
        }
      ],
      "stateMutability": "view",
      "type": "function"
    },
    {
      "inputs": [],
      "name": "getVaults",
      "outputs": [
        {
          "components": [
            {
              "internalType": "uint256",
              "name": "id",
              "type": "uint256"
            },
            {
              "internalType": "string",
              "name": "vaultName",
              "type": "string"
            },
            {
              "internalType": "enum CoverLib.RiskType",
              "name": "risk",
              "type": "uint8"
            },
            {
              "components": [
                {
                  "internalType": "uint256",
                  "name": "id",
                  "type": "uint256"
                },
                {
                  "internalType": "string",
                  "name": "poolName",
                  "type": "string"
                },
                {
                  "internalType": "string",
                  "name": "rating",
                  "type": "string"
                },
                {
                  "internalType": "enum CoverLib.RiskType",
                  "name": "riskType",
                  "type": "uint8"
                },
                {
                  "internalType": "uint256",
                  "name": "apy",
                  "type": "uint256"
                },
                {
                  "internalType": "uint256",
                  "name": "minPeriod",
                  "type": "uint256"
                },
                {
                  "internalType": "uint256",
                  "name": "totalUnit",
                  "type": "uint256"
                },
                {
                  "internalType": "uint256",
                  "name": "tvl",
                  "type": "uint256"
                },
                {
                  "internalType": "uint256",
                  "name": "baseValue",
                  "type": "uint256"
                },
                {
                  "internalType": "uint256",
                  "name": "coverUnits",
                  "type": "uint256"
                },
                {
                  "internalType": "uint256",
                  "name": "tcp",
                  "type": "uint256"
                },
                {
                  "internalType": "bool",
                  "name": "isActive",
                  "type": "bool"
                },
                {
                  "internalType": "uint256",
                  "name": "percentageSplitBalance",
                  "type": "uint256"
                },
                {
                  "internalType": "uint256",
                  "name": "investmentArmPercent",
                  "type": "uint256"
                },
                {
                  "internalType": "uint8",
                  "name": "leverage",
                  "type": "uint8"
                },
                {
                  "internalType": "address",
                  "name": "asset",
                  "type": "address"
                },
                {
                  "internalType": "enum CoverLib.AssetDepositType",
                  "name": "assetType",
                  "type": "uint8"
                }
              ],
              "internalType": "struct CoverLib.Pool[]",
              "name": "pools",
              "type": "tuple[]"
            },
            {
              "internalType": "uint256",
              "name": "amount",
              "type": "uint256"
            },
            {
              "internalType": "uint256",
              "name": "apy",
              "type": "uint256"
            },
            {
              "internalType": "uint256",
              "name": "minInv",
              "type": "uint256"
            },
            {
              "internalType": "uint256",
              "name": "maxInv",
              "type": "uint256"
            },
            {
              "internalType": "uint256",
              "name": "minPeriod",
              "type": "uint256"
            },
            {
              "internalType": "enum CoverLib.AssetDepositType",
              "name": "assetType",
              "type": "uint8"
            },
            {
              "internalType": "address",
              "name": "asset",
              "type": "address"
            }
          ],
          "internalType": "struct Vaults.Vault[]",
          "name": "",
          "type": "tuple[]"
        }
      ],
      "stateMutability": "view",
      "type": "function"
    },
    {
      "inputs": [],
      "name": "governance",
      "outputs": [
        {
          "internalType": "address",
          "name": "",
          "type": "address"
        }
      ],
      "stateMutability": "view",
      "type": "function"
    },
    {
      "inputs": [],
      "name": "initialOwner",
      "outputs": [
        {
          "internalType": "address",
          "name": "",
          "type": "address"
        }
      ],
      "stateMutability": "view",
      "type": "function"
    },
    {
      "inputs": [
        {
          "internalType": "uint256",
          "name": "_vaultId",
          "type": "uint256"
        }
      ],
      "name": "initialVaultWithdraw",
      "outputs": [],
      "stateMutability": "nonpayable",
      "type": "function"
    },
    {
      "inputs": [],
      "name": "owner",
      "outputs": [
        {
          "internalType": "address",
          "name": "",
          "type": "address"
        }
      ],
      "stateMutability": "view",
      "type": "function"
    },
    {
      "inputs": [
        {
          "internalType": "uint256",
          "name": "",
          "type": "uint256"
        }
      ],
      "name": "participants",
      "outputs": [
        {
          "internalType": "address",
          "name": "",
          "type": "address"
        }
      ],
      "stateMutability": "view",
      "type": "function"
    },
    {
      "inputs": [
        {
          "internalType": "address",
          "name": "",
          "type": "address"
        }
      ],
      "name": "participation",
      "outputs": [
        {
          "internalType": "uint256",
          "name": "",
          "type": "uint256"
        }
      ],
      "stateMutability": "view",
      "type": "function"
    },
    {
      "inputs": [],
      "name": "poolCanister",
      "outputs": [
        {
          "internalType": "address",
          "name": "",
          "type": "address"
        }
      ],
      "stateMutability": "view",
      "type": "function"
    },
    {
      "inputs": [],
      "name": "poolContract",
      "outputs": [
        {
          "internalType": "address",
          "name": "",
          "type": "address"
        }
      ],
      "stateMutability": "view",
      "type": "function"
    },
    {
      "inputs": [],
      "name": "renounceOwnership",
      "outputs": [],
      "stateMutability": "nonpayable",
      "type": "function"
    },
    {
      "inputs": [
        {
          "internalType": "address",
          "name": "_coverContract",
          "type": "address"
        }
      ],
      "name": "setCover",
      "outputs": [],
      "stateMutability": "nonpayable",
      "type": "function"
    },
    {
      "inputs": [
        {
          "internalType": "address",
          "name": "_governance",
          "type": "address"
        }
      ],
      "name": "setGovernance",
      "outputs": [],
      "stateMutability": "nonpayable",
      "type": "function"
    },
    {
      "inputs": [
        {
          "internalType": "address",
          "name": "_poolcontract",
          "type": "address"
        }
      ],
      "name": "setPool",
      "outputs": [],
      "stateMutability": "nonpayable",
      "type": "function"
    },
    {
      "inputs": [
        {
          "internalType": "address",
          "name": "_poolcanister",
          "type": "address"
        }
      ],
      "name": "setPoolCanister",
      "outputs": [],
      "stateMutability": "nonpayable",
      "type": "function"
    },
    {
      "inputs": [
        {
          "internalType": "uint256",
          "name": "vaultId",
          "type": "uint256"
        },
        {
          "internalType": "address",
          "name": "user",
          "type": "address"
        }
      ],
      "name": "setUserVaultDepositToZero",
      "outputs": [],
      "stateMutability": "nonpayable",
      "type": "function"
    },
    {
      "inputs": [
        {
          "internalType": "address",
          "name": "newOwner",
          "type": "address"
        }
      ],
      "name": "transferOwnership",
      "outputs": [],
      "stateMutability": "nonpayable",
      "type": "function"
    },
    {
      "inputs": [
        {
          "internalType": "address",
          "name": "",
          "type": "address"
        },
        {
          "internalType": "uint256",
          "name": "",
          "type": "uint256"
        }
      ],
      "name": "userVaultDeposits",
      "outputs": [
        {
          "internalType": "address",
          "name": "lp",
          "type": "address"
        },
        {
          "internalType": "uint256",
          "name": "amount",
          "type": "uint256"
        },
        {
          "internalType": "uint256",
          "name": "vaultId",
          "type": "uint256"
        },
        {
          "internalType": "uint256",
          "name": "dailyPayout",
          "type": "uint256"
        },
        {
          "internalType": "uint256",
          "name": "vaultApy",
          "type": "uint256"
        },
        {
          "internalType": "enum CoverLib.Status",
          "name": "status",
          "type": "uint8"
        },
        {
          "internalType": "uint256",
          "name": "daysLeft",
          "type": "uint256"
        },
        {
          "internalType": "uint256",
          "name": "startDate",
          "type": "uint256"
        },
        {
          "internalType": "uint256",
          "name": "expiryDate",
          "type": "uint256"
        },
        {
          "internalType": "uint256",
          "name": "withdrawalInitiated",
          "type": "uint256"
        },
        {
          "internalType": "uint256",
          "name": "accruedPayout",
          "type": "uint256"
        },
        {
          "internalType": "enum CoverLib.AssetDepositType",
          "name": "assetType",
          "type": "uint8"
        },
        {
          "internalType": "address",
          "name": "asset",
          "type": "address"
        }
      ],
      "stateMutability": "view",
      "type": "function"
    },
    {
      "inputs": [],
      "name": "vaultCount",
      "outputs": [
        {
          "internalType": "uint256",
          "name": "",
          "type": "uint256"
        }
      ],
      "stateMutability": "view",
      "type": "function"
    },
    {
      "inputs": [
        {
          "internalType": "uint256",
          "name": "_vaultId",
          "type": "uint256"
        },
        {
          "internalType": "uint256",
          "name": "_amount",
          "type": "uint256"
        }
      ],
      "name": "vaultDeposit",
      "outputs": [],
      "stateMutability": "payable",
      "type": "function"
    },
    {
      "inputs": [
        {
          "internalType": "uint256",
          "name": "",
          "type": "uint256"
        },
        {
          "internalType": "uint256",
          "name": "",
          "type": "uint256"
        }
      ],
      "name": "vaultPercentageSplits",
      "outputs": [
        {
          "internalType": "uint256",
          "name": "",
          "type": "uint256"
        }
      ],
      "stateMutability": "view",
      "type": "function"
    },
    {
      "inputs": [
        {
          "internalType": "uint256",
          "name": "",
          "type": "uint256"
        }
      ],
      "name": "vaults",
      "outputs": [
        {
          "internalType": "uint256",
          "name": "id",
          "type": "uint256"
        },
        {
          "internalType": "string",
          "name": "vaultName",
          "type": "string"
        },
        {
          "internalType": "enum CoverLib.RiskType",
          "name": "risk",
          "type": "uint8"
        },
        {
          "internalType": "uint256",
          "name": "amount",
          "type": "uint256"
        },
        {
          "internalType": "uint256",
          "name": "apy",
          "type": "uint256"
        },
        {
          "internalType": "uint256",
          "name": "minInv",
          "type": "uint256"
        },
        {
          "internalType": "uint256",
          "name": "maxInv",
          "type": "uint256"
        },
        {
          "internalType": "uint256",
          "name": "minPeriod",
          "type": "uint256"
        },
        {
          "internalType": "enum CoverLib.AssetDepositType",
          "name": "assetType",
          "type": "uint8"
        },
        {
          "internalType": "address",
          "name": "asset",
          "type": "address"
        }
      ],
      "stateMutability": "view",
      "type": "function"
    }
  ],
  "bytecode": "0x6080346100e757601f61345c38819003918201601f19168301916001600160401b038311848410176100ec578084926020946040528339810103126100e757516001600160a01b038116908190036100e757600160005580156100d157600180546001600160a01b031981168317909155604051919081906001600160a01b03167f8be0079c531659141344cd1fd0a4f28419497f9722a3daafe3b4186f6b6457e0600080a3601280546001600160a01b03199081169091556010805490911691909117905561335990816101038239f35b631e4fbdf760e01b600052600060045260246000fd5b600080fd5b634e487b7160e01b600052604160045260246000fdfe6080604052600436101561001257600080fd5b60003560e01c80631690927d1461292a5780631bec14a1146128f75780631f8be73c14612831578063215baab714611d29578063248a75b714611d0057806325ac19381461194a57806329ba7bb21461192157806334808ec3146118f857806335c1d3491461189d5780634437152a146117c157806344d00f82146116a857806357656486146115995780635aa6e675146115705780635f267c551461154757806360ebd71814611504578063715018a6146114a757806372bafbde1461122757806374d4e49114610e775780637c366cc61461114a57806388d52ef7146111215780638c64ea4a146110575780638da5cb5b1461102e5780639403b63414610fe157806396f3a8ad14610fa7578063996b8a6f14610f7e578063a69ddee614610e95578063a7c6a10014610e77578063ab033ea914610d88578063b30703cd14610d5f578063b38375e914610c69578063b5d90c2814610c40578063c59ecad8146106e1578063d000626514610492578063f2fde38b14610408578063f5b44a70146101d65763f6e80558146101a857600080fd5b346101d15760003660031901126101d1576008546040516001600160a01b039091168152602090f35b600080fd5b346101d15760203660031901126101d15760043560005260036020526101ff604060002061314b565b610140810180516012546001600160a01b039081169291600091168381036102ff575050600954604051630226614760e01b8152600481019390935260209150829060249082906001600160a01b03165afa9081156102f3576000916102c1575b509060806012915b01519060120390601282116102ab57604d82116102ab5760209261029c6102a292670de0b6b3a764000094600a0a9061325b565b9061325b565b04604051908152f35b634e487b7160e01b600052601160045260246000fd5b90506020813d6020116102eb575b816102dc60209383612af3565b810103126101d1575182610260565b3d91506102cf565b6040513d6000823e3d90fd5b600954604051630226614760e01b81526004810192909252929493509091602090829060249082906001600160a01b03165afa9182156103fc5780926103c2575b5050915160405163313ce56760e01b815290602090829060049082906001600160a01b03165afa9081156102f357600091610383575b5060ff6080911691610268565b90506020813d6020116103ba575b8161039e60209383612af3565b810103126101d15760ff6103b3608092613288565b9150610376565b3d9150610391565b9091506020823d6020116103f4575b816103de60209383612af3565b810103126103f157505160206004610340565b80fd5b3d91506103d1565b604051903d90823e3d90fd5b346101d15760203660031901126101d157610421612a17565b6104296132b8565b6001600160a01b0316801561047c57600180546001600160a01b0319811683179091556001600160a01b03167f8be0079c531659141344cd1fd0a4f28419497f9722a3daafe3b4186f6b6457e0600080a3005b631e4fbdf760e01b600052600060045260246000fd5b346101d15760203660031901126101d1576004356104ae613296565b336000526005602052604060002081600052602052604060002090600182019081541561069257600583019160ff8354166104e881612a63565b61065557600884015442106106105781600052600360205261050d604060002061314b565b9160009460608401955b86518051821015610597578161052c916131f4565b51516009546001600160a01b03169190823b156101d157600092606484926040519586938492630380dd7f60e61b84523360048501526024840152600160448401525af19182156102f357600192610586575b5001610517565b600061059191612af3565b8861057f565b505084600260ff198254161790556009429101558154906000526003602052600460406000200180549182039182116102ab577f5cc6e6e6e1779c899a2e4c7a7eabc92a9be18b1efbd37971bb8fcfba46ec24d99261060692602092555493015160405191829133958361326e565b0390a26001600055005b60405162461bcd60e51b815260206004820152601c60248201527f4465706f73697420706572696f6420686173206e6f7420656e646564000000006044820152606490fd5b60405162461bcd60e51b81526020600482015260156024820152744465706f736974206973206e6f742061637469766560581b6044820152606490fd5b60405162461bcd60e51b815260206004820152602160248201527f4e6f206465706f73697420666f756e6420666f722074686973206164647265736044820152607360f81b6064820152608490fd5b6106ea36612a6d565b906106f3613296565b806000526003602052610709604060002061314b565b906060820180515115610c0557600090816101208501946001865161072d81612a43565b61073681612a43565b03610bfa579490928691825b826101408901935b86518051831015610a15578261075f916131f4565b51519089600052600260205260406000208260005260205260646107958161078d6040600020549a8b61325b565b04983461325b565b048551976107a289612a43565b875160405191906001600160a01b031660c083016001600160401b038111848210176109ff57604052338352602083019a868c5260408401928352606084016001815260808501916107f381612a43565b825260a085019283526009546040516305cf023360e21b815295516001600160a01b0390811660048801529d5160248701529351604486015251939b8c9493169261083d81612a43565b60648501525161084c81612a43565b6084840152516001600160a01b031660a4830152815a9360c492604095f19081156102f35760009788926109b8575b5081610897896108916001979695600995612f57565b9c612f57565b9860a06108a5868d516131f4565b510151604051926108b584612abb565b33845260208401928352604084019186835260608501918252610976608086016000815260a0870192835260c087019342855260e088019560008752610100890197600089526101208a019b8e8d5233600052600460205260406000209060005260205260406000208e6000526020526040600020998e8060a01b03908f8060a01b03905116166bffffffffffffffffffffffff60a01b8b5416178a55518d8a01555160028901555160038801555161096d81612a63565b60048701612f7c565b51600585015551600684015551600783015551600882015501905161099a81612a43565b6109a381612a43565b60ff801983541691161790550189949661074a565b91509192939495966040823d82116109f7575b816109d860409383612af3565b810103126103f15750805160209091015190969594939291600961087b565b3d91506109cb565b634e487b7160e01b600052604160045260246000fd5b868b87848c888f8b60a0870151936101008801516201518081028181046201518014821517156102ab57610a499042612f57565b925197610a5589612a43565b516040516001600160a01b03909116979096610a7088612a9f565b338852602088019384526040880191868352606089019081526080890191825260a08901926000845260c08a0194855260e08a01954287526101008b019788526101208b019860008a526101408c019a60008c526101608d019e8f610ad482612a43565b526101808d019d8e52816000526003602052604060002060040190815490610afb91612f57565b9055336000908152600560209081526040808320938352929052209a518b546001600160a01b0319166001600160a01b0391909116178b555160018b01555160028a015551600389015551600488015551610b5581612a63565b610b629060058801612f7c565b51600686015551600785015551600884015551600983015551600a820155600b019151610b8e81612a43565b610b989083612f64565b518154610100600160a81b03191660089190911b610100600160a81b0316179055602001519060405180913393610bcf918361326e565b037f6f85d9948d6ca3dd6ce6ce7d175da22b4e865827ae6fcd530ec7edac1240f92891a26001600055005b949092869134610742565b60405162461bcd60e51b81526020600482015260136024820152725661756c74206973206e6f742061637469766560681b6044820152606490fd5b346101d15760003660031901126101d157600a546040516001600160a01b039091168152602090f35b346101d15760403660031901126101d1576001600160a01b03610c8a612a17565b16600052600560205260406000206024356000526020526101a0604060002060018060a01b038154169060018101546002820154916003810154600482015460ff6005840154166006840154600785015491600886015493600987015495600b600a8901549801549960ff8b16996040519c8d5260208d015260408c015260608b015260808a0152610d1b81612a63565b60a089015260c088015260e0870152610100860152610120850152610140840152610d4581612a43565b61016083015260081c6001600160a01b0316610180820152f35b346101d15760003660031901126101d1576009546040516001600160a01b039091168152602090f35b346101d15760203660031901126101d157610da1612a17565b610da96132b8565b600754906001600160a01b038216610e39576001600160a01b0316908115610dea576001600160a01b03199081168217600755600a80549091169091179055005b60405162461bcd60e51b815260206004820152602160248201527f476f7665726e616e636520616464726573732063616e6e6f74206265207a65726044820152606f60f81b6064820152608490fd5b60405162461bcd60e51b815260206004820152601660248201527511dbdd995c9b985b98d948185b1c9958591e481cd95d60521b6044820152606490fd5b346101d15760003660031901126101d1576020600654604051908152f35b346101d15760203660031901126101d157610eae612a17565b610eb66132b8565b600d54906001600160a01b038216610f39576001600160a01b0316908115610ee8576001600160a01b03191617600d55005b60405162461bcd60e51b8152602060048201526024808201527f506f6f6c2043616e697374657220616464726573732063616e6e6f74206265206044820152637a65726f60e01b6064820152608490fd5b60405162461bcd60e51b815260206004820152601960248201527f506f6f6c2043616e697374657220616c726561647920736574000000000000006044820152606490fd5b346101d15760003660031901126101d157600e546040516001600160a01b039091168152602090f35b346101d15760203660031901126101d1576001600160a01b03610fc8612a17565b1660005260136020526020604060002054604051908152f35b346101d15760203660031901126101d157610ffa613208565b50600435600052600360205261102a611016604060002061314b565b604051918291602083526020830190612dd2565b0390f35b346101d15760003660031901126101d1576001546040516001600160a01b039091168152602090f35b346101d15760203660031901126101d15760043560005260036020526040600020805461108660018301612eb3565b9160ff6002820154169060048101546005820154916006810154600782015490600960088401549301549460ff8616946110d46040519a8b9a8b5261014060208c01526101408b0190612c6f565b976110de81612a63565b60408a01526060890152608088015260a087015260c086015260e085015261110581612a43565b61010084015260081c6001600160a01b03166101208301520390f35b346101d15760003660031901126101d157600c546040516001600160a01b039091168152602090f35b346101d15760203660031901126101d157611163612a17565b61116b6132b8565b600f54906001600160a01b0382166111ee576001600160a01b03169081156111a957600880546001600160a01b031990811684179091551617600f55005b60405162461bcd60e51b815260206004820152601c60248201527f436f76657220616464726573732063616e6e6f74206265207a65726f000000006044820152606490fd5b60405162461bcd60e51b815260206004820152601160248201527010dbdd995c88185b1c9958591e481cd95d607a1b6044820152606490fd5b346101d15760403660031901126101d157611240612a2d565b6004356000526003602052606061125a604060002061314b565b01908151519161126983612b2f565b926112776040519485612af3565b808452611286601f1991612b2f565b0160005b818110611448575090916001600160a01b0316905060005b8251908151811015611387576112ba816001936131f4565b5151836000526004602052604060002090600052602052604060002082600052602052604060002060ff6009604051926112f384612abb565b858060a01b03815416845285810154602085015260028101546040850152600381015460608501528260048201541661132b81612a63565b6080850152600581015460a0850152600681015460c0850152600781015460e0850152600881015461010085015201541661136581612a43565b61012082015261137582876131f4565b5261138081866131f4565b50016112a2565b8460405180916020820160208352815180915260206040840192019060005b8181106113b4575050500390f35b9193509160206101406001926101208751858060a01b0381511683528481015185840152604081015160408401526060810151606084015260808101516113fa81612a63565b608084015260a081015160a084015260c081015160c084015260e081015160e0840152610100810151610100840152015161143481612a43565b6101208201520194019101918493926113a6565b60209060405161145781612abb565b60008152600083820152600060408201526000606082015260006080820152600060a0820152600060c0820152600060e0820152600061010082015260006101208201528282880101520161128a565b346101d15760003660031901126101d1576114c06132b8565b600180546001600160a01b031981169091556000906001600160a01b03167f8be0079c531659141344cd1fd0a4f28419497f9722a3daafe3b4186f6b6457e08280a3005b346101d15760203660031901126101d157600435600052600360205261102a6115336003604060002001613012565b604051918291602083526020830190612c94565b346101d15760003660031901126101d157600d546040516001600160a01b039091168152602090f35b346101d15760003660031901126101d1576007546040516001600160a01b039091168152602090f35b346101d15760403660031901126101d1576115b2612a2d565b6115ba612f95565b5060018060a01b0316600052600560205260406000206004356000526020526101a06040600020600b604051916115f083612a9f565b80546001600160a01b0316835260018101546020840152600281015460408401526003810154606084015260048101546080840152600581015460ff1661163681612a63565b60a0840152600681015460c0840152600781015460e084015260088101546101008401526009810154610120840152600a810154610140840152015460ff811661167f81612a43565b61016083015260081c6001600160a01b0316610180820152604051906116a6908290612ba3565bf35b346101d15760003660031901126101d1576006546116c581612b2f565b906116d36040519283612af3565b808252601f196116e282612b2f565b0160005b8181106117aa57505060015b8181111561176257826040518091602082016020835281518091526040830190602060408260051b8601019301916000905b82821061173357505050500390f35b919360019193955060206117528192603f198a82030186528851612dd2565b9601920192018594939192611724565b8060005260036020526040600020906000198101918183116102ab576117a59261178e61179f9261314b565b61179882886131f4565b52856131f4565b50612f86565b6116f2565b6020906117b5613208565b828287010152016116e6565b346101d15760203660031901126101d1576117da612a17565b6117e26132b8565b600c54906001600160a01b038216611865576001600160a01b031690811561182057600980546001600160a01b031990811684179091551617600c55005b60405162461bcd60e51b815260206004820152601b60248201527f506f6f6c20616464726573732063616e6e6f74206265207a65726f00000000006044820152606490fd5b60405162461bcd60e51b815260206004820152601060248201526f141bdbdb08185b1c9958591e481cd95d60821b6044820152606490fd5b346101d15760203660031901126101d1576004356011548110156101d15760116000527f31ecc21a745e3968a04e9570e4425bc18fa8019c68028196b546d1669c200c6801546040516001600160a01b039091168152602090f35b346101d15760003660031901126101d157600b546040516001600160a01b039091168152602090f35b346101d15760003660031901126101d1576010546040516001600160a01b039091168152602090f35b346101d15760203660031901126101d157611963612a17565b600654906000906001600160a01b031660015b83811115611cba575061198882612b2f565b926119966040519485612af3565b828452601f196119a584612b2f565b0160005b818110611ca35750506119d46119be84612b2f565b936119cc6040519586612af3565b808552612b2f565b916119e76020850193601f190184612ff5565b60009060015b83811115611ae35750505050604051916040830160408452845180915260206060850195019060005b818110611ac257505050828403602084015251808452602084019060208160051b86010192916000905b828210611a4d5785850386f35b90919293601f19878203018252845190815180825260208201906020808260051b85010194019260005b828110611a97575050505050602080600192960192019201909291611a40565b9091929394602080611ab5600193601f198782030189528951612c6f565b9701950193929101611a77565b90919560206101a082611ad86001948b51612ba3565b019701929101611a16565b816000526005602052604060002081600052602052604060002060405190611b0a82612a9f565b80546001600160a01b0316825260018101546020830190815260028201546040840152600382015460608401526004820154608084015260058201549091600b9160ff16611b5781612a63565b60a0850152600681015460c0850152600781015460e085015260088101546101008501526009810154610120850152600a810154610140850152015460ff8116611ba081612a43565b61016084015260081c6001600160a01b031661018083015251611bcd575b50611bc890612f86565b6119ed565b9381600097929493975260036020526060611beb604060002061314b565b019687515196611c24611bfd89612b2f565b98611c0b6040519a8b612af3565b808a52611c1a601f1991612b2f565b0160208a01612ff5565b60005b89518051821015611c6057906020611c41826001946131f4565b510151611c4e828c6131f4565b52611c59818b6131f4565b5001611c27565b505096611bc8939850611c9c9296949194611c7b838c6131f4565b52611c86828b6131f4565b50611c91828a6131f4565b5261179f81896131f4565b9290611bbe565b602090611cae612f95565b828289010152016119a9565b816000526005602052604060002081600052602052600160406000200154611ceb575b611ce690612f86565b611976565b91611cf8611ce691612f86565b929050611cdd565b346101d15760003660031901126101d157600f546040516001600160a01b039091168152602090f35b346101d1576101203660031901126101d1576004356001600160401b0381116101d157366023820112156101d1578060040135611d6581612b14565b91611d736040519384612af3565b81835236602483830101116101d15781600092602460209301838601378301015260243560038110156101d1576044356001600160401b0381116101d157611dbf903690600401612b46565b6064356001600160401b0381116101d157611dde903690600401612b46565b60c43592600260e43510156101d157610104356001600160a01b0381168082036101d157611e0a6132b8565b84518451036127e057611e1e60e435612a43565b60e435159081156127d6575b50156127915760065495600187018097116102ab5786600655866000526003602052604060002096875560018701908051906001600160401b0382116109ff57611e748354612e79565b601f8111612749575b50602090601f83116001146126d9579180611efb9492611f049796946000926126ce575b50508160011b916000199060031b1c19161790555b608435600689015560a435600789015560098801611ed660e43582612f64565b8054610100600160a81b03191660089290921b610100600160a81b0316919091179055565b60028601612f7c565b60009160009283809281955b81518710156125a9576009546001600160a01b0316936000611f3289856131f4565b5160246040518098819363068bcd8d60e01b835260048301525afa9485156102f357600095612431575b50610200850151611f6c81612a43565b611f7760e435612a43565b611f8081612a43565b60e435036123ec57611f9d90611f9689896131f4565b5190612f57565b93611fa888886131f4565b518a5460005260026020526040600020611fc28a866131f4565b5160005260205260406000205560038a0154680100000000000000008110156109ff57600181018060038d01558110156123d65760038b016000526020600020918051600f83028401556001600f830284010160208201518051906001600160401b0382116109ff5781906120378454612e79565b601f8111612383575b50602090601f831160011461231e57600092612313575b50508160011b916000199060031b1c19161790555b60408101518051906001600160401b0382116109ff5781906120966002600f870288010154612e79565b601f81116122bb575b50602090601f831160011461224057600092612235575b50508160011b916000199060031b1c1916176002600f8402850101555b6120f260608201516120e481612a63565b6003600f8502860101612f7c565b608081018051600f93909302909301600481019290925560a081018051600584015560c0820151600684015560e082015160078401556101008201516008808501919091556101208301516009850155610140830151600a850155610160830151600b8501805460ff921515831660ff1991909116179055610180840151600c8601556101a0840151600d8601556101c0840151600e9590950180546101e08601516001600160a81b03199091169690921695909517911b610100600160a81b0316178355919061020001516121c781612a43565b6121d081612a43565b815460ff60a81b191660a89190911b60ff60a81b161790555184811161222b575b50612217600192612211612222935161220a8c8c6131f4565b519061325b565b90612f57565b95611f9689896131f4565b96019593611f10565b93506122176121f1565b015190508e806120b6565b92506002600f860287010160005280600020906000935b601f19841685106122a0576001945083601f19811610612287575b505050811b016002600f8402850101556120d3565b015160001960f88460031b161c191690558e8080612272565b81810151835560209485019460019093019290910190612257565b9091506002600f86028701016000526020600020601f840160051c81016020851061230c575b90849392915b601f830160051c820181106122fd57505061209f565b600081558594506001016122e7565b50806122e1565b015190508f80612057565b60008581528281209350601f198516905b81811061236b5750908460019594939210612352575b505050811b01905561206c565b015160001960f88460031b161c191690558f8080612345565b9293602060018192878601518155019501930161232f565b909150836000526020600020601f840160051c810191602085106123cc575b90601f859493920160051c01905b8181106123bd5750612040565b600081558493506001016123b0565b90915081906123a2565b634e487b7160e01b600052603260045260246000fd5b60405162461bcd60e51b815260206004820152601f60248201527f496e636f6d70617469626c65206173736574207479706520696e20706f6f6c006044820152606490fd5b90943d8082843e6124428184612af3565b8201916020818403126125a5578051906001600160401b03821161259d5701610220818403126125a5576040519261247984612a83565b8151845260208201516001600160401b0381116125a1578161249c9184016132e1565b602085015260408201516001600160401b0381116125a157906124c09183016132e1565b60408401526060810151600381101561259d5760608401526080810151608084015260a081015160a084015260c081015160c084015260e081015160e0840152610100810151610100840152610120810151610120840152610140810151610140840152610160810151801515810361259d576101608401526101808101516101808401526101a08101516101a084015261255e6101c08201613288565b6101c08401526101e08101516001600160a01b038116810361259d576101e084015261020001519060028210156103f15750610200820152938a611f5c565b8280fd5b8380fd5b5080fd5b8894889250908115806126c3576126ad5704915b811061261c5783600591600860649601550155036125d757005b60405162461bcd60e51b815260206004820152601b60248201527f546f74616c2073706c6974206d75737420657175616c203130302500000000006044820152606490fd5b60405162461bcd60e51b815260206004820152606060248201527f4d696e696d756e20706572696f64206d7573742062652067726561746572207460448201527f68616e206f7220657175616c20746f20746865206d696e696d756d207065726960648201527f6f64206f6620616c6c20706f6f6c732077697468696e20746865207661756c74608482015260a490fd5b634e487b7160e01b600052601260045260246000fd5b5050506000916125bd565b015190508b80611ea1565b90601f1983169184600052816000209260005b8181106127315750926001928592611f04999896611efb989610612718575b505050811b019055611eb6565b015160001960f88460031b161c191690558b808061270b565b929360206001819287860151815501950193016126ec565b836000526020600020601f840160051c81019160208510612787575b601f0160051c01905b81811061277b5750611e7d565b6000815560010161276e565b9091508190612765565b60405162461bcd60e51b815260206004820152601e60248201527f496e76616c696420617373657420666f72206465706f736974207479706500006044820152606490fd5b9050151587611e2a565b60405162461bcd60e51b815260206004820152602360248201527f4d69736d61746368656420706f6f6c2049447320616e642070657263656e746160448201526267657360e81b6064820152608490fd5b346101d15760403660031901126101d15761284a612a2d565b612852613296565b600c546001600160a01b0316331480156128e3575b1561289e5760018060a01b031660005260056020526040600020600435600052602052600060016040822001556001600055600080f35b60405162461bcd60e51b815260206004820152601f60248201527f43616c6c6572206973206e6f742074686520706f6f6c20636f6e7472616374006044820152606490fd5b506010546001600160a01b03163314612867565b346101d15761290536612a6d565b9060005260026020526040600020906000526020526020604060002054604051908152f35b346101d15760603660031901126101d157612943612a17565b6044359060028210156101d15760018060a01b03166000526004602052604060002060243560005260205260406000209061297d81612a43565b600052602052610140604060002060018060a01b03815416906001810154906002810154600382015460ff60048401541660058401549060068501549260078601549460ff600960088901549801541697604051998a5260208a0152604089015260608801526129ec81612a63565b608087015260a086015260c085015260e0840152610100830152612a0f81612a43565b610120820152f35b600435906001600160a01b03821682036101d157565b602435906001600160a01b03821682036101d157565b60021115612a4d57565b634e487b7160e01b600052602160045260246000fd5b60031115612a4d57565b60409060031901126101d1576004359060243590565b61022081019081106001600160401b038211176109ff57604052565b6101a081019081106001600160401b038211176109ff57604052565b61014081019081106001600160401b038211176109ff57604052565b61016081019081106001600160401b038211176109ff57604052565b90601f801991011681019081106001600160401b038211176109ff57604052565b6001600160401b0381116109ff57601f01601f191660200190565b6001600160401b0381116109ff5760051b60200190565b9080601f830112156101d1578135612b5d81612b2f565b92612b6b6040519485612af3565b81845260208085019260051b8201019283116101d157602001905b828210612b935750505090565b8135815260209182019101612b86565b6101809060018060a01b0381511683526020810151602084015260408101516040840152606081015160608401526080810151608084015260a0810151612be981612a63565b60a084015260c081015160c084015260e081015160e0840152610100810151610100840152610120810151610120840152610140810151610140840152610160810151612c3581612a43565b6101608401528101516001600160a01b0316910152565b60005b838110612c5f5750506000910152565b8181015183820152602001612c4f565b90602091612c8881518092818552858086019101612c4c565b601f01601f1916010190565b9080602083519182815201916020808360051b8301019401926000915b838310612cc057505050505090565b9091929394602080600192601f198582030186528851908151815261020080612d0d612cfb8686015161022088870152610220860190612c6f565b60408601518582036040870152612c6f565b936060810151612d1c81612a63565b60608501526080810151608085015260a081015160a085015260c081015160c085015260e081015160e085015261010081015161010085015261012081015161012085015261014081015161014085015261016081015115156101608501526101808101516101808501526101a08101516101a085015260ff6101c0820151166101c0850152878060a01b036101e0820151166101e0850152015191612dc183612a43565b015297019301930191939290612cb1565b9081518152610140612e1d612df860208501516101606020860152610160850190612c6f565b6040850151612e0681612a63565b604085015260608501518482036060860152612c94565b926080810151608084015260a081015160a084015260c081015160c084015260e081015160e0840152610100810151610100840152610120810151612e6181612a43565b6101208401528101516001600160a01b031691015290565b90600182811c92168015612ea9575b6020831014612e9357565b634e487b7160e01b600052602260045260246000fd5b91607f1691612e88565b9060405191826000825492612ec784612e79565b8084529360018116908115612f355750600114612eee575b50612eec92500383612af3565b565b90506000929192526020600020906000915b818310612f19575050906020612eec9282010138612edf565b6020919350806001915483858901015201910190918492612f00565b905060209250612eec94915060ff191682840152151560051b82010138612edf565b919082018092116102ab57565b90612f6e81612a43565b60ff80198354169116179055565b90612f6e81612a63565b60001981146102ab5760010190565b60405190612fa282612a9f565b6000610180838281528260208201528260408201528260608201528260808201528260a08201528260c08201528260e0820152826101008201528261012082015282610140820152826101608201520152565b60005b82811061300457505050565b606082820152602001612ff8565b90815461301e81612b2f565b9261302c6040519485612af3565b818452602084019060005260206000206000915b83831061304d5750505050565b600f602060019260405161306081612a83565b8554815261306f858701612eb3565b8382015261307f60028701612eb3565b604082015260ff60038701541661309581612a63565b606082015260048601546080820152600586015460a0820152600686015460c0820152600786015460e082015260088601546101008201526009860154610120820152600a86015461014082015260ff600b870154161515610160820152600c860154610180820152600d8601546101a082015260ff600e8701548181166101c0840152868060a01b038160081c166101e084015260a81c1661313781612a43565b610200820152815201920192019190613040565b9060405161315881612ad7565b610140600982948054845261316f60018201612eb3565b602085015260ff60028201541661318581612a63565b604085015261319660038201613012565b606085015260048101546080850152600581015460a0850152600681015460c0850152600781015460e08501526008810154610100850152015460ff81166131dd81612a43565b61012084015260081c6001600160a01b0316910152565b80518210156123d65760209160051b010190565b6040519061321582612ad7565b600061014083828152606060208201528260408201526060808201528260808201528260a08201528260c08201528260e082015282610100820152826101208201520152565b818102929181159184041417156102ab57565b604090613285939281528160208201520190612c6f565b90565b519060ff821682036101d157565b6002600054146132a7576002600055565b633ee5aeb560e01b60005260046000fd5b6001546001600160a01b031633036132cc57565b63118cdaa760e01b6000523360045260246000fd5b81601f820112156101d15780516132f781612b14565b926133056040519485612af3565b818452602082840101116101d1576132859160208085019101612c4c56fea2646970667358221220cf3efec47b9979e4b65cf08c3143af4e4ed5abceeacc4232dd884cc22b0b349364736f6c634300081c0033",
  "linkReferences": {},
  "deployedLinkReferences": {}
}