{
  "_format": "hh-sol-artifact-1",
  "contractName": "InsuranceCover",
  "sourceName": "contracts/InsuranceCover.sol",
  "abi": [
    {
      "inputs": [
        {
          "internalType": "address",
          "name": "_lpContract",
          "type": "address"
        },
        {
          "internalType": "address",
          "name": "_vaultContract",
          "type": "address"
        },
        {
          "internalType": "address",
          "name": "_initialOwner",
          "type": "address"
        },
        {
          "internalType": "address",
          "name": "_bqBTC",
          "type": "address"
        }
      ],
      "stateMutability": "nonpayable",
      "type": "constructor"
    },
    {
      "inputs": [],
      "name": "CoverNotAvailable",
      "type": "error"
    },
    {
      "inputs": [],
      "name": "InsufficientPoolBalance",
      "type": "error"
    },
    {
      "inputs": [],
      "name": "InvalidAmount",
      "type": "error"
    },
    {
      "inputs": [],
      "name": "InvalidCoverDuration",
      "type": "error"
    },
    {
      "inputs": [],
      "name": "LpNotActive",
      "type": "error"
    },
    {
      "inputs": [],
      "name": "NameAlreadyExists",
      "type": "error"
    },
    {
      "inputs": [],
      "name": "NoClaimableReward",
      "type": "error"
    },
    {
      "inputs": [
        {
          "internalType": "address",
          "name": "owner",
          "type": "address"
        }
      ],
      "name": "OwnableInvalidOwner",
      "type": "error"
    },
    {
      "inputs": [
        {
          "internalType": "address",
          "name": "account",
          "type": "address"
        }
      ],
      "name": "OwnableUnauthorizedAccount",
      "type": "error"
    },
    {
      "inputs": [],
      "name": "ReentrancyGuardReentrantCall",
      "type": "error"
    },
    {
      "inputs": [],
      "name": "UnsupportedCoverType",
      "type": "error"
    },
    {
      "inputs": [],
      "name": "UserHaveAlreadyPurchasedCover",
      "type": "error"
    },
    {
      "inputs": [],
      "name": "WrongPool",
      "type": "error"
    },
    {
      "anonymous": false,
      "inputs": [
        {
          "indexed": true,
          "internalType": "uint256",
          "name": "coverId",
          "type": "uint256"
        },
        {
          "indexed": false,
          "internalType": "string",
          "name": "name",
          "type": "string"
        },
        {
          "indexed": false,
          "internalType": "enum CoverLib.RiskType",
          "name": "riskType",
          "type": "uint8"
        }
      ],
      "name": "CoverCreated",
      "type": "event"
    },
    {
      "anonymous": false,
      "inputs": [
        {
          "indexed": true,
          "internalType": "address",
          "name": "user",
          "type": "address"
        },
        {
          "indexed": false,
          "internalType": "uint256",
          "name": "coverValue",
          "type": "uint256"
        },
        {
          "indexed": false,
          "internalType": "uint256",
          "name": "coverFee",
          "type": "uint256"
        },
        {
          "indexed": false,
          "internalType": "enum CoverLib.RiskType",
          "name": "riskType",
          "type": "uint8"
        }
      ],
      "name": "CoverPurchased",
      "type": "event"
    },
    {
      "anonymous": false,
      "inputs": [
        {
          "indexed": true,
          "internalType": "uint256",
          "name": "coverId",
          "type": "uint256"
        },
        {
          "indexed": false,
          "internalType": "string",
          "name": "coverName",
          "type": "string"
        },
        {
          "indexed": false,
          "internalType": "enum CoverLib.RiskType",
          "name": "riskType",
          "type": "uint8"
        }
      ],
      "name": "CoverUpdated",
      "type": "event"
    },
    {
      "anonymous": false,
      "inputs": [
        {
          "indexed": true,
          "internalType": "address",
          "name": "previousOwner",
          "type": "address"
        },
        {
          "indexed": true,
          "internalType": "address",
          "name": "newOwner",
          "type": "address"
        }
      ],
      "name": "OwnershipTransferred",
      "type": "event"
    },
    {
      "anonymous": false,
      "inputs": [
        {
          "indexed": true,
          "internalType": "address",
          "name": "user",
          "type": "address"
        },
        {
          "indexed": true,
          "internalType": "uint256",
          "name": "poolId",
          "type": "uint256"
        },
        {
          "indexed": false,
          "internalType": "uint256",
          "name": "amount",
          "type": "uint256"
        }
      ],
      "name": "PayoutClaimed",
      "type": "event"
    },
    {
      "inputs": [
        {
          "internalType": "address",
          "name": "",
          "type": "address"
        },
        {
          "internalType": "uint256",
          "name": "",
          "type": "uint256"
        }
      ],
      "name": "LastVaultClaimTime",
      "outputs": [
        {
          "internalType": "uint256",
          "name": "",
          "type": "uint256"
        }
      ],
      "stateMutability": "view",
      "type": "function"
    },
    {
      "inputs": [
        {
          "internalType": "address",
          "name": "",
          "type": "address"
        },
        {
          "internalType": "uint256",
          "name": "",
          "type": "uint256"
        }
      ],
      "name": "NextLpClaimTime",
      "outputs": [
        {
          "internalType": "uint256",
          "name": "",
          "type": "uint256"
        }
      ],
      "stateMutability": "view",
      "type": "function"
    },
    {
      "inputs": [
        {
          "internalType": "uint256",
          "name": "amount",
          "type": "uint256"
        },
        {
          "internalType": "enum CoverLib.AssetDepositType",
          "name": "adt",
          "type": "uint8"
        },
        {
          "internalType": "address",
          "name": "asset",
          "type": "address"
        }
      ],
      "name": "addFundsToCoverContract",
      "outputs": [],
      "stateMutability": "payable",
      "type": "function"
    },
    {
      "inputs": [],
      "name": "bqBTC",
      "outputs": [
        {
          "internalType": "contract IbqBTC",
          "name": "",
          "type": "address"
        }
      ],
      "stateMutability": "view",
      "type": "function"
    },
    {
      "inputs": [],
      "name": "bqBTCAddress",
      "outputs": [
        {
          "internalType": "address",
          "name": "",
          "type": "address"
        }
      ],
      "stateMutability": "view",
      "type": "function"
    },
    {
      "inputs": [
        {
          "internalType": "uint256",
          "name": "_poolId",
          "type": "uint256"
        }
      ],
      "name": "claimPayoutForLP",
      "outputs": [],
      "stateMutability": "nonpayable",
      "type": "function"
    },
    {
      "inputs": [
        {
          "internalType": "uint256",
          "name": "vaultId",
          "type": "uint256"
        }
      ],
      "name": "claimPayoutForVault",
      "outputs": [],
      "stateMutability": "nonpayable",
      "type": "function"
    },
    {
      "inputs": [],
      "name": "coverCount",
      "outputs": [
        {
          "internalType": "uint256",
          "name": "",
          "type": "uint256"
        }
      ],
      "stateMutability": "view",
      "type": "function"
    },
    {
      "inputs": [
        {
          "internalType": "uint256",
          "name": "",
          "type": "uint256"
        }
      ],
      "name": "coverExists",
      "outputs": [
        {
          "internalType": "bool",
          "name": "",
          "type": "bool"
        }
      ],
      "stateMutability": "view",
      "type": "function"
    },
    {
      "inputs": [],
      "name": "coverFeeBalance",
      "outputs": [
        {
          "internalType": "uint256",
          "name": "",
          "type": "uint256"
        }
      ],
      "stateMutability": "view",
      "type": "function"
    },
    {
      "inputs": [
        {
          "internalType": "uint256",
          "name": "",
          "type": "uint256"
        }
      ],
      "name": "coverIds",
      "outputs": [
        {
          "internalType": "uint256",
          "name": "",
          "type": "uint256"
        }
      ],
      "stateMutability": "view",
      "type": "function"
    },
    {
      "inputs": [
        {
          "internalType": "uint256",
          "name": "",
          "type": "uint256"
        }
      ],
      "name": "covers",
      "outputs": [
        {
          "internalType": "uint256",
          "name": "id",
          "type": "uint256"
        },
        {
          "internalType": "string",
          "name": "coverName",
          "type": "string"
        },
        {
          "internalType": "enum CoverLib.RiskType",
          "name": "riskType",
          "type": "uint8"
        },
        {
          "internalType": "string",
          "name": "chains",
          "type": "string"
        },
        {
          "internalType": "uint256",
          "name": "capacity",
          "type": "uint256"
        },
        {
          "internalType": "uint256",
          "name": "capacityAmount",
          "type": "uint256"
        },
        {
          "internalType": "uint256",
          "name": "coverValues",
          "type": "uint256"
        },
        {
          "internalType": "uint256",
          "name": "maxAmount",
          "type": "uint256"
        },
        {
          "internalType": "uint256",
          "name": "poolId",
          "type": "uint256"
        },
        {
          "internalType": "string",
          "name": "CID",
          "type": "string"
        },
        {
          "internalType": "enum CoverLib.AssetDepositType",
          "name": "adt",
          "type": "uint8"
        },
        {
          "internalType": "address",
          "name": "asset",
          "type": "address"
        }
      ],
      "stateMutability": "view",
      "type": "function"
    },
    {
      "inputs": [
        {
          "internalType": "uint256",
          "name": "coverId",
          "type": "uint256"
        },
        {
          "internalType": "string",
          "name": "_cid",
          "type": "string"
        },
        {
          "internalType": "enum CoverLib.RiskType",
          "name": "_riskType",
          "type": "uint8"
        },
        {
          "internalType": "string",
          "name": "_coverName",
          "type": "string"
        },
        {
          "internalType": "string",
          "name": "_chains",
          "type": "string"
        },
        {
          "internalType": "uint256",
          "name": "_capacity",
          "type": "uint256"
        },
        {
          "internalType": "uint256",
          "name": "_poolId",
          "type": "uint256"
        }
      ],
      "name": "createCover",
      "outputs": [],
      "stateMutability": "nonpayable",
      "type": "function"
    },
    {
      "inputs": [
        {
          "internalType": "address",
          "name": "_user",
          "type": "address"
        }
      ],
      "name": "deleteExpiredUserCovers",
      "outputs": [],
      "stateMutability": "nonpayable",
      "type": "function"
    },
    {
      "inputs": [],
      "name": "getAllAvailableCovers",
      "outputs": [
        {
          "components": [
            {
              "internalType": "uint256",
              "name": "id",
              "type": "uint256"
            },
            {
              "internalType": "string",
              "name": "coverName",
              "type": "string"
            },
            {
              "internalType": "enum CoverLib.RiskType",
              "name": "riskType",
              "type": "uint8"
            },
            {
              "internalType": "string",
              "name": "chains",
              "type": "string"
            },
            {
              "internalType": "uint256",
              "name": "capacity",
              "type": "uint256"
            },
            {
              "internalType": "uint256",
              "name": "capacityAmount",
              "type": "uint256"
            },
            {
              "internalType": "uint256",
              "name": "coverValues",
              "type": "uint256"
            },
            {
              "internalType": "uint256",
              "name": "maxAmount",
              "type": "uint256"
            },
            {
              "internalType": "uint256",
              "name": "poolId",
              "type": "uint256"
            },
            {
              "internalType": "string",
              "name": "CID",
              "type": "string"
            },
            {
              "internalType": "enum CoverLib.AssetDepositType",
              "name": "adt",
              "type": "uint8"
            },
            {
              "internalType": "address",
              "name": "asset",
              "type": "address"
            }
          ],
          "internalType": "struct CoverLib.Cover[]",
          "name": "",
          "type": "tuple[]"
        }
      ],
      "stateMutability": "view",
      "type": "function"
    },
    {
      "inputs": [],
      "name": "getAllParticipants",
      "outputs": [
        {
          "internalType": "address[]",
          "name": "",
          "type": "address[]"
        }
      ],
      "stateMutability": "view",
      "type": "function"
    },
    {
      "inputs": [
        {
          "internalType": "address",
          "name": "user",
          "type": "address"
        }
      ],
      "name": "getAllUserCovers",
      "outputs": [
        {
          "components": [
            {
              "internalType": "address",
              "name": "user",
              "type": "address"
            },
            {
              "internalType": "uint256",
              "name": "coverId",
              "type": "uint256"
            },
            {
              "internalType": "enum CoverLib.RiskType",
              "name": "riskType",
              "type": "uint8"
            },
            {
              "internalType": "string",
              "name": "coverName",
              "type": "string"
            },
            {
              "internalType": "uint256",
              "name": "coverValue",
              "type": "uint256"
            },
            {
              "internalType": "uint256",
              "name": "claimPaid",
              "type": "uint256"
            },
            {
              "internalType": "uint256",
              "name": "coverPeriod",
              "type": "uint256"
            },
            {
              "internalType": "uint256",
              "name": "endDay",
              "type": "uint256"
            },
            {
              "internalType": "bool",
              "name": "isActive",
              "type": "bool"
            }
          ],
          "internalType": "struct CoverLib.GenericCoverInfo[]",
          "name": "",
          "type": "tuple[]"
        }
      ],
      "stateMutability": "view",
      "type": "function"
    },
    {
      "inputs": [],
      "name": "getCoverFeeBalance",
      "outputs": [
        {
          "internalType": "uint256",
          "name": "",
          "type": "uint256"
        }
      ],
      "stateMutability": "view",
      "type": "function"
    },
    {
      "inputs": [
        {
          "internalType": "uint256",
          "name": "_coverId",
          "type": "uint256"
        }
      ],
      "name": "getCoverInfo",
      "outputs": [
        {
          "components": [
            {
              "internalType": "uint256",
              "name": "id",
              "type": "uint256"
            },
            {
              "internalType": "string",
              "name": "coverName",
              "type": "string"
            },
            {
              "internalType": "enum CoverLib.RiskType",
              "name": "riskType",
              "type": "uint8"
            },
            {
              "internalType": "string",
              "name": "chains",
              "type": "string"
            },
            {
              "internalType": "uint256",
              "name": "capacity",
              "type": "uint256"
            },
            {
              "internalType": "uint256",
              "name": "capacityAmount",
              "type": "uint256"
            },
            {
              "internalType": "uint256",
              "name": "coverValues",
              "type": "uint256"
            },
            {
              "internalType": "uint256",
              "name": "maxAmount",
              "type": "uint256"
            },
            {
              "internalType": "uint256",
              "name": "poolId",
              "type": "uint256"
            },
            {
              "internalType": "string",
              "name": "CID",
              "type": "string"
            },
            {
              "internalType": "enum CoverLib.AssetDepositType",
              "name": "adt",
              "type": "uint8"
            },
            {
              "internalType": "address",
              "name": "asset",
              "type": "address"
            }
          ],
          "internalType": "struct CoverLib.Cover",
          "name": "",
          "type": "tuple"
        }
      ],
      "stateMutability": "view",
      "type": "function"
    },
    {
      "inputs": [
        {
          "internalType": "address",
          "name": "user",
          "type": "address"
        },
        {
          "internalType": "uint256",
          "name": "_poolId",
          "type": "uint256"
        }
      ],
      "name": "getDepositClaimableDays",
      "outputs": [
        {
          "internalType": "uint256",
          "name": "",
          "type": "uint256"
        }
      ],
      "stateMutability": "view",
      "type": "function"
    },
    {
      "inputs": [
        {
          "internalType": "address",
          "name": "user",
          "type": "address"
        },
        {
          "internalType": "uint256",
          "name": "_poolId",
          "type": "uint256"
        }
      ],
      "name": "getLastClaimTime",
      "outputs": [
        {
          "internalType": "uint256",
          "name": "",
          "type": "uint256"
        }
      ],
      "stateMutability": "view",
      "type": "function"
    },
    {
      "inputs": [
        {
          "internalType": "address",
          "name": "user",
          "type": "address"
        },
        {
          "internalType": "uint256",
          "name": "_coverId",
          "type": "uint256"
        }
      ],
      "name": "getUserCoverInfo",
      "outputs": [
        {
          "components": [
            {
              "internalType": "address",
              "name": "user",
              "type": "address"
            },
            {
              "internalType": "uint256",
              "name": "coverId",
              "type": "uint256"
            },
            {
              "internalType": "enum CoverLib.RiskType",
              "name": "riskType",
              "type": "uint8"
            },
            {
              "internalType": "string",
              "name": "coverName",
              "type": "string"
            },
            {
              "internalType": "uint256",
              "name": "coverValue",
              "type": "uint256"
            },
            {
              "internalType": "uint256",
              "name": "claimPaid",
              "type": "uint256"
            },
            {
              "internalType": "uint256",
              "name": "coverPeriod",
              "type": "uint256"
            },
            {
              "internalType": "uint256",
              "name": "endDay",
              "type": "uint256"
            },
            {
              "internalType": "bool",
              "name": "isActive",
              "type": "bool"
            }
          ],
          "internalType": "struct CoverLib.GenericCoverInfo",
          "name": "",
          "type": "tuple"
        }
      ],
      "stateMutability": "view",
      "type": "function"
    },
    {
      "inputs": [
        {
          "internalType": "address",
          "name": "user",
          "type": "address"
        }
      ],
      "name": "getUserParticipation",
      "outputs": [
        {
          "internalType": "uint256",
          "name": "",
          "type": "uint256"
        }
      ],
      "stateMutability": "view",
      "type": "function"
    },
    {
      "inputs": [],
      "name": "governance",
      "outputs": [
        {
          "internalType": "address",
          "name": "",
          "type": "address"
        }
      ],
      "stateMutability": "view",
      "type": "function"
    },
    {
      "inputs": [],
      "name": "lpAddress",
      "outputs": [
        {
          "internalType": "address",
          "name": "",
          "type": "address"
        }
      ],
      "stateMutability": "view",
      "type": "function"
    },
    {
      "inputs": [],
      "name": "lpContract",
      "outputs": [
        {
          "internalType": "contract ILP",
          "name": "",
          "type": "address"
        }
      ],
      "stateMutability": "view",
      "type": "function"
    },
    {
      "inputs": [],
      "name": "owner",
      "outputs": [
        {
          "internalType": "address",
          "name": "",
          "type": "address"
        }
      ],
      "stateMutability": "view",
      "type": "function"
    },
    {
      "inputs": [
        {
          "internalType": "uint256",
          "name": "",
          "type": "uint256"
        }
      ],
      "name": "participants",
      "outputs": [
        {
          "internalType": "address",
          "name": "",
          "type": "address"
        }
      ],
      "stateMutability": "view",
      "type": "function"
    },
    {
      "inputs": [
        {
          "internalType": "address",
          "name": "",
          "type": "address"
        }
      ],
      "name": "participation",
      "outputs": [
        {
          "internalType": "uint256",
          "name": "",
          "type": "uint256"
        }
      ],
      "stateMutability": "view",
      "type": "function"
    },
    {
      "inputs": [
        {
          "internalType": "uint256",
          "name": "_coverId",
          "type": "uint256"
        },
        {
          "internalType": "uint256",
          "name": "_coverValue",
          "type": "uint256"
        },
        {
          "internalType": "uint256",
          "name": "_coverPeriod",
          "type": "uint256"
        },
        {
          "internalType": "uint256",
          "name": "_coverFee",
          "type": "uint256"
        }
      ],
      "name": "purchaseCover",
      "outputs": [],
      "stateMutability": "payable",
      "type": "function"
    },
    {
      "inputs": [],
      "name": "renounceOwnership",
      "outputs": [],
      "stateMutability": "nonpayable",
      "type": "function"
    },
    {
      "inputs": [
        {
          "internalType": "address",
          "name": "newOwner",
          "type": "address"
        }
      ],
      "name": "transferOwnership",
      "outputs": [],
      "stateMutability": "nonpayable",
      "type": "function"
    },
    {
      "inputs": [
        {
          "internalType": "uint256",
          "name": "_coverId",
          "type": "uint256"
        },
        {
          "internalType": "string",
          "name": "_coverName",
          "type": "string"
        },
        {
          "internalType": "enum CoverLib.RiskType",
          "name": "_riskType",
          "type": "uint8"
        },
        {
          "internalType": "string",
          "name": "_cid",
          "type": "string"
        },
        {
          "internalType": "string",
          "name": "_chains",
          "type": "string"
        },
        {
          "internalType": "uint256",
          "name": "_capacity",
          "type": "uint256"
        },
        {
          "internalType": "uint256",
          "name": "_poolId",
          "type": "uint256"
        }
      ],
      "name": "updateCover",
      "outputs": [],
      "stateMutability": "nonpayable",
      "type": "function"
    },
    {
      "inputs": [
        {
          "internalType": "uint256",
          "name": "_coverId",
          "type": "uint256"
        }
      ],
      "name": "updateMaxAmount",
      "outputs": [],
      "stateMutability": "nonpayable",
      "type": "function"
    },
    {
      "inputs": [
        {
          "internalType": "address",
          "name": "user",
          "type": "address"
        },
        {
          "internalType": "uint256",
          "name": "_coverId",
          "type": "uint256"
        },
        {
          "internalType": "uint256",
          "name": "_claimPaid",
          "type": "uint256"
        }
      ],
      "name": "updateUserCoverValue",
      "outputs": [],
      "stateMutability": "nonpayable",
      "type": "function"
    },
    {
      "inputs": [
        {
          "internalType": "address",
          "name": "",
          "type": "address"
        },
        {
          "internalType": "uint256",
          "name": "",
          "type": "uint256"
        }
      ],
      "name": "userCovers",
      "outputs": [
        {
          "internalType": "address",
          "name": "user",
          "type": "address"
        },
        {
          "internalType": "uint256",
          "name": "coverId",
          "type": "uint256"
        },
        {
          "internalType": "enum CoverLib.RiskType",
          "name": "riskType",
          "type": "uint8"
        },
        {
          "internalType": "string",
          "name": "coverName",
          "type": "string"
        },
        {
          "internalType": "uint256",
          "name": "coverValue",
          "type": "uint256"
        },
        {
          "internalType": "uint256",
          "name": "claimPaid",
          "type": "uint256"
        },
        {
          "internalType": "uint256",
          "name": "coverPeriod",
          "type": "uint256"
        },
        {
          "internalType": "uint256",
          "name": "endDay",
          "type": "uint256"
        },
        {
          "internalType": "bool",
          "name": "isActive",
          "type": "bool"
        }
      ],
      "stateMutability": "view",
      "type": "function"
    },
    {
      "inputs": [],
      "name": "vaultAddress",
      "outputs": [
        {
          "internalType": "address",
          "name": "",
          "type": "address"
        }
      ],
      "stateMutability": "view",
      "type": "function"
    },
    {
      "inputs": [],
      "name": "vaultContract",
      "outputs": [
        {
          "internalType": "contract IVault",
          "name": "",
          "type": "address"
        }
      ],
      "stateMutability": "view",
      "type": "function"
    }
  ],
  "bytecode": "0x60803461014c57601f613f2438819003918201601f19168301916001600160401b038311848410176101515780849260809460405283398101031261014c5761004781610167565b9061005460208201610167565b61006c606061006560408501610167565b9301610167565b60016000556001600160a01b0390921692831561013657600180546001600160a01b03198116861790915560405194906001600160a01b03167f8be0079c531659141344cd1fd0a4f28419497f9722a3daafe3b4186f6b6457e0600080a3600380546001600160a01b039283166001600160a01b0319918216811790925560058054948416948216851790556009805482169094179093556007805484169091179055600480549390911692821683179055600680549091169091179055613da8908161017c8239f35b631e4fbdf760e01b600052600060045260246000fd5b600080fd5b634e487b7160e01b600052604160045260246000fd5b51906001600160a01b038216820361014c5756fe608080604052600436101561001357600080fd5b600090813560e01c9081630db981a014613190575080630e0e96fd14612a18578063105258141461115d578063106b5da1146128d1578063195ec9ee146128095780632083d5f01461232e578063225a72e71461224f5780632274346b146122265780632d8a340c14611e4257806334808ec314611e19578063357917b7146117e257806335c1d34914611dd5578063430bf08a14611dac57806346f8479514610df25780635aa6e67514611d83578063602710a414611800578063609c7604146117e257806362858bfa146116d35780636299df6c146115b0578063649718b214611381578063715018a61461132457806373cce3ee146111cf578063782ea619146111a05780637a728e7f1461115d5780637ceb4a69146110c55780638acee3cf1461109c5780638da5cb5b1461107357806393b1ad3814610e2b57806396f3a8ad14610df2578063996b8a6f14610dc95780639b4dc8cc14610da05780639e7b399e14610cc2578063bfc664f314610b84578063cadcb47114610a98578063eabe6d67146102a6578063f2fde38b1461021d578063fb643583146101e35763feb0b8f5146101c357600080fd5b346101e057806003193601126101e0576020601154604051908152f35b80fd5b50346101e05760203660031901126101e057600435906012548210156101e057602061020e8361336c565b90549060031b1c604051908152f35b50346101e05760203660031901126101e0576102376131d0565b61023f613d27565b6001600160a01b0316801561029257600180546001600160a01b0319811683179091556001600160a01b03167f8be0079c531659141344cd1fd0a4f28419497f9722a3daafe3b4186f6b6457e08380a380f35b631e4fbdf760e01b82526004829052602482fd5b50346101e0576102b5366132b7565b92946102c697969297949194613d27565b6003546040516307eb111f60e41b81526004810186905294906001600160a01b03168886602481845afa958615610a8d578996610a69575b509598602088019690895b875181101561038f57602061031e828a6139ac565b51015160405161034f6020828161033e8183019687815193849201613387565b81010301601f198101835282613234565b519020898b6103706020604051809361033e83830196879251928391613387565b5190201461038057600101610309565b633480a50360e21b8b5260048bfd5b50899750889596508a60405163068bcd8d60e01b81528460048201528981602481875afa908115610a5e578a91610a3c575b508660608201516103d1816133cf565b6103da826133cf565b6103e3816133cf565b14801590610a2e575b610a1f5760646104008360c08401516137c5565b049361020060018060a01b036101e084015116920151906002821015610a0b57808c913b15610a075781809160446040518094819363a4948d8560e01b83528d60048401528a60248401525af1801561077f576109ee575b50506104c990610469601154613cd4565b6011556040519761047989613218565b8b895260208901968b885260408a01956104928c6133cf565b8b875260608b0197885260808b01528060a08b01528d60c08b015260e08a0152876101008a01526101208901526101408801613cc8565b6101608601528789526010602052604089209285518455518051906001600160401b0382116109da576104ff60018601546134b9565b601f81116109a7575b506020908b601f841160011461093957610557949361053e9390928361092e575b50508160011b916000199060031b1c19161790565b60018501555b5161054e816133cf565b60028401613c55565b518051906001600160401b03821161091a5761057660038401546134b9565b601f81116108e7575b50602090601f831160011461087e576105af92918a91836108735750508160011b916000199060031b1c19161790565b60038201555b6080830151600482015560a0830151600582015560c0830151600682015560e083015160078201556101008301516008820155600981016101208401518051906001600160401b03821161085f5761060d83546134b9565b601f8111610824575b50602090601f83116001146107bd57918061064b92600a9695948d926107b25750508160011b916000199060031b1c19161790565b90555b01610140830151600281101561079e57815460ff610100600160a81b0361016087015160081b169216906affffffffffffffffffffff60a81b1617179055601254600160401b81101561078a57906106ae8260018995940160125561336c565b8154600391821b89811b60001990911b1990911617909155546001600160a01b031691823b1561077b576107089284928360405180968195829463fee721ed60e01b845260048401526040602484015260448301906133fc565b03925af1801561077f57610766575b5091837f5928d65cc6ae9f07a7673f1a5a2f98d81f1bb0c2bc53bcaa33d6f11cf426f25e9352600c60205260408520600160ff19825416179055610760604051928392836139e4565b0390a280f35b8161077091613234565b61077b578385610717565b8380fd5b6040513d84823e3d90fd5b634e487b7160e01b87526041600452602487fd5b634e487b7160e01b88526021600452602488fd5b015190508c80610529565b838b52818b209190601f1984168c5b81811061080c5750916001939185600a98979694106107f3575b505050811b01905561064e565b015160001960f88460031b161c191690558b80806107e6565b929360206001819287860151815501950193016107cc565b61084f90848c5260208c20601f850160051c81019160208610610855575b601f0160051c01906139c0565b8a610616565b9091508190610842565b634e487b7160e01b8a52604160045260248afd5b015190508a80610529565b600384018a52818a209190601f1984168b5b8181106108cf57509084600195949392106108b6575b505050811b0160038201556105b5565b015160001960f88460031b161c191690558980806108a6565b92936020600181928786015181550195019301610890565b61091490600385018b5260208b20601f850160051c8101916020861061085557601f0160051c01906139c0565b8961057f565b634e487b7160e01b89526041600452602489fd5b015190508d80610529565b50600186018c52818c209190601f1984168d5b81811061098f575091600193918561055797969410610976575b505050811b016001850155610544565b015160001960f88460031b161c191690558c8080610966565b9293602060018192878601518155019501930161094c565b6109d490600187018d5260208d20601f850160051c8101916020861061085557601f0160051c01906139c0565b8b610508565b634e487b7160e01b8b52604160045260248bfd5b816109f891613234565b610a03578a8c610458565b8a80fd5b5080fd5b634e487b7160e01b8c52602160045260248cfd5b6369e489f560e11b8a5260048afd5b5061018081015182116103ec565b610a5891503d808c833e610a508183613234565b8101906137a0565b8a6103c1565b6040513d8c823e3d90fd5b610a869196503d808b833e610a7e8183613234565b810190613805565b94386102fe565b6040513d8b823e3d90fd5b50346101e05760403660031901126101e0576040610b8091610ab86131d0565b610ac0613ce3565b5060018060a01b03168152600f60205281812060243582526020522060ff600860405192610aed846131e6565b80546001600160a01b031684526001810154602085015260028101548316610b14816133cf565b6040850152604051610b3481610b2d81600386016134f3565b0382613234565b606085015260048101546080850152600581015460a0850152600681015460c0850152600781015460e08501520154161515610100820152604051918291602083526020830190613576565b0390f35b50346101e05760203660031901126101e057610b9e6131d0565b610ba6613d50565b6001600160a01b031660015b601254811015610cba5780610bc860019261336c565b90549060031b1c838552600f6020526040852081865260205260408520600881019081549060ff82169081610cac575b50610c07575b50505001610bb2565b60ff19169055838552600f602052604085209085526020528360086040822082815582858201558260028201558260038201610c4381546134b9565b80610c6c575b505060048201558260058201558260068201558260078201550155388080610bfe565b601f81118814610c815750555b823880610c49565b81835260208320610c9c91601f0160051c81019089016139c0565b8082528160208120915555610c79565b600791500154421138610bf8565b826001815580f35b50346101e05760403660031901126101e0576040906001600160a01b03610ce76131d0565b168152600f60205281812060243582526020522060018060a01b0381541660018201549160ff60028201541660405191610d2f83610d2881600385016134f3565b0384613234565b6004810154926005820154610d7f60068401549260ff600860078701549601541695604051998a998a5260208a0152610d67816133cf565b604089015261012060608901526101208801906133aa565b94608087015260a086015260c085015260e084015215156101008301520390f35b50346101e057806003193601126101e0576007546040516001600160a01b039091168152602090f35b50346101e057806003193601126101e0576006546040516001600160a01b039091168152602090f35b50346101e05760203660031901126101e0576020906040906001600160a01b03610e1a6131d0565b168152600b83522054604051908152f35b50346101e057806003193601126101e0578081601254905b8181106110335750610e54826137ee565b91610e626040519384613234565b808352610e71601f19916137ee565b01835b81811061101c57505082835b828110610eee5783856040519182916020830160208452825180915260408401602060408360051b870101940192905b828210610ebf57505050500390f35b91936001919395506020610ede8192603f198a820301865288516133fc565b9601920192018594939192610eb0565b610ef78161336c565b90549060031b1c808652600c60205260ff604087205416610f1c575b50600101610e80565b60019192611015918752601060205260408720600a60405191610f3e83613218565b80548352604051610f5581610b2d818a86016134f3565b602084015260ff600282015416610f6b816133cf565b6040840152604051610f8481610b2d81600386016134f3565b606084015260048101546080840152600581015460a0840152600681015460c0840152600781015460e08401526008810154610100840152604051610fd081610b2d81600986016134f3565b6101208401520154610fe960ff82166101408401613cc8565b848060a01b039060081c1661016082015261100482886139ac565b5261100f81876139ac565b50613cd4565b9190610f13565b602090611027613c6d565b82828701015201610e74565b61103c8161336c565b90549060031b1c8452600c60205260ff60408520541661105f575b600101610e43565b9161106b600191613cd4565b929050611057565b50346101e057806003193601126101e0576001546040516001600160a01b039091168152602090f35b50346101e057806003193601126101e0576003546040516001600160a01b039091168152602090f35b50346101e05760603660031901126101e0576110df6131d0565b602435604435916110fb60018060a01b03600854163314613a09565b611103613d50565b60018060a01b0316808452600f602052604084208285526020526004604085200161112f8482546139d7565b90558352600f6020526040832090835260205261115460056040842001918254613af0565b90556001815580f35b50346101e05760403660031901126101e0576020906040906001600160a01b036111856131d0565b168152600d8352818120602435825283522054604051908152f35b50346101e05760203660031901126101e05760ff60406020926004358152600c84522054166040519015158152f35b50346101e05760403660031901126101e0576111e96131d0565b6003546040516374f0645b60e11b815260248035600483018190526001600160a01b0385811692840192909252919391926101409185916044918391165afa9283156113195784936112c8575b5091836112999262015180946020965060018060a01b0316808352600d87526040832082845287526040832054156000146112ae57505060c0820151915b60808101514292611284826133cf565b5061128e816133cf565b6112a2575b506139d7565b04604051908152f35b60e09150015138611293565b8252600d8652604082209082528552604081205491611274565b9092506101403d8111611312575b6112e08183613234565b8101906101408183031261130e579361129992611304620151809593602097613a46565b9450925093611236565b8480fd5b503d6112d6565b6040513d86823e3d90fd5b50346101e057806003193601126101e05761133d613d27565b600180546001600160a01b0319811690915581906001600160a01b03167f8be0079c531659141344cd1fd0a4f28419497f9722a3daafe3b4186f6b6457e08280a380f35b50346101e05760203660031901126101e05761139b6131d0565b60125482916001600160a01b0316825b82811061156557506113bc836137ee565b926113ca6040519485613234565b8084526113d9601f19916137ee565b01845b81811061154e57505083845b8381106114565784866040519182916020830160208452825180915260408401602060408360051b870101940192905b82821061142757505050500390f35b919360019193955060206114468192603f198a82030186528851613576565b9601920192018594939192611418565b61145f8161336c565b90549060031b1c838752600f60205260408720818852602052600460408820015461148e575b506001016113e8565b6001919261154791858952600f602052604089209089526020526040882060ff6008604051926114bd846131e6565b868060a01b038154168452868101546020850152826002820154166114e1816133cf565b60408501526040516114fa81610b2d81600386016134f3565b606085015260048101546080850152600581015460a0850152600681015460c0850152600781015460e0850152015416151561010082015261153c82896139ac565b5261100f81886139ac565b9190611485565b602090611559613ce3565b828288010152016113dc565b61156e8161336c565b90549060031b1c828652600f60205260408620908652602052600460408620015461159c575b6001016113ab565b926115a8600191613cd4565b939050611594565b50346101e05760203660031901126101e05760406101809160043581526010602052208054906116ab604051916115ee83610d2881600185016134f3565b60ff6002820154169060405161160b81610b2d81600386016134f3565b6004820154926005830154600684015490611682600786015493600887015495611666600a6040519961164c8b61164581600985016134f3565b038c613234565b01549b6040519e8f9e8f90815281602082015201906133aa565b91611670816133cf565b60408d01528b820360608d01526133aa565b9560808a015260a089015260c088015260e08701526101008601528482036101208601526133aa565b906116bd610140840160ff83166133ef565b60081c6001600160a01b03166101608301520390f35b50346101e05760203660031901126101e0576040610b80916116f3613c6d565b506004358152601060205220600a6040519161170e83613218565b8054835260405161172681610b2d81600186016134f3565b602084015260ff60028201541661173c816133cf565b604084015260405161175581610b2d81600386016134f3565b606084015260048101546080840152600581015460a0840152600681015460c0840152600781015460e084015260088101546101008401526040516117a181610b2d81600986016134f3565b61012084015201546117ba60ff82166101408401613cc8565b60081c6001600160a01b031661016082015260405160208082529092839290918301906133fc565b50346101e057806003193601126101e0576020600254604051908152f35b5060803660031901126101e0576044359060243560043561181f613d50565b601b8411801590611d77575b611d6857808352600c60205260ff60408420541615611d5957808352601060205260408320906007820180548411611d4a576006830161186c858254613af0565b90600585019081548311611d3b57600a860160ff8154166002811015611d2757600103611d0057546040516323b872dd60e01b81523360048201523060248201526064803560448301529091602091839182908d9060081c6001600160a01b03165af1908115610a8d578991611cb3575b50928092916118ee6118fa95613bc5565b555461129382826139d7565b9055338452600f602052604084208185526020526004604085200154611c6e57600282019160ff8354169062015180870296808804620151801481151715611c5a5761194860019842613af0565b9160405193611956856131e6565b33855261198b60208601928784526040870192611972816133cf565b8352611984604051809d8193016134f3565b038b613234565b60608501998a52611a0d608086019189835260a08701938b855260c0880195865260e0880196875261010088019860018a52338d52600f60205260408d20908d5260205260408c209760018060a01b039051166bffffffffffffffffffffffff60a01b89541617885551600188015551611a04816133cf565b60028701613c55565b600385019951998a516001600160401b0381116109da57611a2e82546134b9565b601f8111611c2a575b506020601f8211600114611bbd579080611a6d928d9e60089b9c9d9e92611bb25750508160011b916000199060031b1c19161790565b90555b516004850155516005840155516006830155516007820155019051151560ff80198354169116179055828390600a54915b828110611b7f575b5015611b2d575b50338352600b6020526040832080549060018201809211611b19575554604051918252606435602083015260ff16611ae7816133cf565b60408201527f23b0f39e0762759ffb18632a1a2b79c9eb58571454e5f7c36e0a2f81759e0a3460603392a26001815580f35b634e487b7160e01b85526011600452602485fd5b600160401b811015611b6b57806001611b499201600a5561333b565b81546001600160a01b0360039290921b91821b19163390911b17905538611ab0565b634e487b7160e01b84526041600452602484fd5b611b888161333b565b905460039190911b1c6001600160a01b03163314611ba857600101611aa1565b5050600138611aa9565b015190503880610529565b828c52808c209c601f1983168d5b818110611c0d57509160089a9b9c9d9e91846001959410611bf4575b505050811b019055611a70565b015160001960f88460031b161c19169055388080611be7565b919e8f60016020928684930151815501940192019e91929e611bcb565b611c5490838d5260208d20601f840160051c8101916020851061085557601f0160051c01906139c0565b38611a37565b634e487b7160e01b87526011600452602487fd5b60405162461bcd60e51b815260206004820152601c60248201527f5573657220616c72656164792070757263686173656420636f766572000000006044820152606490fd5b90506020813d602011611cf8575b81611cce60209383613234565b81010312611cf457928092916118ee611ce96118fa9661363a565b9250509192936118dd565b8880fd5b3d9150611cc1565b5090826118fa9392611d13341515613c09565b611d1f34600254613af0565b6002556118ee565b634e487b7160e01b8a52602160045260248afd5b63bc6072f160e01b8852600488fd5b63bc6072f160e01b8552600485fd5b63bccd404360e01b8352600483fd5b631f89958960e11b8352600483fd5b5061016e84101561182b565b50346101e057806003193601126101e0576008546040516001600160a01b039091168152602090f35b50346101e057806003193601126101e0576009546040516001600160a01b039091168152602090f35b50346101e05760203660031901126101e05760043590600a548210156101e0576020611e008361333b565b905460405160039290921b1c6001600160a01b03168152f35b50346101e057806003193601126101e0576004546040516001600160a01b039091168152602090f35b50346101e05760203660031901126101e057600435611e5f613d50565b6003546040516374f0645b60e11b8152600481018390523360248201526001600160a01b039091169061014081604481855afa9081156113195784916121ec575b50338452600d602052604084208385526020526040842054156000146121c95762015180611eee60c08301515b426080850151611edc816133cf565b611ee5816133cf565b6121be576139d7565b048015612182576060611f029201516137c5565b90811561213d57836024916040519283809263068bcd8d60e01b82528760048301525afa908115611319578491612123575b5061020081018051600281101561210f57600103612104576101e08201516040516370a0823160e01b815230600482015290602090829060249082906001600160a01b03165afa80156120f95786906120c0575b611f9691505b841115613afd565b338552600d602052604085208486526020524260408620555160028110156120ac5760010361207e576101e0015160405163a9059cbb60e01b8152336004820152602481018390529060209082906001600160a01b0316818781604481015b03925af18015611319578490612043575b6120109150613bc5565b6040519081527f0408e6e0b73daf4c873106e95fd067260fbff8bf9d1b499cad563d4480d45bac60203392a36001815580f35b506020813d602011612076575b8161205d60209383613234565b8101031261077b576120716120109161363a565b612006565b3d9150612050565b506120988380808085335af1612092613b49565b50613b79565b6120a4816002546139d7565b600255612010565b634e487b7160e01b85526021600452602485fd5b506020813d6020116120f1575b816120da60209383613234565b810103126120ec57611f969051611f88565b600080fd5b3d91506120cd565b6040513d88823e3d90fd5b611f96600254611f8e565b634e487b7160e01b86526021600452602486fd5b61213791503d8086833e610a508183613234565b38611f34565b60405162461bcd60e51b815260206004820152601d60248201527f4e6f20636c61696d61626c65207265776172647320666f7220757365720000006044820152606490fd5b60405162461bcd60e51b81526020600482015260146024820152734e6f20636c61696d61626c65207265776172647360601b6044820152606490fd5b5060e08401516139d7565b338452600d6020526040842083855260205262015180611eee6040862054611ecd565b90506101403d811161221f575b6122038183613234565b81016101408282031261130e5761221991613a46565b38611ea0565b503d6121f9565b50346101e057806003193601126101e0576005546040516001600160a01b039091168152602090f35b5060603660031901126101e0576024356002811015610a07576044356001600160a01b038116919082900361232a5760010361230c576040516323b872dd60e01b815233600480830191909152306024830152356044820152906020908290606490829086905af1801561077f5782906122d1575b6122ce9150613bc5565b80f35b506020813d602011612304575b816122eb60209383613234565b81010312610a07576122ff6122ce9161363a565b6122c4565b3d91506122de565b50612318341515613c09565b61232434600254613af0565b60025580f35b8280fd5b50346101e05760203660031901126101e0576004359061234c613d50565b60055460405163395d7def60e11b8152600481018490523360248201526001600160a01b0390911691908181604481865afa90811561077f57829161276c575b5081338152600e6020526040812085825260205260408120541560001461274957620151806123ed60c06123bf8561399f565b5101515b4260806123cf8761399f565b5101516123db816133cf565b6123e4816133cf565b612735576139d7565b049481935b83518510156124275761241f6001916124198960606124118a8a6139ac565b5101516137c5565b90613af0565b9401936123f2565b8581156126f8578360249160405192838092632500ed8d60e21b82528760048301525afa90811561131957849161255c575b5061012081018051600281101561210f57600103612551576101408201516040516370a0823160e01b815230600482015290602090829060249082906001600160a01b03165afa80156120f957869061251d575b6124ba9150841115613afd565b338552600e602052604085208486526020524260408620555160028110156120ac5760010361207e57610140015160405163a9059cbb60e01b8152336004820152602481018390529060209082906001600160a01b031681878160448101611ff5565b506020813d602011612549575b8161253760209383613234565b810103126120ec576124ba90516124ad565b3d915061252a565b6124ba600254611f8e565b90503d8085833e61256d8183613234565b81019060208183031261130e578051906001600160401b0382116126bb57016101608183031261130e576040519161016083018381106001600160401b0382111761078a576040528151835260208201516001600160401b0381116126f457816125d89184016135f5565b6020840152604082015160038110156126f457604084015260608201516001600160401b0381116126f45782019080601f830112156126f45781519161261d836137ee565b9261262b6040519485613234565b80845260208085019160051b830101918383116126f05760208101915b8383106126bf57505050505060608301526080810151608083015260a081015160a083015260c081015160c083015260e081015160e083015261010081015161010083015261012081015160028110156126bb576101208301526126af9061014001613647565b61014082015284612459565b8580fd5b82516001600160401b0381116126ec576020916126e18784809487010161365b565b815201920191612648565b8b80fd5b8980fd5b8680fd5b60405162461bcd60e51b815260206004820152601560248201527427379031b630b4b6903cb2ba103337b9103ab9b2b960591b6044820152606490fd5b5060e06127418661399f565b5101516139d7565b338152600e60205260408120858252602052620151806123ed60408320546123c3565b90503d8083833e61277d8183613234565b81019060208183031261232a578051906001600160401b03821161077b570181601f8201121561232a5780516127b2816137ee565b926127c06040519485613234565b81845260206101408186019302840101928184116126bb57602001915b8383106127ee57505050503861238c565b6020610140916127fe8486613a46565b8152019201916127dd565b50346101e057806003193601126101e057604051806020600a5491828152018091600a85527fc65a7bb8d6351c1cf70c95a316cc6a92839c986682d98bc35f958f4883f9d2a890855b8181106128b25750505082612868910383613234565b604051928392602084019060208552518091526040840192915b818110612890575050500390f35b82516001600160a01b0316845285945060209384019390920191600101612882565b82546001600160a01b0316845260209093019260019283019201612852565b50346101e05760203660031901126101e0576004356128fb60018060a01b03600754163314613a09565b612903613d50565b808252601060205260408083206003546008820154925163068bcd8d60e01b815260048101939093528490839060249082906001600160a01b03165afa9182156113195784926129f9575b50600401549081156129bb5760649160c061296a9201516137c5565b048183526010602052600560408420015580825260106020526129a4600560408420015482845260106020526006604085200154906139d7565b908252601060205260076040832001556001815580f35b60405162461bcd60e51b8152602060048201526016602482015275496e76616c696420636f76657220636170616369747960501b6044820152606490fd5b6004919250612a11903d8087833e610a508183613234565b919061294e565b50346101e057612a27366132b7565b909694929593612a35613d27565b60035460405163068bcd8d60e01b8152600481018490526001600160a01b0390911698909787896024818d5afa988915613185578899613169575b508260608a0151612a80816133cf565b612a89826133cf565b612a92816133cf565b1480159061315b575b61314c5786885260106020526064612abb8360c060408c209c01516137c5565b04918260068b01541161313d57886024999a9b6040519a8b80926307eb111f60e41b82528960048301525afa988915610a5e578a99613121575b5094996020870195908a5b8a51811015612b90576020612b15828d6139ac565b510151604051612b356020828161033e8183019687815193849201613387565b519020888a612b566020604051809361033e83830196879251928391613387565b5190201480612b7b575b612b6c57600101612b00565b633480a50360e21b8c5260048cfd5b5089612b87828d6139ac565b51511415612b60565b508a97959896508b600482015493600183019188516001600160401b038111612fcf578b612bbe85546134b9565b601f81116130f1575b505060208c601f831160011461308f57612bf6929182613084575b508160011b916000199060031b1c19161790565b83555b80516001600160401b038111612fcf578b612c1760038701546134b9565b601f8111613051575b50506020918c601f8311600114612fe357612c5193909183612f315750508160011b916000199060031b1c19161790565b60038401555b836004840155600983019080516001600160401b038111612fcf578b612c7d84546134b9565b601f8111612f9f575b505060208c601f8311600114612f3c5790612cb59383612f315750508160011b916000199060031b1c19161790565b81555b6005830193868555612cd660088501978d89556006860154906139d7565b600785019081559581811115612e9e578b9c91612cf7919c999a9b9c6139d7565b6003546001600160a01b031690813b156126f0578991604483926040519485938492639fd36b1560e01b845288600485015260248401525af1908115610a8d578991612e85575b50505b6003546001600160a01b031693843b15611cf457600a612e08612da1978b9995612dcc9b8b976040519d8e9c8d9b8c9a631b401a5b60e21b8c5260048c0152604060248c0152895460448c015261018060648c01526101c48b01906134f3565b60ff60028a015416612db2816133cf565b60848b01528981036043190160a48b0152600389016134f3565b600488015460c48a0152935460e489015260068701546101048901525461012488015254610144870152858203604319016101648701526134f3565b910154612e1c610184840160ff83166133ef565b60081c6001600160a01b03166101a483015203925af1801561077f57612e70575b50507f758a67328ba53c1867c0272bbd2ca10d6fe71d37120188c523fe7ae7bdbbe46991610760604051928392836139e4565b81612e7a91613234565b61077b578385612e3d565b81612e8f91613234565b612e9a57878d612d3e565b8780fd5b90808210612eb5575b5050899a9996979899612d41565b90612ebf916139d7565b6003546001600160a01b03169b908c3b156126ec578b906040519d8e9163a4948d8560e01b8352846004840152602483015281835a92604493f18015612f2657612f0b575b9a80612ea7565b96979899909a81612f1b91613234565b989796958a90612f04565b6040513d8d823e3d90fd5b015190508e80610529565b9192601f198416858452828420935b818110612f875750908460019594939210612f6e575b505050811b018155612cb8565b015160001960f88460031b161c191690558d8080612f61565b92936020600181928786015181550195019301612f4b565b60208286612fc8945220601f840160051c8101916020851061085557601f0160051c01906139c0565b8b8e612c86565b634e487b7160e01b8c52604160045260248cfd5b5091600386018d52808d20908d935b601f1984168510613036576001945083601f1981161061301d575b505050811b016003840155612c57565b015160001960f88460031b161c191690558d808061300d565b81810151835560209485019460019093019290910190612ff2565b602061307d9260038901815220601f840160051c8101916020851061085557601f0160051c01906139c0565b8b8e612c20565b90508b01518f612be2565b90601f198316868352818320925b8d8282106130d957505090836001949392106130c0575b5050811b018355612bf9565b8c015160001960f88460031b161c191690558e806130b4565b6001849560209395849301518155019401920161309d565b6020828761311a945220601f840160051c8101916020851061085557601f0160051c01906139c0565b8b8e612bc7565b6131369199503d808c833e610a7e8183613234565b9738612af5565b6369e489f560e11b8952600489fd5b6369e489f560e11b8852600488fd5b506101808901518211612a9b565b61317e9199503d808a833e610a508183613234565b9738612a70565b6040513d8a823e3d90fd5b905034610a07576040366003190112610a07576020916040906001600160a01b036131b96131d0565b168152600e84528181206024358252845220548152f35b600435906001600160a01b03821682036120ec57565b61012081019081106001600160401b0382111761320257604052565b634e487b7160e01b600052604160045260246000fd5b61018081019081106001600160401b0382111761320257604052565b90601f801991011681019081106001600160401b0382111761320257604052565b6001600160401b03811161320257601f01601f191660200190565b81601f820112156120ec5780359061328782613255565b926132956040519485613234565b828452602083830101116120ec57816000926020809301838601378301015290565b60e06003198201126120ec57600435916024356001600160401b0381116120ec57826132e591600401613270565b9160443560038110156120ec57916064356001600160401b0381116120ec578261331191600401613270565b91608435906001600160401b0382116120ec5761333091600401613270565b9060a4359060c43590565b600a5481101561335657600a60005260206000200190600090565b634e487b7160e01b600052603260045260246000fd5b60125481101561335657601260005260206000200190600090565b60005b83811061339a5750506000910152565b818101518382015260200161338a565b906020916133c381518092818552858086019101613387565b601f01601f1916010190565b600311156133d957565b634e487b7160e01b600052602160045260246000fd5b9060028210156133d95752565b908151815261016061349261344a613425602086015161018060208701526101808601906133aa565b6040860151613433816133cf565b6040860152606086015185820360608701526133aa565b6080850151608085015260a085015160a085015260c085015160c085015260e085015160e08501526101008501516101008501526101208501518482036101208601526133aa565b926134a76101408201516101408501906133ef565b8101516001600160a01b031691015290565b90600182811c921680156134e9575b60208310146134d357565b634e487b7160e01b600052602260045260246000fd5b91607f16916134c8565b60009291815491613503836134b9565b8083529260018116908115613559575060011461351f57505050565b60009081526020812093945091925b83831061353f575060209250010190565b60018160209294939454838587010152019101919061352e565b915050602093945060ff929192191683830152151560051b010190565b80516001600160a01b0316825260208082015190830152604081015190919061359e816133cf565b6040820152610100806135c2606085015161012060608601526101208501906133aa565b936080810151608085015260a081015160a085015260c081015160c085015260e081015160e08501520151151591015290565b81601f820112156120ec57805161360b81613255565b926136196040519485613234565b818452602082840101116120ec576136379160208085019101613387565b90565b519081151582036120ec57565b51906001600160a01b03821682036120ec57565b919091610220818403126120ec576040519061022082018281106001600160401b038211176132025760405281938151835260208201516001600160401b0381116120ec57816136ac9184016135f5565b60208401526040820151906001600160401b0382116120ec576136d09183016135f5565b6040830152606081015160038110156120ec5760608301526080810151608083015260a081015160a083015260c081015160c083015260e081015160e0830152610100810151610100830152610120810151610120830152610140810151610140830152613741610160820161363a565b6101608301526101808101516101808301526101a08101516101a08301526101c08101519060ff821682036120ec57610200916101c08401526137876101e08201613647565b6101e084015201519060028210156120ec576102000152565b906020828203126120ec5781516001600160401b0381116120ec57613637920161365b565b818102929181159184041417156137d857565b634e487b7160e01b600052601160045260246000fd5b6001600160401b0381116132025760051b60200190565b6020818303126120ec578051906001600160401b0382116120ec570181601f820112156120ec57805190613838826137ee565b926138466040519485613234565b82845260208085019360051b830101918183116120ec5760208101935b83851061387257505050505090565b84516001600160401b0381116120ec57820190610180828503601f1901126120ec57604051906138a182613218565b6020830151825260408301516001600160401b0381116120ec578560206138ca928601016135f5565b6020830152606083015160038110156120ec57604083015260808301516001600160401b0381116120ec57856020613904928601016135f5565b606083015260a0830151608083015260c083015160a083015260e083015160c083015261010083015160e08301526101208301516101008301526101408301516001600160401b0381116120ec57856020613961928601016135f5565b6101208301526101608301519160028310156120ec5761398e610180602095869561014085015201613647565b610160820152815201940193613863565b8051156133565760200190565b80518210156133565760209160051b010190565b8181106139cb575050565b600081556001016139c0565b919082039182116137d857565b9291906139fb6020916040865260408601906133aa565b93613a05836133cf565b0152565b15613a1057565b60405162461bcd60e51b815260206004820152600e60248201526d139bdd08185d5d1a1bdc9a5e995960921b6044820152606490fd5b9190826101409103126120ec5760405161014081018181106001600160401b03821117613202576040528092613a7b81613647565b825260208101516020830152604081015160408301526060810151606083015260808101519060038210156120ec5761012091608084015260a081015160a084015260c081015160c084015260e081015160e084015261010081015161010084015201519060028210156120ec576101200152565b919082018092116137d857565b15613b0457565b60405162461bcd60e51b815260206004820152601a60248201527f496e73756666696369656e7420636f7665722062616c616e63650000000000006044820152606490fd5b3d15613b74573d90613b5a82613255565b91613b686040519384613234565b82523d6000602084013e565b606090565b15613b8057565b60405162461bcd60e51b815260206004820152601c60248201527f4e6174697665206173736574207472616e73666572206661696c6564000000006044820152606490fd5b15613bcc57565b60405162461bcd60e51b8152602060048201526015602482015274115490cc8c081d1c985b9cd9995c8819985a5b1959605a1b6044820152606490fd5b15613c1057565b60405162461bcd60e51b815260206004820152601a60248201527f436f7665722076616c75652063616e6e6f74206265207a65726f0000000000006044820152606490fd5b90613c5f816133cf565b60ff80198354169116179055565b60405190613c7a82613218565b600061016083828152606060208201528260408201526060808201528260808201528260a08201528260c08201528260e0820152826101008201526060610120820152826101408201520152565b60028210156133d95752565b60001981146137d85760010190565b60405190613cf0826131e6565b6000610100838281528260208201528260408201526060808201528260808201528260a08201528260c08201528260e08201520152565b6001546001600160a01b03163303613d3b57565b63118cdaa760e01b6000523360045260246000fd5b600260005414613d61576002600055565b633ee5aeb560e01b60005260046000fdfea2646970667358221220d55249beae732ba10d3e1cbedd9f585da70487f29177214f21f41ee49eb859f864736f6c634300081c0033",
  "linkReferences": {},
  "deployedLinkReferences": {}
}