{
  "_format": "hh-sol-artifact-1",
  "contractName": "InsurancePool",
  "sourceName": "contracts/InsurancePool.sol",
  "abi": [
    {
      "inputs": [
        {
          "internalType": "address",
          "name": "_initialOwner",
          "type": "address"
        },
        {
          "internalType": "address",
          "name": "_bqBtc",
          "type": "address"
        }
      ],
      "stateMutability": "nonpayable",
      "type": "constructor"
    },
    {
      "inputs": [
        {
          "internalType": "address",
          "name": "owner",
          "type": "address"
        }
      ],
      "name": "OwnableInvalidOwner",
      "type": "error"
    },
    {
      "inputs": [
        {
          "internalType": "address",
          "name": "account",
          "type": "address"
        }
      ],
      "name": "OwnableUnauthorizedAccount",
      "type": "error"
    },
    {
      "inputs": [],
      "name": "ReentrancyGuardReentrantCall",
      "type": "error"
    },
    {
      "anonymous": false,
      "inputs": [
        {
          "indexed": false,
          "internalType": "uint256",
          "name": "",
          "type": "uint256"
        },
        {
          "indexed": false,
          "internalType": "uint256",
          "name": "",
          "type": "uint256"
        },
        {
          "indexed": false,
          "internalType": "address",
          "name": "",
          "type": "address"
        }
      ],
      "name": "ClaimAttempt",
      "type": "event"
    },
    {
      "anonymous": false,
      "inputs": [
        {
          "indexed": true,
          "internalType": "address",
          "name": "recipient",
          "type": "address"
        },
        {
          "indexed": false,
          "internalType": "string",
          "name": "pool",
          "type": "string"
        },
        {
          "indexed": false,
          "internalType": "uint256",
          "name": "amount",
          "type": "uint256"
        }
      ],
      "name": "ClaimPaid",
      "type": "event"
    },
    {
      "anonymous": false,
      "inputs": [
        {
          "indexed": true,
          "internalType": "address",
          "name": "user",
          "type": "address"
        },
        {
          "indexed": false,
          "internalType": "uint256",
          "name": "amount",
          "type": "uint256"
        },
        {
          "indexed": false,
          "internalType": "string",
          "name": "pool",
          "type": "string"
        }
      ],
      "name": "Deposited",
      "type": "event"
    },
    {
      "anonymous": false,
      "inputs": [
        {
          "indexed": true,
          "internalType": "address",
          "name": "previousOwner",
          "type": "address"
        },
        {
          "indexed": true,
          "internalType": "address",
          "name": "newOwner",
          "type": "address"
        }
      ],
      "name": "OwnershipTransferred",
      "type": "event"
    },
    {
      "anonymous": false,
      "inputs": [
        {
          "indexed": true,
          "internalType": "uint256",
          "name": "id",
          "type": "uint256"
        },
        {
          "indexed": false,
          "internalType": "string",
          "name": "poolName",
          "type": "string"
        }
      ],
      "name": "PoolCreated",
      "type": "event"
    },
    {
      "anonymous": false,
      "inputs": [
        {
          "indexed": true,
          "internalType": "uint256",
          "name": "poolId",
          "type": "uint256"
        },
        {
          "indexed": false,
          "internalType": "uint256",
          "name": "apy",
          "type": "uint256"
        },
        {
          "indexed": false,
          "internalType": "uint256",
          "name": "_minPeriod",
          "type": "uint256"
        }
      ],
      "name": "PoolUpdated",
      "type": "event"
    },
    {
      "anonymous": false,
      "inputs": [
        {
          "indexed": true,
          "internalType": "address",
          "name": "user",
          "type": "address"
        },
        {
          "indexed": false,
          "internalType": "uint256",
          "name": "amount",
          "type": "uint256"
        },
        {
          "indexed": false,
          "internalType": "string",
          "name": "pool",
          "type": "string"
        }
      ],
      "name": "Withdraw",
      "type": "event"
    },
    {
      "inputs": [],
      "name": "ICoverContract",
      "outputs": [
        {
          "internalType": "contract ICover",
          "name": "",
          "type": "address"
        }
      ],
      "stateMutability": "view",
      "type": "function"
    },
    {
      "inputs": [],
      "name": "IGovernanceContract",
      "outputs": [
        {
          "internalType": "contract IGov",
          "name": "",
          "type": "address"
        }
      ],
      "stateMutability": "view",
      "type": "function"
    },
    {
      "inputs": [],
      "name": "IVaultContract",
      "outputs": [
        {
          "internalType": "contract IVault",
          "name": "",
          "type": "address"
        }
      ],
      "stateMutability": "view",
      "type": "function"
    },
    {
      "inputs": [
        {
          "internalType": "uint256",
          "name": "_poolId",
          "type": "uint256"
        },
        {
          "components": [
            {
              "internalType": "uint256",
              "name": "id",
              "type": "uint256"
            },
            {
              "internalType": "string",
              "name": "coverName",
              "type": "string"
            },
            {
              "internalType": "enum CoverLib.RiskType",
              "name": "riskType",
              "type": "uint8"
            },
            {
              "internalType": "string",
              "name": "chains",
              "type": "string"
            },
            {
              "internalType": "uint256",
              "name": "capacity",
              "type": "uint256"
            },
            {
              "internalType": "uint256",
              "name": "capacityAmount",
              "type": "uint256"
            },
            {
              "internalType": "uint256",
              "name": "coverValues",
              "type": "uint256"
            },
            {
              "internalType": "uint256",
              "name": "maxAmount",
              "type": "uint256"
            },
            {
              "internalType": "uint256",
              "name": "poolId",
              "type": "uint256"
            },
            {
              "internalType": "string",
              "name": "CID",
              "type": "string"
            },
            {
              "internalType": "enum CoverLib.AssetDepositType",
              "name": "adt",
              "type": "uint8"
            },
            {
              "internalType": "address",
              "name": "asset",
              "type": "address"
            }
          ],
          "internalType": "struct CoverLib.Cover",
          "name": "_cover",
          "type": "tuple"
        }
      ],
      "name": "addPoolCover",
      "outputs": [],
      "stateMutability": "nonpayable",
      "type": "function"
    },
    {
      "inputs": [
        {
          "internalType": "address",
          "name": "",
          "type": "address"
        }
      ],
      "name": "assetPriceFeeds",
      "outputs": [
        {
          "internalType": "contract AggregatorV3Interface",
          "name": "",
          "type": "address"
        }
      ],
      "stateMutability": "view",
      "type": "function"
    },
    {
      "inputs": [],
      "name": "bqBTC",
      "outputs": [
        {
          "internalType": "contract IbqBTC",
          "name": "",
          "type": "address"
        }
      ],
      "stateMutability": "view",
      "type": "function"
    },
    {
      "inputs": [],
      "name": "bqBTCAddress",
      "outputs": [
        {
          "internalType": "address",
          "name": "",
          "type": "address"
        }
      ],
      "stateMutability": "view",
      "type": "function"
    },
    {
      "inputs": [],
      "name": "coverContract",
      "outputs": [
        {
          "internalType": "address",
          "name": "",
          "type": "address"
        }
      ],
      "stateMutability": "view",
      "type": "function"
    },
    {
      "inputs": [
        {
          "components": [
            {
              "internalType": "uint256",
              "name": "poolId",
              "type": "uint256"
            },
            {
              "internalType": "enum CoverLib.RiskType",
              "name": "riskType",
              "type": "uint8"
            },
            {
              "internalType": "string",
              "name": "poolName",
              "type": "string"
            },
            {
              "internalType": "string",
              "name": "rating",
              "type": "string"
            },
            {
              "internalType": "uint256",
              "name": "apy",
              "type": "uint256"
            },
            {
              "internalType": "uint256",
              "name": "minPeriod",
              "type": "uint256"
            },
            {
              "internalType": "uint8",
              "name": "leverage",
              "type": "uint8"
            },
            {
              "internalType": "uint256",
              "name": "investmentArm",
              "type": "uint256"
            },
            {
              "internalType": "enum CoverLib.AssetDepositType",
              "name": "adt",
              "type": "uint8"
            },
            {
              "internalType": "address",
              "name": "asset",
              "type": "address"
            }
          ],
          "internalType": "struct CoverLib.PoolParams",
          "name": "params",
          "type": "tuple"
        }
      ],
      "name": "createPool",
      "outputs": [],
      "stateMutability": "nonpayable",
      "type": "function"
    },
    {
      "inputs": [
        {
          "internalType": "uint256",
          "name": "_poolId",
          "type": "uint256"
        }
      ],
      "name": "deactivatePool",
      "outputs": [],
      "stateMutability": "nonpayable",
      "type": "function"
    },
    {
      "inputs": [
        {
          "components": [
            {
              "internalType": "address",
              "name": "depositor",
              "type": "address"
            },
            {
              "internalType": "uint256",
              "name": "poolId",
              "type": "uint256"
            },
            {
              "internalType": "uint256",
              "name": "amount",
              "type": "uint256"
            },
            {
              "internalType": "enum CoverLib.DepositType",
              "name": "pdt",
              "type": "uint8"
            },
            {
              "internalType": "enum CoverLib.AssetDepositType",
              "name": "adt",
              "type": "uint8"
            },
            {
              "internalType": "address",
              "name": "asset",
              "type": "address"
            }
          ],
          "internalType": "struct CoverLib.DepositParams",
          "name": "depositParam",
          "type": "tuple"
        }
      ],
      "name": "deposit",
      "outputs": [
        {
          "internalType": "uint256",
          "name": "",
          "type": "uint256"
        },
        {
          "internalType": "uint256",
          "name": "",
          "type": "uint256"
        }
      ],
      "stateMutability": "payable",
      "type": "function"
    },
    {
      "inputs": [],
      "name": "getAllPools",
      "outputs": [
        {
          "components": [
            {
              "internalType": "uint256",
              "name": "id",
              "type": "uint256"
            },
            {
              "internalType": "string",
              "name": "poolName",
              "type": "string"
            },
            {
              "internalType": "string",
              "name": "rating",
              "type": "string"
            },
            {
              "internalType": "enum CoverLib.RiskType",
              "name": "riskType",
              "type": "uint8"
            },
            {
              "internalType": "uint256",
              "name": "apy",
              "type": "uint256"
            },
            {
              "internalType": "uint256",
              "name": "minPeriod",
              "type": "uint256"
            },
            {
              "internalType": "uint256",
              "name": "totalUnit",
              "type": "uint256"
            },
            {
              "internalType": "uint256",
              "name": "tvl",
              "type": "uint256"
            },
            {
              "internalType": "uint256",
              "name": "baseValue",
              "type": "uint256"
            },
            {
              "internalType": "uint256",
              "name": "coverUnits",
              "type": "uint256"
            },
            {
              "internalType": "uint256",
              "name": "tcp",
              "type": "uint256"
            },
            {
              "internalType": "bool",
              "name": "isActive",
              "type": "bool"
            },
            {
              "internalType": "uint256",
              "name": "percentageSplitBalance",
              "type": "uint256"
            },
            {
              "internalType": "uint256",
              "name": "investmentArmPercent",
              "type": "uint256"
            },
            {
              "internalType": "uint8",
              "name": "leverage",
              "type": "uint8"
            },
            {
              "internalType": "address",
              "name": "asset",
              "type": "address"
            },
            {
              "internalType": "enum CoverLib.AssetDepositType",
              "name": "assetType",
              "type": "uint8"
            }
          ],
          "internalType": "struct CoverLib.Pool[]",
          "name": "",
          "type": "tuple[]"
        }
      ],
      "stateMutability": "view",
      "type": "function"
    },
    {
      "inputs": [
        {
          "internalType": "uint256",
          "name": "_poolId",
          "type": "uint256"
        }
      ],
      "name": "getPool",
      "outputs": [
        {
          "components": [
            {
              "internalType": "uint256",
              "name": "id",
              "type": "uint256"
            },
            {
              "internalType": "string",
              "name": "poolName",
              "type": "string"
            },
            {
              "internalType": "string",
              "name": "rating",
              "type": "string"
            },
            {
              "internalType": "enum CoverLib.RiskType",
              "name": "riskType",
              "type": "uint8"
            },
            {
              "internalType": "uint256",
              "name": "apy",
              "type": "uint256"
            },
            {
              "internalType": "uint256",
              "name": "minPeriod",
              "type": "uint256"
            },
            {
              "internalType": "uint256",
              "name": "totalUnit",
              "type": "uint256"
            },
            {
              "internalType": "uint256",
              "name": "tvl",
              "type": "uint256"
            },
            {
              "internalType": "uint256",
              "name": "baseValue",
              "type": "uint256"
            },
            {
              "internalType": "uint256",
              "name": "coverUnits",
              "type": "uint256"
            },
            {
              "internalType": "uint256",
              "name": "tcp",
              "type": "uint256"
            },
            {
              "internalType": "bool",
              "name": "isActive",
              "type": "bool"
            },
            {
              "internalType": "uint256",
              "name": "percentageSplitBalance",
              "type": "uint256"
            },
            {
              "internalType": "uint256",
              "name": "investmentArmPercent",
              "type": "uint256"
            },
            {
              "internalType": "uint8",
              "name": "leverage",
              "type": "uint8"
            },
            {
              "internalType": "address",
              "name": "asset",
              "type": "address"
            },
            {
              "internalType": "enum CoverLib.AssetDepositType",
              "name": "assetType",
              "type": "uint8"
            }
          ],
          "internalType": "struct CoverLib.Pool",
          "name": "",
          "type": "tuple"
        }
      ],
      "stateMutability": "view",
      "type": "function"
    },
    {
      "inputs": [
        {
          "internalType": "uint256",
          "name": "_poolId",
          "type": "uint256"
        }
      ],
      "name": "getPoolCovers",
      "outputs": [
        {
          "components": [
            {
              "internalType": "uint256",
              "name": "id",
              "type": "uint256"
            },
            {
              "internalType": "string",
              "name": "coverName",
              "type": "string"
            },
            {
              "internalType": "enum CoverLib.RiskType",
              "name": "riskType",
              "type": "uint8"
            },
            {
              "internalType": "string",
              "name": "chains",
              "type": "string"
            },
            {
              "internalType": "uint256",
              "name": "capacity",
              "type": "uint256"
            },
            {
              "internalType": "uint256",
              "name": "capacityAmount",
              "type": "uint256"
            },
            {
              "internalType": "uint256",
              "name": "coverValues",
              "type": "uint256"
            },
            {
              "internalType": "uint256",
              "name": "maxAmount",
              "type": "uint256"
            },
            {
              "internalType": "uint256",
              "name": "poolId",
              "type": "uint256"
            },
            {
              "internalType": "string",
              "name": "CID",
              "type": "string"
            },
            {
              "internalType": "enum CoverLib.AssetDepositType",
              "name": "adt",
              "type": "uint8"
            },
            {
              "internalType": "address",
              "name": "asset",
              "type": "address"
            }
          ],
          "internalType": "struct CoverLib.Cover[]",
          "name": "",
          "type": "tuple[]"
        }
      ],
      "stateMutability": "view",
      "type": "function"
    },
    {
      "inputs": [
        {
          "internalType": "uint256",
          "name": "_poolId",
          "type": "uint256"
        }
      ],
      "name": "getPoolTVL",
      "outputs": [
        {
          "internalType": "uint256",
          "name": "",
          "type": "uint256"
        }
      ],
      "stateMutability": "view",
      "type": "function"
    },
    {
      "inputs": [
        {
          "internalType": "address",
          "name": "_userAddress",
          "type": "address"
        }
      ],
      "name": "getPoolsByAddress",
      "outputs": [
        {
          "components": [
            {
              "internalType": "string",
              "name": "poolName",
              "type": "string"
            },
            {
              "internalType": "string",
              "name": "rating",
              "type": "string"
            },
            {
              "internalType": "enum CoverLib.RiskType",
              "name": "risk",
              "type": "uint8"
            },
            {
              "internalType": "uint256",
              "name": "poolId",
              "type": "uint256"
            },
            {
              "internalType": "uint256",
              "name": "dailyPayout",
              "type": "uint256"
            },
            {
              "internalType": "uint256",
              "name": "depositAmount",
              "type": "uint256"
            },
            {
              "internalType": "uint256",
              "name": "apy",
              "type": "uint256"
            },
            {
              "internalType": "uint256",
              "name": "minPeriod",
              "type": "uint256"
            },
            {
              "internalType": "uint256",
              "name": "totalUnit",
              "type": "uint256"
            },
            {
              "internalType": "uint256",
              "name": "tcp",
              "type": "uint256"
            },
            {
              "internalType": "bool",
              "name": "isActive",
              "type": "bool"
            },
            {
              "internalType": "uint256",
              "name": "accruedPayout",
              "type": "uint256"
            }
          ],
          "internalType": "struct CoverLib.PoolInfo[]",
          "name": "",
          "type": "tuple[]"
        }
      ],
      "stateMutability": "view",
      "type": "function"
    },
    {
      "inputs": [],
      "name": "getTotalTVL",
      "outputs": [
        {
          "internalType": "uint256",
          "name": "",
          "type": "uint256"
        }
      ],
      "stateMutability": "view",
      "type": "function"
    },
    {
      "inputs": [
        {
          "internalType": "uint256",
          "name": "_poolId",
          "type": "uint256"
        },
        {
          "internalType": "address",
          "name": "_user",
          "type": "address"
        },
        {
          "internalType": "enum CoverLib.DepositType",
          "name": "pdt",
          "type": "uint8"
        }
      ],
      "name": "getUserGenericDeposit",
      "outputs": [
        {
          "components": [
            {
              "internalType": "address",
              "name": "lp",
              "type": "address"
            },
            {
              "internalType": "uint256",
              "name": "amount",
              "type": "uint256"
            },
            {
              "internalType": "uint256",
              "name": "poolId",
              "type": "uint256"
            },
            {
              "internalType": "uint256",
              "name": "dailyPayout",
              "type": "uint256"
            },
            {
              "internalType": "enum CoverLib.Status",
              "name": "status",
              "type": "uint8"
            },
            {
              "internalType": "uint256",
              "name": "daysLeft",
              "type": "uint256"
            },
            {
              "internalType": "uint256",
              "name": "startDate",
              "type": "uint256"
            },
            {
              "internalType": "uint256",
              "name": "withdrawalInitiated",
              "type": "uint256"
            },
            {
              "internalType": "uint256",
              "name": "accruedPayout",
              "type": "uint256"
            },
            {
              "internalType": "enum CoverLib.DepositType",
              "name": "pdt",
              "type": "uint8"
            },
            {
              "internalType": "enum CoverLib.AssetDepositType",
              "name": "adt",
              "type": "uint8"
            },
            {
              "internalType": "address",
              "name": "asset",
              "type": "address"
            }
          ],
          "internalType": "struct CoverLib.GenericDepositDetails",
          "name": "",
          "type": "tuple"
        }
      ],
      "stateMutability": "view",
      "type": "function"
    },
    {
      "inputs": [
        {
          "internalType": "uint256",
          "name": "_poolId",
          "type": "uint256"
        },
        {
          "internalType": "address",
          "name": "_user",
          "type": "address"
        }
      ],
      "name": "getUserPoolDeposit",
      "outputs": [
        {
          "components": [
            {
              "internalType": "address",
              "name": "lp",
              "type": "address"
            },
            {
              "internalType": "uint256",
              "name": "amount",
              "type": "uint256"
            },
            {
              "internalType": "uint256",
              "name": "poolId",
              "type": "uint256"
            },
            {
              "internalType": "uint256",
              "name": "dailyPayout",
              "type": "uint256"
            },
            {
              "internalType": "enum CoverLib.Status",
              "name": "status",
              "type": "uint8"
            },
            {
              "internalType": "uint256",
              "name": "daysLeft",
              "type": "uint256"
            },
            {
              "internalType": "uint256",
              "name": "startDate",
              "type": "uint256"
            },
            {
              "internalType": "uint256",
              "name": "withdrawalInitiated",
              "type": "uint256"
            },
            {
              "internalType": "uint256",
              "name": "accruedPayout",
              "type": "uint256"
            },
            {
              "internalType": "enum CoverLib.DepositType",
              "name": "pdt",
              "type": "uint8"
            }
          ],
          "internalType": "struct CoverLib.Deposits",
          "name": "",
          "type": "tuple"
        }
      ],
      "stateMutability": "view",
      "type": "function"
    },
    {
      "inputs": [],
      "name": "governance",
      "outputs": [
        {
          "internalType": "address",
          "name": "",
          "type": "address"
        }
      ],
      "stateMutability": "view",
      "type": "function"
    },
    {
      "inputs": [
        {
          "internalType": "uint256",
          "name": "_poolId",
          "type": "uint256"
        },
        {
          "internalType": "uint256",
          "name": "__poolPercentageSplit",
          "type": "uint256"
        }
      ],
      "name": "increasePercentageSplit",
      "outputs": [],
      "stateMutability": "nonpayable",
      "type": "function"
    },
    {
      "inputs": [],
      "name": "initialOwner",
      "outputs": [
        {
          "internalType": "address",
          "name": "",
          "type": "address"
        }
      ],
      "stateMutability": "view",
      "type": "function"
    },
    {
      "inputs": [
        {
          "internalType": "address",
          "name": "depositor",
          "type": "address"
        },
        {
          "internalType": "uint256",
          "name": "_poolId",
          "type": "uint256"
        },
        {
          "internalType": "enum CoverLib.DepositType",
          "name": "pdt",
          "type": "uint8"
        }
      ],
      "name": "initialVaultWithdrawUpdate",
      "outputs": [],
      "stateMutability": "nonpayable",
      "type": "function"
    },
    {
      "inputs": [],
      "name": "owner",
      "outputs": [
        {
          "internalType": "address",
          "name": "",
          "type": "address"
        }
      ],
      "stateMutability": "view",
      "type": "function"
    },
    {
      "inputs": [
        {
          "internalType": "uint256",
          "name": "",
          "type": "uint256"
        }
      ],
      "name": "participants",
      "outputs": [
        {
          "internalType": "address",
          "name": "",
          "type": "address"
        }
      ],
      "stateMutability": "view",
      "type": "function"
    },
    {
      "inputs": [
        {
          "internalType": "address",
          "name": "",
          "type": "address"
        }
      ],
      "name": "participation",
      "outputs": [
        {
          "internalType": "uint256",
          "name": "",
          "type": "uint256"
        }
      ],
      "stateMutability": "view",
      "type": "function"
    },
    {
      "inputs": [
        {
          "internalType": "uint256",
          "name": "poolId",
          "type": "uint256"
        }
      ],
      "name": "poolActive",
      "outputs": [
        {
          "internalType": "bool",
          "name": "",
          "type": "bool"
        }
      ],
      "stateMutability": "view",
      "type": "function"
    },
    {
      "inputs": [],
      "name": "poolCanister",
      "outputs": [
        {
          "internalType": "address",
          "name": "",
          "type": "address"
        }
      ],
      "stateMutability": "view",
      "type": "function"
    },
    {
      "inputs": [],
      "name": "poolCount",
      "outputs": [
        {
          "internalType": "uint256",
          "name": "",
          "type": "uint256"
        }
      ],
      "stateMutability": "view",
      "type": "function"
    },
    {
      "inputs": [
        {
          "internalType": "uint256",
          "name": "_poolId",
          "type": "uint256"
        }
      ],
      "name": "poolWithdrawal",
      "outputs": [],
      "stateMutability": "nonpayable",
      "type": "function"
    },
    {
      "inputs": [
        {
          "internalType": "uint256",
          "name": "",
          "type": "uint256"
        }
      ],
      "name": "pools",
      "outputs": [
        {
          "internalType": "uint256",
          "name": "id",
          "type": "uint256"
        },
        {
          "internalType": "string",
          "name": "poolName",
          "type": "string"
        },
        {
          "internalType": "string",
          "name": "rating",
          "type": "string"
        },
        {
          "internalType": "enum CoverLib.RiskType",
          "name": "riskType",
          "type": "uint8"
        },
        {
          "internalType": "uint256",
          "name": "apy",
          "type": "uint256"
        },
        {
          "internalType": "uint256",
          "name": "minPeriod",
          "type": "uint256"
        },
        {
          "internalType": "uint256",
          "name": "totalUnit",
          "type": "uint256"
        },
        {
          "internalType": "uint256",
          "name": "tvl",
          "type": "uint256"
        },
        {
          "internalType": "uint256",
          "name": "baseValue",
          "type": "uint256"
        },
        {
          "internalType": "uint256",
          "name": "coverUnits",
          "type": "uint256"
        },
        {
          "internalType": "uint256",
          "name": "tcp",
          "type": "uint256"
        },
        {
          "internalType": "bool",
          "name": "isActive",
          "type": "bool"
        },
        {
          "internalType": "uint256",
          "name": "percentageSplitBalance",
          "type": "uint256"
        },
        {
          "internalType": "uint256",
          "name": "investmentArmPercent",
          "type": "uint256"
        },
        {
          "internalType": "uint8",
          "name": "leverage",
          "type": "uint8"
        },
        {
          "internalType": "address",
          "name": "asset",
          "type": "address"
        },
        {
          "internalType": "enum CoverLib.AssetDepositType",
          "name": "assetType",
          "type": "uint8"
        }
      ],
      "stateMutability": "view",
      "type": "function"
    },
    {
      "inputs": [
        {
          "internalType": "uint256",
          "name": "_poolId",
          "type": "uint256"
        },
        {
          "internalType": "uint256",
          "name": "__poolPercentageSplit",
          "type": "uint256"
        }
      ],
      "name": "reducePercentageSplit",
      "outputs": [],
      "stateMutability": "nonpayable",
      "type": "function"
    },
    {
      "inputs": [],
      "name": "renounceOwnership",
      "outputs": [],
      "stateMutability": "nonpayable",
      "type": "function"
    },
    {
      "inputs": [
        {
          "internalType": "address",
          "name": "_coverContract",
          "type": "address"
        }
      ],
      "name": "setCover",
      "outputs": [],
      "stateMutability": "nonpayable",
      "type": "function"
    },
    {
      "inputs": [
        {
          "internalType": "address",
          "name": "_governance",
          "type": "address"
        }
      ],
      "name": "setGovernance",
      "outputs": [],
      "stateMutability": "nonpayable",
      "type": "function"
    },
    {
      "inputs": [
        {
          "internalType": "uint256",
          "name": "poolId",
          "type": "uint256"
        },
        {
          "internalType": "address",
          "name": "user",
          "type": "address"
        },
        {
          "internalType": "enum CoverLib.DepositType",
          "name": "pdt",
          "type": "uint8"
        }
      ],
      "name": "setUserDepositToZero",
      "outputs": [],
      "stateMutability": "nonpayable",
      "type": "function"
    },
    {
      "inputs": [
        {
          "internalType": "address",
          "name": "_vaultContract",
          "type": "address"
        }
      ],
      "name": "setVault",
      "outputs": [],
      "stateMutability": "nonpayable",
      "type": "function"
    },
    {
      "inputs": [
        {
          "internalType": "address",
          "name": "newOwner",
          "type": "address"
        }
      ],
      "name": "transferOwnership",
      "outputs": [],
      "stateMutability": "nonpayable",
      "type": "function"
    },
    {
      "inputs": [
        {
          "internalType": "uint256",
          "name": "_poolId",
          "type": "uint256"
        },
        {
          "internalType": "uint256",
          "name": "_apy",
          "type": "uint256"
        },
        {
          "internalType": "uint256",
          "name": "_minPeriod",
          "type": "uint256"
        }
      ],
      "name": "updatePool",
      "outputs": [],
      "stateMutability": "nonpayable",
      "type": "function"
    },
    {
      "inputs": [
        {
          "internalType": "uint256",
          "name": "_poolId",
          "type": "uint256"
        },
        {
          "components": [
            {
              "internalType": "uint256",
              "name": "id",
              "type": "uint256"
            },
            {
              "internalType": "string",
              "name": "coverName",
              "type": "string"
            },
            {
              "internalType": "enum CoverLib.RiskType",
              "name": "riskType",
              "type": "uint8"
            },
            {
              "internalType": "string",
              "name": "chains",
              "type": "string"
            },
            {
              "internalType": "uint256",
              "name": "capacity",
              "type": "uint256"
            },
            {
              "internalType": "uint256",
              "name": "capacityAmount",
              "type": "uint256"
            },
            {
              "internalType": "uint256",
              "name": "coverValues",
              "type": "uint256"
            },
            {
              "internalType": "uint256",
              "name": "maxAmount",
              "type": "uint256"
            },
            {
              "internalType": "uint256",
              "name": "poolId",
              "type": "uint256"
            },
            {
              "internalType": "string",
              "name": "CID",
              "type": "string"
            },
            {
              "internalType": "enum CoverLib.AssetDepositType",
              "name": "adt",
              "type": "uint8"
            },
            {
              "internalType": "address",
              "name": "asset",
              "type": "address"
            }
          ],
          "internalType": "struct CoverLib.Cover",
          "name": "_cover",
          "type": "tuple"
        }
      ],
      "name": "updatePoolCovers",
      "outputs": [],
      "stateMutability": "nonpayable",
      "type": "function"
    },
    {
      "inputs": [],
      "name": "vaultContract",
      "outputs": [
        {
          "internalType": "address",
          "name": "",
          "type": "address"
        }
      ],
      "stateMutability": "view",
      "type": "function"
    },
    {
      "inputs": [
        {
          "internalType": "uint256",
          "name": "_vaultId",
          "type": "uint256"
        }
      ],
      "name": "vaultWithdraw",
      "outputs": [],
      "stateMutability": "nonpayable",
      "type": "function"
    }
  ],
  "bytecode": "0x60803461027657601f614ffc38819003918201601f19168301916001600160401b0383118484101761027b57808492604094855283398101031261027657610052602061004b83610291565b9201610291565b60016000556001600160a01b0390911690811561026057600180546001600160a01b031981168417909155604051929081906001600160a01b03167f8be0079c531659141344cd1fd0a4f28419497f9722a3daafe3b4186f6b6457e0600080a3601180546001600160a01b031990811690915560158054821692909217909155600280548216732514895c72f50d8bd4b4f9b1110f0d6bd2c97526908117909155600380548316735741306c21795fdcbb9b265ea0255f499dfe515c908117909155600480548416739331b55d9830ef609a2abcfac0fbce050a52fdea17815560058054851673eca2605f0bcf2ba5966372c99837b1f182d3d62017815560066020527f54cdd369e4e8a8515e52ca72ec816c2101831ad1f18bf44102ed171459c9b4f8805486169094179093557f92599ef52398a38e84e5b15ac236af99994b80b5e390e5524198cbc8e48da63780548516831790556001600160a01b039485166000818152604081208054871690941790935590547fd1eceb50b46aea74f6b42453ba5381363a7854e4547ee8ff2fef30dd11f58cdd80548616918716919091179055915473337610d27c682e347c9cd60bd4b3b107c9d34ddd9091527f44abd9ca46b16d583f86aa1f838cb006ce9d3219783a65b570216ad498a2825a805484169190941617909255600f8054821683179055601080549091169091179055614d5690816102a68239f35b631e4fbdf760e01b600052600060045260246000fd5b600080fd5b634e487b7160e01b600052604160045260246000fd5b51906001600160a01b03821682036102765756fe6080604052600436101561001257600080fd5b60003560e01c8063068bcd8d14613cc15780630c021ae514613c70578063173c08cc146133115780632274346b146132e8578063248a75b7146132bf57806325f11e8d1461328b57806329ba7bb2146132625780633186676314612d8257806334808ec314612d5957806335c1d34914612d1757806358526da31461280f5780635aa6e675146127e65780635f267c55146127bd5780636817031b146126e05780636d00696c146126455780636f60537d1461261c578063715018a6146125bf5780637c366cc6146124e25780637eb111f0146123af5780638da5cb5b146123865780638f2446301461236057806396f3a8ad14612326578063996b8a6f146122fd5780639abd9b05146122725780639fd36b1514612217578063a2a8baaf14611d74578063a4948d8514611d15578063ab033ea914611c26578063ac4afa3814611ac5578063b5d90c2814611a9c578063c039a53f146119cc578063d27e52e81461198a578063d86c044414611832578063d88ff1f414611726578063e0375fc0146112a0578063e9e0c8b614610eb2578063f2fde38b14610e28578063f525cb6814610e0a578063f6e8055814610de1578063fb839dda14610778578063fde076961461027d5763fee721ed146101ea57600080fd5b34610278576101f836613f8f565b9060018060a01b036012541633148015610264575b610216906143e3565b6000526008602052604060002090815491600160401b83101561024e578261024691600161024c9501815561442e565b9061444a565b005b634e487b7160e01b600052604160045260246000fd5b506015546001600160a01b0316331461020d565b600080fd5b3461027857602036600319011261027857600435610299614cb5565b8060005260096020526040600020604051916102b483613e95565b815483526040516102d3816102cc8160018701614140565b0382613eb1565b602084019081526040516102ee816102cc8160028801614140565b604085015260ff60038401541661030481613d40565b60608501526004830154608085015260058301549260a0850193845260068101549260c08601938452600782015460e087015260088201549161010087019283526009810154926101208801938452600a82015461014089015260ff600b830154161515610160890152600c820154610180890152600e600d830154926101a08a019384520154936101c089019260ff8616845261020060ff6101e08c019760018060a01b038160081c16895260a81c169a01996103c181613d60565b8a5233600052600760205260406000208560005260205260406000206000805260205260406000209860068a01549051620151808102908082046201518014901517156107625761041191614366565b9760018a01998a54998a151561042690614a9f565b600482019182549160ff831661043b81613d40565b1561044590614af5565b42101561045190614b39565b42906007015560ff191660021790558881519061046d91614393565b9182809252519061047d91614380565b6064900461048a91614393565b925160ff166104999084614380565b905252600052600860205260406000209485546104b5816143cc565b96604051976104c49089613eb1565b818852602088019060005260206000206000915b838310610681575050505060005b865181101561056257600c546001600160a01b03169061050681896143b8565b5151823b156102785760009260248492604051958693849263106b5da160e01b845260048401525af191821561055657600192610545575b50016104e6565b600061055091613eb1565b8861053e565b6040513d6000823e3d90fd5b50600190600086555161057481613d60565b61057d81613d60565b0361064e575160405163a9059cbb60e01b81523360048201526024810184905290602090829060449082906000906001600160a01b03165af1908115610556576000916105fb575b50600080516020614d01833981519152916105e26105f192614c71565b51604051918291339583614b85565b0390a26001600055005b90506020813d602011610646575b8161061660209383613eb1565b8101031261027857600080516020614d01833981519152916105e261063d6105f193614373565b925050916105c5565b3d9150610609565b506105f1600080516020614d018339815191529161067c600080808088335af1610676614bf5565b50614c25565b6105e2565b600b602060019260405161069481613e79565b855481526040516106ab816102cc81898b01614140565b8382015260ff6002870154166106c081613d40565b60408201526040516106d9816102cc8160038b01614140565b606082015260048601546080820152600586015460a0820152600686015460c0820152600786015460e08201526008860154610100820152604051610725816102cc8160098b01614140565b610120820152600a86015460ff811661073d81613d60565b610140830152858060a01b039060081c166101608201528152019201920191906104d8565b634e487b7160e01b600052601160045260246000fd5b3461027857602036600319011261027857600435610794614cb5565b600d54604051632bb2b24360e11b8152600481018390523360248201526001600160a01b03909116906101a081604481855afa90811561055657600091610cd7575b50906020820191825115610c925760a060029101516107f481613d40565b6107fd81613d40565b03610c4157600060249160405192838092632500ed8d60e21b82528760048301525afa90811561055657600091610957575b50600161012082015161084181613d60565b61084a81613d60565b0361093c576101400151905160405163a9059cbb60e01b8152336004820152602481019190915290602090829060449082906000906001600160a01b03165af1801561055657600090610901575b6108a29150614c71565b600d546001600160a01b0316803b15610278576040516307e2f9cf60e21b815260048101839052336024820152906000908290604490829084905af18015610556576108f0575b6001600055005b60006108fb91613eb1565b806108e9565b506020813d602011610934575b8161091b60209383613eb1565b810103126102785761092f6108a291614373565b610898565b3d915061090e565b5060008080806109529451335af1610676614bf5565b6108a2565b903d8082843e6109678184613eb1565b820191602081840312610c3d578051906001600160401b038211610c2557019061016082840312610ab8576040519261016084018481106001600160401b03821117610c29576040528251845260208301516001600160401b038111610c2557816109d3918501614bb3565b602085015260408301516003811015610c2557604085015260608301516001600160401b038111610c255783019080601f83011215610c2557815191610a18836143cc565b92610a266040519485613eb1565b80845260208085019160051b83010191838311610c215760208101915b838310610abb57505050505060608401526080820151608084015260a082015160a084015260c082015160c084015260e082015160e0840152610100820151610100840152610120820151906002821015610ab85750610120830152610aac9061014001614b9f565b6101408201528361082f565b80fd5b82516001600160401b038111610c1d578201610220818703601f190112610c1d5760405190610ae982613e95565b6020810151825260408101516001600160401b038111610c1957876020610b1292840101614bb3565b602083015260608101516001600160401b038111610c1957876020610b3992840101614bb3565b604083015260808101516003811015610c1957606083015260a0810151608083015260c081015160a083015260e081015160c083015261010081015160e0830152610120810151610100830152610140810151610120830152610160810151610140830152610bab6101808201614373565b6101608301526101a08101516101808301526101c08101516101a08301526101e081015160ff81168103610c19576101c083015261022090610bf06102008201614b9f565b6101e084015201516002811015610c1557610200820152815260209283019201610a43565b8880fd5b8980fd5b8780fd5b8580fd5b8280fd5b634e487b7160e01b83526041600452602483fd5b5080fd5b60405162461bcd60e51b8152602060048201526024808201527f4465706f736974206973206e6f7420726561647920666f72207769746864726160448201526377616c7360e01b6064820152608490fd5b60405162461bcd60e51b815260206004820152601d60248201527f4e6f20616374697665207769746864726177616c20666f7220757365720000006044820152606490fd5b6101a0813d8211610dd9575b81610cf16101a09383613eb1565b81010312610c3d57604051916101a083018381106001600160401b03821117610dc557604052610d2082614b9f565b83526020820151602084015260408201516040840152606082015160608401526080820151608084015260a08201516003811015610c3d5760a084015260c082015160c084015260e082015160e0840152610100820151610100840152610120820151610120840152610140820151610140840152610160820151906002821015610ab85750610160830152610db99061018001614b9f565b610180820152836107d6565b634e487b7160e01b82526041600452602482fd5b3d9150610ce3565b3461027857600036600319011261027857600c546040516001600160a01b039091168152602090f35b34610278576000366003190112610278576020600a54604051908152f35b3461027857602036600319011261027857610e41613ed2565b610e49614cd7565b6001600160a01b03168015610e9c57600180546001600160a01b0319811683179091556001600160a01b03167f8be0079c531659141344cd1fd0a4f28419497f9722a3daafe3b4186f6b6457e0600080a3005b631e4fbdf760e01b600052600060045260246000fd5b34610278576040366003190112610278576024356004356001600160a01b038216808303610278576000610120604051610eeb81613e5d565b8281528260208201528260408201528260608201528260808201528260a08201528260c08201528260e0820152826101008201520152600052600760205260406000208160005260205260406000206000805260205260406000209060405191610f5483613e5d565b80546001600160a01b031683526001810154602084019081526002820154604085019081526003830154606086019081526004840154929692608087019060ff16610f9e81613d40565b815260058501549160a0880192835260068601549360c0890194855260078701549560e08a0196875260ff600960088a0154996101008d019a8b52015416986101208b0199610fec81613d60565b8a5280600052600960205260406000209060405161100981613e95565b82548152604051611021816102cc8160018801614140565b602082015260405161103a816102cc8160028801614140565b604082015260ff60038401541661105081613d40565b60608201526004830154608082015261020060ff600e60058601549560a08501968752600681015460c0860152600781015460e086015260088101546101008601526009810154610120860152600a81015461014086015282600b820154161515610160860152600c810154610180860152600d8101546101a086015201548181166101c085015260018060a01b038160081c166101e085015260a81c16916110f883613d60565b01528751915190620151808202918083046201518014901517156107625761112560209261116294614366565b600c54604051630414960560e21b81526001600160a01b039687166004820152602481019390935290949193849290911690829081906044820190565b03915afa9081156105565760009161126e575b508061125e57506111af620151806111a788515b42885161119581613d40565b61119e81613d40565b61125657614393565b048451614380565b8852428111611220575061014099600085525b604080519a516001600160a01b03168b52905160208b0152905190890152516060880152516111f081613d40565b60808701525160a08601525160c08501525160e0840152516101008301525161121881613d60565b610120820152f35b61122b904290614393565b99620151808b019a8b8111610762576201517f019a8b1161076257620151806101409b0485526111c2565b508a51614393565b620151806111a76111af92611189565b906020823d602011611298575b8161128860209383613eb1565b81010312610ab85750518c611175565b3d915061127b565b34610278576060366003190112610278576112b9613ed2565b602435906044356002811015610278576112d1614cb5565b6013546001600160a01b031633148015611712575b156116ce578260005260096020526040600020926040519261130784613e95565b8454845260405194611327866113208160018501614140565b0387613eb1565b60208501958652604051611342816102cc8160028601614140565b604086015260ff60038201541661135881613d40565b60608601526004810154608086015260058101549460a0810195865260068201549160c0820192835260078101549360e0830194855260088201549161010084019283526009810154916101208501928352600a82015461014086015260ff600b830154161515610160860152600c820154610180860152600e600d830154926101a0870193845201549461020060ff6101c0830197818116895260018060a01b038160081c166101e085015260a81c169161141383613d60565b015260018060a01b03169788600052600760205260406000208860005260205260406000209061144281613d60565b60005260205260406000209860068a01549051620151808102908082046201518014901517156107625761147591614366565b9460018a01998a549687151561148a90614a9f565b600482019182549160ff831661149f81613d40565b156114a990614af5565b4210156114b590614b39565b42906007015560ff19166002179055858151906114d191614393565b918280925251906114e191614380565b606490046114ee91614393565b925160ff166114fd9084614380565b90525281519061150c91614393565b905260005260086020526040600020928354611527816143cc565b94604051956115369087613eb1565b818652602086019060005260206000206000915b8383106115ed575050505060005b84518110156115c857600c546001600160a01b03169061157881876143b8565b5151823b156102785760009260248492604051958693849263106b5da160e01b845260048401525af1918215610556576001926115b7575b5001611558565b60006115c291613eb1565b866115b0565b50600080516020614d018339815191529192549051906105f160405192839283614b85565b600b602060019260405161160081613e79565b85548152604051611617816102cc81898b01614140565b8382015260ff60028701541661162c81613d40565b6040820152604051611645816102cc8160038b01614140565b606082015260048601546080820152600586015460a0820152600686015460c0820152600786015460e08201526008860154610100820152604051611691816102cc8160098b01614140565b610120820152600a86015460ff81166116a981613d60565b610140830152858060a01b039060081c1661016082015281520192019201919061154a565b606460405162461bcd60e51b815260206004820152602060248201527f43616c6c6572206973206e6f7420746865207661756c7420636f6e74726163746044820152fd5b506015546001600160a01b031633146112e6565b3461027857600036600319011261027857600a54611743816143cc565b906117516040519283613eb1565b808252601f19611760826143cc565b0160005b81811061181b57505060015b818111156117e057826040518091602082016020835281518091526040830190602060408260051b8601019301916000905b8282106117b157505050500390f35b919360019193955060206117d08192603f198a82030186528851613d6a565b96019201920185949391926117a2565b6117e981614241565b6000198201919081831161076257826118109161180961181695886143b8565b52856143b8565b50614357565b611770565b6020906118266141c3565b82828701015201611764565b3461027857606036600319011261027857600435602435604435611854614cd7565b82600052600960205260ff600b60406000200154161561193a5781156119075780156118c9576000838152600960209081526040918290206004810185905560050183905581519384528301919091527f17b8644f386d1c7c7138ef98b3c8035622bbe94d7be9b26f71d2654a547c294391a2005b60405162461bcd60e51b8152602060048201526016602482015275125b9d985b1a59081b5a5b9a5b5d5b481c195c9a5bd960521b6044820152606490fd5b60405162461bcd60e51b815260206004820152600b60248201526a496e76616c69642041505960a81b6044820152606490fd5b60405162461bcd60e51b815260206004820152602260248201527f506f6f6c20646f6573206e6f74206578697374206f7220697320696e61637469604482015261766560f01b6064820152608490fd5b34610278576020366003190112610278576001600160a01b036119ab613ed2565b166000526006602052602060018060a01b0360406000205416604051908152f35b34610278576119da366140d3565b91906119e4614cb5565b6014546001600160a01b031633148015611a88575b15611a435760018060a01b03166000526007602052604060002090600052602052604060002090611a2981613d60565b600052602052600060016040822001556001600055600080f35b60405162461bcd60e51b815260206004820152601f60248201527f43616c6c6572206973206e6f742074686520706f6f6c2063616e6973746572006044820152606490fd5b506015546001600160a01b031633146119f9565b3461027857600036600319011261027857600e546040516001600160a01b039091168152602090f35b3461027857602036600319011261027857600435600052600960205260406000208054906040519081806001830190611afd91614140565b03611b089083613eb1565b60405180611b198160028501614140565b03611b249082613eb1565b600382015460ff169160048101546005820154600683015460078401546008850154600986015491600a87015493600b88015460ff1695600c89015497600d8a015499600e01549a6040519e8f9e8f9182526020820161022090526102208201611b8d91613d1b565b908082039060400152611b9f91613d1b565b9b8d611baa82613d40565b6060015260808d015260a08c015260c08b015260e08a015261010089015261012088015261014087015215156101608601526101808501526101a084015260ff8181166101c0850152600882901c6001600160a01b03166101e0850152611c169060a883901c16613d60565b60a81c60ff166102008301520390f35b3461027857602036600319011261027857611c3f613ed2565b611c47614cd7565b600b54906001600160a01b038216611cd7576001600160a01b0316908115611c88576001600160a01b03199081168217600b55600e80549091169091179055005b60405162461bcd60e51b815260206004820152602160248201527f476f7665726e616e636520616464726573732063616e6e6f74206265207a65726044820152606f60f81b6064820152608490fd5b60405162461bcd60e51b815260206004820152601660248201527511dbdd995c9b985b98d948185b1c9958591e481cd95d60521b6044820152606490fd5b3461027857611d23366140bd565b9060018060a01b036012541633148015611d60575b611d41906143e3565b6000526009602052611d5c600c604060002001918254614393565b9055005b506015546001600160a01b03163314611d38565b3461027857611d82366140d3565b6000610160604051611d9381613e79565b8281528260208201528260408201528260608201528260808201528260a08201528260c08201528260e0820152826101008201528261012082015282610140820152015260018060a01b0382166000526007602052604060002083600052602052604060002090611e0381613d60565b600052602052604060002060405192611e1b84613e5d565b60018060a01b0382541684526001820154926020850193845260028301549260408601938452856003820154916060820192835260ff6004820154166080830190611e6581613d40565b8152600582015460a0840190815260068301549160c0850192835260ff600960078601549560e0880196875261010060088201549801978852015416956101208c0196611eb181613d60565b875288600052600960205260406000209760405198611ecf8a613e95565b80548a52604051611ee7816102cc8160018601614140565b60208b0152604051611f00816102cc8160028601614140565b60408b015260ff600382015416611f1681613d40565b60608b0152600481015460808b0152600e60058201549160a08c01928352600681015460c08d0152600781015460e08d015260088101546101008d015260098101546101208d0152600a8101546101408d015260ff600b8201541615156101608d0152600c8101546101808d0152600d8101546101a08d015201549a60ff8c166101c08c015261020060ff6101e08d019d8e60018060a01b038260081c16905260a81c169b019a611fc681613d60565b8b5286519151906201518082029180830462015180149015171561076257611125602092611ff394614366565b03915afa908115610556576000916121e5575b50806121d557506120406201518061203887515b42875161202681613d40565b61202f81613d40565b6121cd57614393565b048351614380565b875242811161219757506101809b600084525b519a519951905191516001600160a01b03909b169a9261207284613d40565b5193519451955196519761208589613d60565b51986120908a613d60565b516040519b6001600160a01b039091169a906120ab8d613e79565b8c5260208c0190815260408c0191825260608c0192835260808c01936120d081613d40565b845260a08c0194855260c08c0195865260e08c019687526101008c019788526101208c01986120fe81613d60565b89526101408c019961210f81613d60565b8a526101608c019a8b52604080519c516001600160a01b03168d52905160208d01529051908b01525160608a01525161214781613d40565b60808901525160a08801525160c08701525160e0860152516101008501525161216f81613d60565b6101208401525161217f81613d60565b610140830152516001600160a01b0316610160820152f35b6121a2904290614393565b9b620151808d019c8d8111610762576201517f019c8d1161076257620151806101809d048452612053565b508951614393565b620151806120386120409261201a565b906020823d60201161220f575b816121ff60209383613eb1565b81010312610ab85750518e612006565b3d91506121f2565b3461027857612225366140bd565b9060018060a01b03601254163314801561225e575b612243906143e3565b6000526009602052611d5c600c604060002001918254614366565b506015546001600160a01b0316331461223a565b346102785760203660031901126102785760043561228e614cd7565b80600052600960205260ff600b6040600020015416156122c3576000908152600960205260409020600b01805460ff19169055005b60405162461bcd60e51b8152602060048201526012602482015271506f6f6c206973206e6f742061637469766560701b6044820152606490fd5b34610278576000366003190112610278576010546040516001600160a01b039091168152602090f35b34610278576020366003190112610278576001600160a01b03612347613ed2565b1660005260176020526020604060002054604051908152f35b3461027857602036600319011261027857602061237e600435614991565b604051908152f35b34610278576000366003190112610278576001546040516001600160a01b039091168152602090f35b34610278576020366003190112610278576123cb600435614868565b6040518091602082016020835281518091526040830190602060408260051b8601019301916000905b82821061240357505050500390f35b919360019193955060208091603f19898203018552875190815181526101606124ae6124666124418686015161018088870152610180860190613d1b565b604086015161244f81613d40565b604086015260608601518582036060870152613d1b565b6080850151608085015260a085015160a085015260c085015160c085015260e085015160e0850152610100850151610100850152610120850151848203610120860152613d1b565b926101408101516124be81613d60565b61014084015281878060a01b039101511691015296019201920185949391926123f4565b34610278576020366003190112610278576124fb613ed2565b612503614cd7565b601254906001600160a01b038216612586576001600160a01b031690811561254157600c80546001600160a01b031990811684179091551617601255005b60405162461bcd60e51b815260206004820152601c60248201527f436f76657220616464726573732063616e6e6f74206265207a65726f000000006044820152606490fd5b60405162461bcd60e51b815260206004820152601160248201527010dbdd995c88185b1c9958591e481cd95d607a1b6044820152606490fd5b34610278576000366003190112610278576125d8614cd7565b600180546001600160a01b031981169091556000906001600160a01b03167f8be0079c531659141344cd1fd0a4f28419497f9722a3daafe3b4186f6b6457e08280a3005b3461027857600036600319011261027857600d546040516001600160a01b039091168152602090f35b346102785761265336613f8f565b6012546001600160a01b0316331480156126cc575b612671906143e3565b60005b82600052600860205260406000205481101561024c578260005260086020526126a181604060002061442e565b50548251146126b257600101612674565b6102469061024c936000526008602052604060002061442e565b506015546001600160a01b03163314612668565b34610278576020366003190112610278576126f9613ed2565b612701614cd7565b601354906001600160a01b038216612784576001600160a01b031690811561273f57600d80546001600160a01b031990811684179091551617601355005b60405162461bcd60e51b815260206004820152601c60248201527f5661756c7420616464726573732063616e6e6f74206265207a65726f000000006044820152606490fd5b60405162461bcd60e51b815260206004820152601160248201527015985d5b1d08185b1c9958591e481cd95d607a1b6044820152606490fd5b34610278576000366003190112610278576014546040516001600160a01b039091168152602090f35b3461027857600036600319011261027857600b546040516001600160a01b039091168152602090f35b34610278576020366003190112610278576004356001600160401b038111610278576101406003198236030112610278576040519061284d82613e5d565b8060040135825260248101356003811015610278576020830190815260448201356001600160401b0381116102785761288c9060043691850101613f48565b926040810193845260648301356001600160401b038111610278576128b79060043691860101613f48565b6060820190815260808201926084850135845260a0830160a4860135815260c48601359160ff831683036102785760c0850192835260e085019160e488013583526101048801359760028910156102785761012461291d9161010089019a8b5201613ee8565b96610120870197885261292e614cd7565b885161293981613d60565b61294281613d60565b158015612d04575b15612cbf57600a546001810180911161076257600a5586516000526009602052604060002095875187558a5160018801908051906001600160401b03821161024e5781906129988454614106565b601f8111612c6c575b50602090601f8311600114612c0757600092612bfc575b50508160011b916000199060031b1c19161790555b51805160028801916001600160401b03821161024e576129ed8354614106565b601f8111612bb4575b50602090601f8311600114612b43579180612a7996949260ff99989694600092612b38575b50508160011b916000199060031b1c19161790555b51600488015560006006880155516005870155600060078701556000600987015560006008870155600b86016001851982541617905551612a7081613d40565b600386016143a0565b519182600d850155511693600e8301918254906064039560648711610762577ff01906dc0ac306fa816e50166a7ed46af1f05721cb90cea30beebdd8dede3a6d97612b3397600c612b1c97015551612ad081613d60565b612ad981613d60565b9251610100600160a81b0360089190911b1660ff60a81b60a89490941b939093166001600160b01b031992909216610100600160a81b0319919091161717179055565b519251604051918291602083526020830190613d1b565b0390a2005b015190508f80612a1b565b90601f1983169184600052816000209260005b818110612b9c575092600192859260ff9b9a9896612a799a989610612b83575b505050811b019055612a30565b015160001960f88460031b161c191690558f8080612b76565b92936020600181928786015181550195019301612b56565b836000526020600020601f840160051c81019160208510612bf2575b601f0160051c01905b818110612be657506129f6565b60008155600101612bd9565b9091508190612bd0565b015190508e806129b8565b60008581528281209350601f198516905b818110612c545750908460019594939210612c3b575b505050811b0190556129cd565b015160001960f88460031b161c191690558e8080612c2e565b92936020600181928786015181550195019301612c18565b909150836000526020600020601f840160051c81019160208510612cb5575b90601f859493920160051c01905b818110612ca657506129a1565b60008155849350600101612c99565b9091508190612c8b565b60405162461bcd60e51b815260206004820152601760248201527f57726f6e6720417373657420666f72204465706f7369740000000000000000006044820152606490fd5b5087516001600160a01b0316151561294a565b346102785760203660031901126102785760043560165481101561027857612d40602091613efc565b905460405160039290921b1c6001600160a01b03168152f35b3461027857600036600319011261027857600f546040516001600160a01b039091168152602090f35b3461027857602036600319011261027857612d9b613ed2565b600a54600091906001600160a01b03821660015b8281111561320a5750612dc1846143cc565b93612dcf6040519586613eb1565b808552612dde601f19916143cc565b0160005b818110613195575050600c546001600160a01b03169260009060015b84811115612f0457866040518091602082016020835281518091526040830190602060408260051b8601019301916000905b828210612e3f57505050500390f35b919360019193955060208091603f1989820301855287519061016080612e83612e7385516101808652610180860190613d1b565b8686015185820388870152613d1b565b936040810151612e9281613d40565b6040850152606081015160608501526080810151608085015260a081015160a085015260c081015160c085015260e081015160e0850152610100810151610100850152610120810151610120850152610140810151151561014085015201519101529601920192018594939192612e30565b80600052600960205260406000208460005260076020526040600020826000526020526040600020600080526020526040600020604051612f4481613e5d565b60018060a01b038254168152600182015460208201526002820154604082015261012060ff60096003850154946060850195865282600482015416612f8881613d40565b6080860152600581015460a0860152600681015460c0860152600781015460e0860152600881015461010086015201541691612fc383613d60565b01526040516339e671f760e11b81526001600160a01b0385166004820152602481018490526020816044818c5afa90811561055657600091613162575b5061300b9151614380565b85600052600760205260406000208360005260205260406000206000805260205260016040600020015461304a575b505061304590614357565b612dfe565b600382810154600088815260076020908152604080832088845282528083208380529091529081902092830154600190930154600486015460058701546006880154600a890154600b8a015495519c9960ff9687169891979296939593919291909116906130b78e613e79565b6040518e816130c98160018601614140565b036130d49083613eb1565b528d604051806002819401906130e991614140565b036130f49083613eb1565b6020015261310181613d40565b60408d01528960608d015260808c015260a08b015260c08a015260e089015261010088015261012087015215156101408601526101608501528061314490614357565b9361314f828a6143b8565b5261315a90886143b8565b50878061303a565b906020823d821161318d575b8161317b60209383613eb1565b81010312610ab857505161300b613000565b3d915061316e565b6020906040959495516131a781613e79565b60608152606083820152600060408201526000606082015260006080820152600060a0820152600060c0820152600060e0820152600061010082015260006101208201526000610140820152600061016082015282828901015201939293612de2565b81600094939452600760205260406000208160005260205260406000206000805260205260016040600020015461324d575b61324590614357565b929192612daf565b9361325a61324591614357565b94905061323c565b34610278576000366003190112610278576015546040516001600160a01b039091168152602090f35b34610278576020366003190112610278576004356000526009602052602060ff600b60406000200154166040519015158152f35b34610278576000366003190112610278576012546040516001600160a01b039091168152602090f35b34610278576000366003190112610278576013546040516001600160a01b039091168152602090f35b60c036600319011261027857600060405160c081018181106001600160401b03821117610c2957604052613343613ed2565b8152602081016024358152604082016044358152606435916002831015613c6c5760608401928352608435926002841015610c21576080850193845260a435926001600160a01b0384168403613c685760a086019384526133a2614cb5565b825187526009602052604087209360ff600b8601541615613c1857600e850195865460ff8160a81c1691516133d681613d60565b6133df81613d60565b6133e883613d60565b8203613bc45782516001600160a01b0390811660089290921c1603613b7f5760019061341381613d60565b03613b0f57815115613aca5751865182516040516323b872dd60e01b81526001600160a01b039283166004820152306024820152604481019190915291602091839160649183918d91165af190811561373b578891613a90575b5015613a53578694815161348660068701918254614366565b9055815161349960078701918254614366565b90558151905b6134cc60ff6134c3600689015460646134bc82600d8d0154614380565b0490614393565b92541682614380565b6009870155600886015586516001600160a01b03168652600760209081526040808820865189529091528620835161350381613d60565b61350c81613d60565b875260205260408620600101541561393b5761356b6136c89160018060a01b0389511688526007602052604088208651895260205260408820855161355081613d60565b61355981613d60565b89526020526001604089200154614366565b9361016d606461357f600489015488614380565b040493600960018060a01b038a51168351928b60058b0154948251956135a487613d60565b604051946135b186613e5d565b85528d60208601928d845260408701908152606087018d8152608088019183835260a0890194855260c08901954287528c60e08b0198868a526101008c019a878c526101208d019e8f61360382613d60565b525161360e81613d60565b61361781613d60565b61389457516001600160a01b039081168752600760209081526040808920935189529281528288208880529052952099518a546001600160a01b0319169516949094178955925160018901559151600288015590516003870155516136889061367f81613d40565b600487016143a0565b5160058501555160068401555160078301555160088201550190516136ac81613d60565b6136b581613d60565b60ff801983541691161790555b51614868565b93855b855181101561374657600c546001600160a01b0316906136eb81886143b8565b5151823b15610c1557889260248492604051958693849263106b5da160e01b845260048401525af191821561373b578860019361372b575b5050016136cb565b61373491613eb1565b8a88613723565b6040513d8a823e3d90fd5b50601654869550879086805b82811061385c575b50156137fc575b5080516001600160a01b03168652601760205260408620805460018101919082106137e85792600194927f6f85d9948d6ca3dd6ce6ce7d175da22b4e865827ae6fcd530ec7edac1240f928926040999555858060a01b0390511692516137d8895192839283528a6020840152878b84019101614140565b0390a25582519182526020820152f35b634e487b7160e01b88526011600452602488fd5b81516001600160a01b031690600160401b811015613848578060016138249201601655613efc565b81546001600160a01b0360039290921b91821b191692901b91909117905586613761565b634e487b7160e01b88526041600452602488fd5b61386581613efc565b9054855160039290921b1c6001600160a01b0390811691161461388a57600101613752565b505060018861375a565b516001600160a01b039081168752600760209081526040808920935189529281528288206001808a529152919096209a518b546001600160a01b0319169616959095178a5551938901939093559151600288015590516003870155516138fd9061367f81613d40565b51600585015551600684015551600783015551600882015501905161392181613d60565b61392a81613d60565b60ff801983541691161790556136c2565b926136c89061016d6064613953600489015488614380565b040493600960018060a01b038a51168351928b60058b01549482519561397887613d60565b6040519461398586613e5d565b85528d60208601928d845260408701908152606087018d8152608088019183835260a0890194855260c08901954287528c60e08b0198868a526101008c019a878c526101208d019e8f6139d782613d60565b52516139e281613d60565b6139eb81613d60565b61389457516001600160a01b039081168752600760209081526040808920935189529281528288208880529052952099518a546001600160a01b0319169516949094178955925160018901559151600288015590516003870155516138fd9061367f81613d40565b60405162461bcd60e51b8152602060048201526015602482015274151bdad95b881d1c985b9cd9995c8819985a5b1959605a1b6044820152606490fd5b90506020813d602011613ac2575b81613aab60209383613eb1565b81010312610c1d57613abc90614373565b8861346d565b3d9150613a9e565b60405162461bcd60e51b815260206004820152601d60248201527f416d6f756e74206d7573742062652067726561746572207468616e20300000006044820152606490fd5b503415613b4157869460068501613b27348254614366565b905560078501613b38348254614366565b9055349061349f565b60405162461bcd60e51b81526020600482015260166024820152754465706f7369742063616e6e6f74206265207a65726f60501b6044820152606490fd5b60405162461bcd60e51b815260206004820152601f60248201527f506f6f6c20646f6573206e6f74206163636570742074686973206173736574006044820152606490fd5b60405162461bcd60e51b815260206004820152602660248201527f506f6f6c20646f6573206e6f74206163636570742074686973206465706f736960448201526574207479706560d01b6064820152608490fd5b60405162461bcd60e51b815260206004820152602260248201527f506f6f6c20697320696e616374697665206f7220646f6573206e6f74206578696044820152611cdd60f21b6064820152608490fd5b8680fd5b8480fd5b34610278576000366003190112610278576000600190600a545b80831115613c9d57602082604051908152f35b90613cb4613cba91613cae85614991565b90614366565b92614357565b9190613c8a565b3461027857602036600319011261027857613cf4613ce0600435614241565b604051918291602083526020830190613d6a565b0390f35b60005b838110613d0b5750506000910152565b8181015183820152602001613cfb565b90602091613d3481518092818552858086019101613cf8565b601f01601f1916010190565b60031115613d4a57565b634e487b7160e01b600052602160045260246000fd5b60021115613d4a57565b908151815261020080613da3613d9160208601516102206020870152610220860190613d1b565b60408601518582036040870152613d1b565b936060810151613db281613d40565b60608501526080810151608085015260a081015160a085015260c081015160c085015260e081015160e085015261010081015161010085015261012081015161012085015261014081015161014085015261016081015115156101608501526101808101516101808501526101a08101516101a085015260ff6101c0820151166101c085015260018060a01b036101e0820151166101e0850152015191613e5883613d60565b015290565b61014081019081106001600160401b0382111761024e57604052565b61018081019081106001600160401b0382111761024e57604052565b61022081019081106001600160401b0382111761024e57604052565b90601f801991011681019081106001600160401b0382111761024e57604052565b600435906001600160a01b038216820361027857565b35906001600160a01b038216820361027857565b601654811015613f1757601660005260206000200190600090565b634e487b7160e01b600052603260045260246000fd5b6001600160401b03811161024e57601f01601f191660200190565b81601f8201121561027857803590613f5f82613f2d565b92613f6d6040519485613eb1565b8284526020838301011161027857816000926020809301838601378301015290565b90604060031983011261027857600435916024356001600160401b0381116102785761018081830360031901126102785760405191613fcd83613e79565b8160040135835260248201356001600160401b03811161027857816004613ff692850101613f48565b60208401526044820135600381101561027857604084015260648201356001600160401b0381116102785781600461403092850101613f48565b60608401526084820135608084015260a482013560a084015260c482013560c084015260e482013560e0840152610104820135610100840152610124820135906001600160401b03821161027857600461408c92840101613f48565b6101208301526101448101356002811015610278576101408301526140b49061016401613ee8565b61016082015290565b6040906003190112610278576004359060243590565b606090600319011261027857600435906024356001600160a01b0381168103610278579060443560028110156102785790565b90600182811c92168015614136575b602083101461412057565b634e487b7160e01b600052602260045260246000fd5b91607f1691614115565b6000929181549161415083614106565b80835292600181169081156141a6575060011461416c57505050565b60009081526020812093945091925b83831061418c575060209250010190565b60018160209294939454838587010152019101919061417b565b915050602093945060ff929192191683830152151560051b010190565b604051906141d082613e95565b60006102008382815260606020820152606060408201528260608201528260808201528260a08201528260c08201528260e08201528261010082015282610120820152826101408201528261016082015282610180820152826101a0820152826101c0820152826101e08201520152565b6142496141c3565b506000526009602052604060002060ff600e6040519261426884613e95565b80548452604051614280816102cc8160018601614140565b6020850152604051614299816102cc8160028601614140565b6040850152826003820154166142ae81613d40565b606085015260048101546080850152600581015460a0850152600681015460c0850152600781015460e08501526008808201546101008601526009820154610120860152600a820154610140860152600b82015484161515610160860152600c820154610180860152600d8201546101a08601529101548083166101c08501529081901c6001600160a01b03166101e084015260a81c1661434e81613d60565b61020082015290565b60001981146107625760010190565b9190820180921161076257565b5190811515820361027857565b8181029291811591840414171561076257565b9190820391821161076257565b906143aa81613d40565b60ff80198354169116179055565b8051821015613f175760209160051b010190565b6001600160401b03811161024e5760051b60200190565b156143ea57565b606460405162461bcd60e51b815260206004820152602060248201527f43616c6c6572206973206e6f742074686520636f76657220636f6e74726163746044820152fd5b8054821015613f1757600052600b602060002091020190600090565b9061485257815181556001810160208301518051906001600160401b03821161024e5781906144798454614106565b601f81116147ff575b50602090601f831160011461479a5760009261478f575b50508160011b916000199060031b1c19161790555b6144c860408301516144bf81613d40565b600283016143a0565b6003810160608301518051906001600160401b03821161024e5781906144ee8454614106565b601f811161473c575b50602090601f83116001146146d7576000926146cc575b50508160011b916000199060031b1c19161790555b6080820151600482015560a0820151600582015560c0820151600682015560e082015160078201556101008201516008820155600981016101208301518051906001600160401b03821161024e5761457b8354614106565b601f8111614684575b50602090601f8311600114614615579180600a949261460897969460009261460a575b50508160011b916000199060031b1c19161790555b01906101408101516145cd81613d60565b6145d681613d60565b825461016092909201516001600160a81b031990921660ff919091161760089190911b610100600160a81b0316179055565b565b0151905038806145a7565b90601f1983169184600052816000209260005b81811061466c5750926001928592614608999896600a989610614653575b505050811b0190556145bc565b015160001960f88460031b161c19169055388080614646565b92936020600181928786015181550195019301614628565b836000526020600020601f840160051c810191602085106146c2575b601f0160051c01905b8181106146b65750614584565b600081556001016146a9565b90915081906146a0565b01519050388061450e565b60008581528281209350601f198516905b818110614724575090846001959493921061470b575b505050811b019055614523565b015160001960f88460031b161c191690553880806146fe565b929360206001819287860151815501950193016146e8565b909150836000526020600020601f840160051c81019160208510614785575b90601f859493920160051c01905b81811061477657506144f7565b60008155849350600101614769565b909150819061475b565b015190503880614499565b60008581528281209350601f198516905b8181106147e757509084600195949392106147ce575b505050811b0190556144ae565b015160001960f88460031b161c191690553880806147c1565b929360206001819287860151815501950193016147ab565b909150836000526020600020601f840160051c81019160208510614848575b90601f859493920160051c01905b8181106148395750614482565b6000815584935060010161482c565b909150819061481e565b634e487b7160e01b600052600060045260246000fd5b600052600860205260406000208054614880816143cc565b9161488e6040519384613eb1565b818352602083019060005260206000206000915b8383106148b0575050505090565b600b60206001926040516148c381613e79565b855481526040516148da816102cc81898b01614140565b8382015260ff6002870154166148ef81613d40565b6040820152604051614908816102cc8160038b01614140565b606082015260048601546080820152600586015460a0820152600686015460c0820152600786015460e08201526008860154610100820152604051614954816102cc8160098b01614140565b610120820152600a86015460ff811661496c81613d60565b610140830152858060a01b039060081c166101608201528152019201920191906148a2565b600052600960205260406000206040516149aa81613e95565b815481526040516149c2816102cc8160018701614140565b60208201526040516149db816102cc8160028701614140565b604082015260ff6003830154166149f181613d40565b606082015260048201546080820152600582015460a0820152600682015460c082015261020060ff600e60078501549460e0850195865260088101546101008601526009810154610120860152600a81015461014086015282600b820154161515610160860152600c810154610180860152600d8101546101a086015201548181166101c085015260018060a01b038160081c166101e085015260a81c1691614a9983613d60565b01525190565b15614aa657565b60405162461bcd60e51b815260206004820152602160248201527f4e6f206465706f73697420666f756e6420666f722074686973206164647265736044820152607360f81b6064820152608490fd5b15614afc57565b60405162461bcd60e51b81526020600482015260156024820152744465706f736974206973206e6f742061637469766560581b6044820152606490fd5b15614b4057565b60405162461bcd60e51b815260206004820152601c60248201527f4465706f73697420706572696f6420686173206e6f7420656e646564000000006044820152606490fd5b604090614b9c939281528160208201520190613d1b565b90565b51906001600160a01b038216820361027857565b81601f82011215610278578051614bc981613f2d565b92614bd76040519485613eb1565b8184526020828401011161027857614b9c9160208085019101613cf8565b3d15614c20573d90614c0682613f2d565b91614c146040519384613eb1565b82523d6000602084013e565b606090565b15614c2c57565b60405162461bcd60e51b815260206004820152601c60248201527f4e6174697665206173736574207472616e73666572206661696c6564000000006044820152606490fd5b15614c7857565b60405162461bcd60e51b8152602060048201526015602482015274115490cc8c081d1c985b9cd9995c8819985a5b1959605a1b6044820152606490fd5b600260005414614cc6576002600055565b633ee5aeb560e01b60005260046000fd5b6001546001600160a01b03163303614ceb57565b63118cdaa760e01b6000523360045260246000fdfe485f1bb6524c663555797e00171a10f341656e59b02d6b557a0a38ba7d5d9751a2646970667358221220270c8acd4904911ab77837941e660158d72f9158120c390a9ecb61025593ffc564736f6c634300081c0033",
  "linkReferences": {},
  "deployedLinkReferences": {}
}