{
  "_format": "hh-sol-artifact-1",
  "contractName": "InsurancePool",
  "sourceName": "contracts/InsurancePool.sol",
  "abi": [
    {
      "inputs": [
        {
          "internalType": "address",
          "name": "_initialOwner",
          "type": "address"
        },
        {
          "internalType": "address",
          "name": "_bqBtc",
          "type": "address"
        }
      ],
      "stateMutability": "nonpayable",
      "type": "constructor"
    },
    {
      "inputs": [
        {
          "internalType": "address",
          "name": "owner",
          "type": "address"
        }
      ],
      "name": "OwnableInvalidOwner",
      "type": "error"
    },
    {
      "inputs": [
        {
          "internalType": "address",
          "name": "account",
          "type": "address"
        }
      ],
      "name": "OwnableUnauthorizedAccount",
      "type": "error"
    },
    {
      "inputs": [],
      "name": "ReentrancyGuardReentrantCall",
      "type": "error"
    },
    {
      "anonymous": false,
      "inputs": [
        {
          "indexed": false,
          "internalType": "uint256",
          "name": "",
          "type": "uint256"
        },
        {
          "indexed": false,
          "internalType": "uint256",
          "name": "",
          "type": "uint256"
        },
        {
          "indexed": false,
          "internalType": "address",
          "name": "",
          "type": "address"
        }
      ],
      "name": "ClaimAttempt",
      "type": "event"
    },
    {
      "anonymous": false,
      "inputs": [
        {
          "indexed": true,
          "internalType": "address",
          "name": "recipient",
          "type": "address"
        },
        {
          "indexed": false,
          "internalType": "string",
          "name": "pool",
          "type": "string"
        },
        {
          "indexed": false,
          "internalType": "uint256",
          "name": "amount",
          "type": "uint256"
        }
      ],
      "name": "ClaimPaid",
      "type": "event"
    },
    {
      "anonymous": false,
      "inputs": [
        {
          "indexed": true,
          "internalType": "address",
          "name": "user",
          "type": "address"
        },
        {
          "indexed": false,
          "internalType": "uint256",
          "name": "amount",
          "type": "uint256"
        },
        {
          "indexed": false,
          "internalType": "string",
          "name": "pool",
          "type": "string"
        }
      ],
      "name": "Deposited",
      "type": "event"
    },
    {
      "anonymous": false,
      "inputs": [
        {
          "indexed": true,
          "internalType": "address",
          "name": "previousOwner",
          "type": "address"
        },
        {
          "indexed": true,
          "internalType": "address",
          "name": "newOwner",
          "type": "address"
        }
      ],
      "name": "OwnershipTransferred",
      "type": "event"
    },
    {
      "anonymous": false,
      "inputs": [
        {
          "indexed": true,
          "internalType": "uint256",
          "name": "id",
          "type": "uint256"
        },
        {
          "indexed": false,
          "internalType": "string",
          "name": "poolName",
          "type": "string"
        }
      ],
      "name": "PoolCreated",
      "type": "event"
    },
    {
      "anonymous": false,
      "inputs": [
        {
          "indexed": true,
          "internalType": "uint256",
          "name": "poolId",
          "type": "uint256"
        },
        {
          "indexed": false,
          "internalType": "uint256",
          "name": "apy",
          "type": "uint256"
        },
        {
          "indexed": false,
          "internalType": "uint256",
          "name": "_minPeriod",
          "type": "uint256"
        }
      ],
      "name": "PoolUpdated",
      "type": "event"
    },
    {
      "anonymous": false,
      "inputs": [
        {
          "indexed": true,
          "internalType": "address",
          "name": "user",
          "type": "address"
        },
        {
          "indexed": false,
          "internalType": "uint256",
          "name": "amount",
          "type": "uint256"
        },
        {
          "indexed": false,
          "internalType": "string",
          "name": "pool",
          "type": "string"
        }
      ],
      "name": "Withdraw",
      "type": "event"
    },
    {
      "inputs": [],
      "name": "ICoverContract",
      "outputs": [
        {
          "internalType": "contract ICover",
          "name": "",
          "type": "address"
        }
      ],
      "stateMutability": "view",
      "type": "function"
    },
    {
      "inputs": [],
      "name": "IGovernanceContract",
      "outputs": [
        {
          "internalType": "contract IGov",
          "name": "",
          "type": "address"
        }
      ],
      "stateMutability": "view",
      "type": "function"
    },
    {
      "inputs": [],
      "name": "IVaultContract",
      "outputs": [
        {
          "internalType": "contract IVault",
          "name": "",
          "type": "address"
        }
      ],
      "stateMutability": "view",
      "type": "function"
    },
    {
      "inputs": [
        {
          "internalType": "uint256",
          "name": "_poolId",
          "type": "uint256"
        },
        {
          "components": [
            {
              "internalType": "uint256",
              "name": "id",
              "type": "uint256"
            },
            {
              "internalType": "string",
              "name": "coverName",
              "type": "string"
            },
            {
              "internalType": "enum CoverLib.RiskType",
              "name": "riskType",
              "type": "uint8"
            },
            {
              "internalType": "string",
              "name": "chains",
              "type": "string"
            },
            {
              "internalType": "uint256",
              "name": "capacity",
              "type": "uint256"
            },
            {
              "internalType": "uint256",
              "name": "capacityAmount",
              "type": "uint256"
            },
            {
              "internalType": "uint256",
              "name": "coverValues",
              "type": "uint256"
            },
            {
              "internalType": "uint256",
              "name": "maxAmount",
              "type": "uint256"
            },
            {
              "internalType": "uint256",
              "name": "poolId",
              "type": "uint256"
            },
            {
              "internalType": "string",
              "name": "CID",
              "type": "string"
            },
            {
              "internalType": "enum CoverLib.AssetDepositType",
              "name": "adt",
              "type": "uint8"
            },
            {
              "internalType": "address",
              "name": "asset",
              "type": "address"
            }
          ],
          "internalType": "struct CoverLib.Cover",
          "name": "_cover",
          "type": "tuple"
        }
      ],
      "name": "addPoolCover",
      "outputs": [],
      "stateMutability": "nonpayable",
      "type": "function"
    },
    {
      "inputs": [
        {
          "internalType": "address",
          "name": "",
          "type": "address"
        }
      ],
      "name": "assetPriceFeeds",
      "outputs": [
        {
          "internalType": "contract AggregatorV3Interface",
          "name": "",
          "type": "address"
        }
      ],
      "stateMutability": "view",
      "type": "function"
    },
    {
      "inputs": [],
      "name": "bqBTC",
      "outputs": [
        {
          "internalType": "contract IbqBTC",
          "name": "",
          "type": "address"
        }
      ],
      "stateMutability": "view",
      "type": "function"
    },
    {
      "inputs": [],
      "name": "bqBTCAddress",
      "outputs": [
        {
          "internalType": "address",
          "name": "",
          "type": "address"
        }
      ],
      "stateMutability": "view",
      "type": "function"
    },
    {
      "inputs": [],
      "name": "coverContract",
      "outputs": [
        {
          "internalType": "address",
          "name": "",
          "type": "address"
        }
      ],
      "stateMutability": "view",
      "type": "function"
    },
    {
      "inputs": [
        {
          "components": [
            {
              "internalType": "uint256",
              "name": "poolId",
              "type": "uint256"
            },
            {
              "internalType": "enum CoverLib.RiskType",
              "name": "riskType",
              "type": "uint8"
            },
            {
              "internalType": "string",
              "name": "poolName",
              "type": "string"
            },
            {
              "internalType": "string",
              "name": "rating",
              "type": "string"
            },
            {
              "internalType": "uint256",
              "name": "apy",
              "type": "uint256"
            },
            {
              "internalType": "uint256",
              "name": "minPeriod",
              "type": "uint256"
            },
            {
              "internalType": "uint8",
              "name": "leverage",
              "type": "uint8"
            },
            {
              "internalType": "uint256",
              "name": "investmentArm",
              "type": "uint256"
            },
            {
              "internalType": "enum CoverLib.AssetDepositType",
              "name": "adt",
              "type": "uint8"
            },
            {
              "internalType": "address",
              "name": "asset",
              "type": "address"
            }
          ],
          "internalType": "struct CoverLib.PoolParams",
          "name": "params",
          "type": "tuple"
        }
      ],
      "name": "createPool",
      "outputs": [],
      "stateMutability": "nonpayable",
      "type": "function"
    },
    {
      "inputs": [
        {
          "internalType": "uint256",
          "name": "_poolId",
          "type": "uint256"
        }
      ],
      "name": "deactivatePool",
      "outputs": [],
      "stateMutability": "nonpayable",
      "type": "function"
    },
    {
      "inputs": [
        {
          "components": [
            {
              "internalType": "address",
              "name": "depositor",
              "type": "address"
            },
            {
              "internalType": "uint256",
              "name": "poolId",
              "type": "uint256"
            },
            {
              "internalType": "uint256",
              "name": "amount",
              "type": "uint256"
            },
            {
              "internalType": "enum CoverLib.DepositType",
              "name": "pdt",
              "type": "uint8"
            },
            {
              "internalType": "enum CoverLib.AssetDepositType",
              "name": "adt",
              "type": "uint8"
            },
            {
              "internalType": "address",
              "name": "asset",
              "type": "address"
            }
          ],
          "internalType": "struct CoverLib.DepositParams",
          "name": "depositParam",
          "type": "tuple"
        }
      ],
      "name": "deposit",
      "outputs": [
        {
          "internalType": "uint256",
          "name": "",
          "type": "uint256"
        },
        {
          "internalType": "uint256",
          "name": "",
          "type": "uint256"
        }
      ],
      "stateMutability": "payable",
      "type": "function"
    },
    {
      "inputs": [],
      "name": "getAllPools",
      "outputs": [
        {
          "components": [
            {
              "internalType": "uint256",
              "name": "id",
              "type": "uint256"
            },
            {
              "internalType": "string",
              "name": "poolName",
              "type": "string"
            },
            {
              "internalType": "string",
              "name": "rating",
              "type": "string"
            },
            {
              "internalType": "enum CoverLib.RiskType",
              "name": "riskType",
              "type": "uint8"
            },
            {
              "internalType": "uint256",
              "name": "apy",
              "type": "uint256"
            },
            {
              "internalType": "uint256",
              "name": "minPeriod",
              "type": "uint256"
            },
            {
              "internalType": "uint256",
              "name": "totalUnit",
              "type": "uint256"
            },
            {
              "internalType": "uint256",
              "name": "tvl",
              "type": "uint256"
            },
            {
              "internalType": "uint256",
              "name": "baseValue",
              "type": "uint256"
            },
            {
              "internalType": "uint256",
              "name": "coverUnits",
              "type": "uint256"
            },
            {
              "internalType": "uint256",
              "name": "tcp",
              "type": "uint256"
            },
            {
              "internalType": "bool",
              "name": "isActive",
              "type": "bool"
            },
            {
              "internalType": "uint256",
              "name": "percentageSplitBalance",
              "type": "uint256"
            },
            {
              "internalType": "uint256",
              "name": "investmentArmPercent",
              "type": "uint256"
            },
            {
              "internalType": "uint8",
              "name": "leverage",
              "type": "uint8"
            },
            {
              "internalType": "address",
              "name": "asset",
              "type": "address"
            },
            {
              "internalType": "enum CoverLib.AssetDepositType",
              "name": "assetType",
              "type": "uint8"
            }
          ],
          "internalType": "struct CoverLib.Pool[]",
          "name": "",
          "type": "tuple[]"
        }
      ],
      "stateMutability": "view",
      "type": "function"
    },
    {
      "inputs": [
        {
          "internalType": "uint256",
          "name": "_poolId",
          "type": "uint256"
        }
      ],
      "name": "getPool",
      "outputs": [
        {
          "components": [
            {
              "internalType": "uint256",
              "name": "id",
              "type": "uint256"
            },
            {
              "internalType": "string",
              "name": "poolName",
              "type": "string"
            },
            {
              "internalType": "string",
              "name": "rating",
              "type": "string"
            },
            {
              "internalType": "enum CoverLib.RiskType",
              "name": "riskType",
              "type": "uint8"
            },
            {
              "internalType": "uint256",
              "name": "apy",
              "type": "uint256"
            },
            {
              "internalType": "uint256",
              "name": "minPeriod",
              "type": "uint256"
            },
            {
              "internalType": "uint256",
              "name": "totalUnit",
              "type": "uint256"
            },
            {
              "internalType": "uint256",
              "name": "tvl",
              "type": "uint256"
            },
            {
              "internalType": "uint256",
              "name": "baseValue",
              "type": "uint256"
            },
            {
              "internalType": "uint256",
              "name": "coverUnits",
              "type": "uint256"
            },
            {
              "internalType": "uint256",
              "name": "tcp",
              "type": "uint256"
            },
            {
              "internalType": "bool",
              "name": "isActive",
              "type": "bool"
            },
            {
              "internalType": "uint256",
              "name": "percentageSplitBalance",
              "type": "uint256"
            },
            {
              "internalType": "uint256",
              "name": "investmentArmPercent",
              "type": "uint256"
            },
            {
              "internalType": "uint8",
              "name": "leverage",
              "type": "uint8"
            },
            {
              "internalType": "address",
              "name": "asset",
              "type": "address"
            },
            {
              "internalType": "enum CoverLib.AssetDepositType",
              "name": "assetType",
              "type": "uint8"
            }
          ],
          "internalType": "struct CoverLib.Pool",
          "name": "",
          "type": "tuple"
        }
      ],
      "stateMutability": "view",
      "type": "function"
    },
    {
      "inputs": [
        {
          "internalType": "uint256",
          "name": "_poolId",
          "type": "uint256"
        }
      ],
      "name": "getPoolCovers",
      "outputs": [
        {
          "components": [
            {
              "internalType": "uint256",
              "name": "id",
              "type": "uint256"
            },
            {
              "internalType": "string",
              "name": "coverName",
              "type": "string"
            },
            {
              "internalType": "enum CoverLib.RiskType",
              "name": "riskType",
              "type": "uint8"
            },
            {
              "internalType": "string",
              "name": "chains",
              "type": "string"
            },
            {
              "internalType": "uint256",
              "name": "capacity",
              "type": "uint256"
            },
            {
              "internalType": "uint256",
              "name": "capacityAmount",
              "type": "uint256"
            },
            {
              "internalType": "uint256",
              "name": "coverValues",
              "type": "uint256"
            },
            {
              "internalType": "uint256",
              "name": "maxAmount",
              "type": "uint256"
            },
            {
              "internalType": "uint256",
              "name": "poolId",
              "type": "uint256"
            },
            {
              "internalType": "string",
              "name": "CID",
              "type": "string"
            },
            {
              "internalType": "enum CoverLib.AssetDepositType",
              "name": "adt",
              "type": "uint8"
            },
            {
              "internalType": "address",
              "name": "asset",
              "type": "address"
            }
          ],
          "internalType": "struct CoverLib.Cover[]",
          "name": "",
          "type": "tuple[]"
        }
      ],
      "stateMutability": "view",
      "type": "function"
    },
    {
      "inputs": [
        {
          "internalType": "uint256",
          "name": "_poolId",
          "type": "uint256"
        }
      ],
      "name": "getPoolTVL",
      "outputs": [
        {
          "internalType": "uint256",
          "name": "",
          "type": "uint256"
        }
      ],
      "stateMutability": "view",
      "type": "function"
    },
    {
      "inputs": [
        {
          "internalType": "address",
          "name": "_userAddress",
          "type": "address"
        }
      ],
      "name": "getPoolsByAddress",
      "outputs": [
        {
          "components": [
            {
              "internalType": "string",
              "name": "poolName",
              "type": "string"
            },
            {
              "internalType": "string",
              "name": "rating",
              "type": "string"
            },
            {
              "internalType": "enum CoverLib.RiskType",
              "name": "risk",
              "type": "uint8"
            },
            {
              "internalType": "uint256",
              "name": "poolId",
              "type": "uint256"
            },
            {
              "internalType": "uint256",
              "name": "dailyPayout",
              "type": "uint256"
            },
            {
              "internalType": "uint256",
              "name": "depositAmount",
              "type": "uint256"
            },
            {
              "internalType": "uint256",
              "name": "apy",
              "type": "uint256"
            },
            {
              "internalType": "uint256",
              "name": "minPeriod",
              "type": "uint256"
            },
            {
              "internalType": "uint256",
              "name": "totalUnit",
              "type": "uint256"
            },
            {
              "internalType": "uint256",
              "name": "tcp",
              "type": "uint256"
            },
            {
              "internalType": "bool",
              "name": "isActive",
              "type": "bool"
            },
            {
              "internalType": "uint256",
              "name": "accruedPayout",
              "type": "uint256"
            }
          ],
          "internalType": "struct CoverLib.PoolInfo[]",
          "name": "",
          "type": "tuple[]"
        }
      ],
      "stateMutability": "view",
      "type": "function"
    },
    {
      "inputs": [
        {
          "internalType": "address",
          "name": "asset",
          "type": "address"
        }
      ],
      "name": "getPriceInUSD",
      "outputs": [
        {
          "internalType": "uint256",
          "name": "",
          "type": "uint256"
        }
      ],
      "stateMutability": "view",
      "type": "function"
    },
    {
      "inputs": [],
      "name": "getTotalTVL",
      "outputs": [
        {
          "internalType": "uint256",
          "name": "",
          "type": "uint256"
        }
      ],
      "stateMutability": "view",
      "type": "function"
    },
    {
      "inputs": [
        {
          "internalType": "address",
          "name": "user",
          "type": "address"
        }
      ],
      "name": "getTotalUserDepositAmountinUSD",
      "outputs": [
        {
          "internalType": "uint256",
          "name": "",
          "type": "uint256"
        }
      ],
      "stateMutability": "view",
      "type": "function"
    },
    {
      "inputs": [
        {
          "internalType": "address",
          "name": "user",
          "type": "address"
        }
      ],
      "name": "getUserBalanceinUSD",
      "outputs": [
        {
          "internalType": "uint256",
          "name": "",
          "type": "uint256"
        }
      ],
      "stateMutability": "view",
      "type": "function"
    },
    {
      "inputs": [
        {
          "internalType": "uint256",
          "name": "_poolId",
          "type": "uint256"
        },
        {
          "internalType": "address",
          "name": "_user",
          "type": "address"
        },
        {
          "internalType": "enum CoverLib.DepositType",
          "name": "pdt",
          "type": "uint8"
        }
      ],
      "name": "getUserGenericDeposit",
      "outputs": [
        {
          "components": [
            {
              "internalType": "address",
              "name": "lp",
              "type": "address"
            },
            {
              "internalType": "uint256",
              "name": "amount",
              "type": "uint256"
            },
            {
              "internalType": "uint256",
              "name": "poolId",
              "type": "uint256"
            },
            {
              "internalType": "uint256",
              "name": "dailyPayout",
              "type": "uint256"
            },
            {
              "internalType": "enum CoverLib.Status",
              "name": "status",
              "type": "uint8"
            },
            {
              "internalType": "uint256",
              "name": "daysLeft",
              "type": "uint256"
            },
            {
              "internalType": "uint256",
              "name": "startDate",
              "type": "uint256"
            },
            {
              "internalType": "uint256",
              "name": "withdrawalInitiated",
              "type": "uint256"
            },
            {
              "internalType": "uint256",
              "name": "accruedPayout",
              "type": "uint256"
            },
            {
              "internalType": "enum CoverLib.DepositType",
              "name": "pdt",
              "type": "uint8"
            },
            {
              "internalType": "enum CoverLib.AssetDepositType",
              "name": "adt",
              "type": "uint8"
            },
            {
              "internalType": "address",
              "name": "asset",
              "type": "address"
            }
          ],
          "internalType": "struct CoverLib.GenericDepositDetails",
          "name": "",
          "type": "tuple"
        }
      ],
      "stateMutability": "view",
      "type": "function"
    },
    {
      "inputs": [
        {
          "internalType": "uint256",
          "name": "_poolId",
          "type": "uint256"
        },
        {
          "internalType": "address",
          "name": "_user",
          "type": "address"
        }
      ],
      "name": "getUserPoolDeposit",
      "outputs": [
        {
          "components": [
            {
              "internalType": "address",
              "name": "lp",
              "type": "address"
            },
            {
              "internalType": "uint256",
              "name": "amount",
              "type": "uint256"
            },
            {
              "internalType": "uint256",
              "name": "poolId",
              "type": "uint256"
            },
            {
              "internalType": "uint256",
              "name": "dailyPayout",
              "type": "uint256"
            },
            {
              "internalType": "enum CoverLib.Status",
              "name": "status",
              "type": "uint8"
            },
            {
              "internalType": "uint256",
              "name": "daysLeft",
              "type": "uint256"
            },
            {
              "internalType": "uint256",
              "name": "startDate",
              "type": "uint256"
            },
            {
              "internalType": "uint256",
              "name": "withdrawalInitiated",
              "type": "uint256"
            },
            {
              "internalType": "uint256",
              "name": "accruedPayout",
              "type": "uint256"
            },
            {
              "internalType": "enum CoverLib.DepositType",
              "name": "pdt",
              "type": "uint8"
            }
          ],
          "internalType": "struct CoverLib.Deposits",
          "name": "",
          "type": "tuple"
        }
      ],
      "stateMutability": "view",
      "type": "function"
    },
    {
      "inputs": [],
      "name": "governance",
      "outputs": [
        {
          "internalType": "address",
          "name": "",
          "type": "address"
        }
      ],
      "stateMutability": "view",
      "type": "function"
    },
    {
      "inputs": [
        {
          "internalType": "uint256",
          "name": "_poolId",
          "type": "uint256"
        },
        {
          "internalType": "uint256",
          "name": "__poolPercentageSplit",
          "type": "uint256"
        }
      ],
      "name": "increasePercentageSplit",
      "outputs": [],
      "stateMutability": "nonpayable",
      "type": "function"
    },
    {
      "inputs": [],
      "name": "initialOwner",
      "outputs": [
        {
          "internalType": "address",
          "name": "",
          "type": "address"
        }
      ],
      "stateMutability": "view",
      "type": "function"
    },
    {
      "inputs": [
        {
          "internalType": "address",
          "name": "depositor",
          "type": "address"
        },
        {
          "internalType": "uint256",
          "name": "_poolId",
          "type": "uint256"
        },
        {
          "internalType": "enum CoverLib.DepositType",
          "name": "pdt",
          "type": "uint8"
        }
      ],
      "name": "initialVaultWithdrawUpdate",
      "outputs": [],
      "stateMutability": "nonpayable",
      "type": "function"
    },
    {
      "inputs": [],
      "name": "owner",
      "outputs": [
        {
          "internalType": "address",
          "name": "",
          "type": "address"
        }
      ],
      "stateMutability": "view",
      "type": "function"
    },
    {
      "inputs": [
        {
          "internalType": "uint256",
          "name": "",
          "type": "uint256"
        }
      ],
      "name": "participants",
      "outputs": [
        {
          "internalType": "address",
          "name": "",
          "type": "address"
        }
      ],
      "stateMutability": "view",
      "type": "function"
    },
    {
      "inputs": [
        {
          "internalType": "address",
          "name": "",
          "type": "address"
        }
      ],
      "name": "participation",
      "outputs": [
        {
          "internalType": "uint256",
          "name": "",
          "type": "uint256"
        }
      ],
      "stateMutability": "view",
      "type": "function"
    },
    {
      "inputs": [
        {
          "internalType": "uint256",
          "name": "poolId",
          "type": "uint256"
        }
      ],
      "name": "poolActive",
      "outputs": [
        {
          "internalType": "bool",
          "name": "",
          "type": "bool"
        }
      ],
      "stateMutability": "view",
      "type": "function"
    },
    {
      "inputs": [],
      "name": "poolCanister",
      "outputs": [
        {
          "internalType": "address",
          "name": "",
          "type": "address"
        }
      ],
      "stateMutability": "view",
      "type": "function"
    },
    {
      "inputs": [],
      "name": "poolCount",
      "outputs": [
        {
          "internalType": "uint256",
          "name": "",
          "type": "uint256"
        }
      ],
      "stateMutability": "view",
      "type": "function"
    },
    {
      "inputs": [
        {
          "internalType": "uint256",
          "name": "_poolId",
          "type": "uint256"
        }
      ],
      "name": "poolWithdrawal",
      "outputs": [],
      "stateMutability": "nonpayable",
      "type": "function"
    },
    {
      "inputs": [
        {
          "internalType": "uint256",
          "name": "",
          "type": "uint256"
        }
      ],
      "name": "pools",
      "outputs": [
        {
          "internalType": "uint256",
          "name": "id",
          "type": "uint256"
        },
        {
          "internalType": "string",
          "name": "poolName",
          "type": "string"
        },
        {
          "internalType": "string",
          "name": "rating",
          "type": "string"
        },
        {
          "internalType": "enum CoverLib.RiskType",
          "name": "riskType",
          "type": "uint8"
        },
        {
          "internalType": "uint256",
          "name": "apy",
          "type": "uint256"
        },
        {
          "internalType": "uint256",
          "name": "minPeriod",
          "type": "uint256"
        },
        {
          "internalType": "uint256",
          "name": "totalUnit",
          "type": "uint256"
        },
        {
          "internalType": "uint256",
          "name": "tvl",
          "type": "uint256"
        },
        {
          "internalType": "uint256",
          "name": "baseValue",
          "type": "uint256"
        },
        {
          "internalType": "uint256",
          "name": "coverUnits",
          "type": "uint256"
        },
        {
          "internalType": "uint256",
          "name": "tcp",
          "type": "uint256"
        },
        {
          "internalType": "bool",
          "name": "isActive",
          "type": "bool"
        },
        {
          "internalType": "uint256",
          "name": "percentageSplitBalance",
          "type": "uint256"
        },
        {
          "internalType": "uint256",
          "name": "investmentArmPercent",
          "type": "uint256"
        },
        {
          "internalType": "uint8",
          "name": "leverage",
          "type": "uint8"
        },
        {
          "internalType": "address",
          "name": "asset",
          "type": "address"
        },
        {
          "internalType": "enum CoverLib.AssetDepositType",
          "name": "assetType",
          "type": "uint8"
        }
      ],
      "stateMutability": "view",
      "type": "function"
    },
    {
      "inputs": [
        {
          "internalType": "uint256",
          "name": "_poolId",
          "type": "uint256"
        },
        {
          "internalType": "uint256",
          "name": "__poolPercentageSplit",
          "type": "uint256"
        }
      ],
      "name": "reducePercentageSplit",
      "outputs": [],
      "stateMutability": "nonpayable",
      "type": "function"
    },
    {
      "inputs": [],
      "name": "renounceOwnership",
      "outputs": [],
      "stateMutability": "nonpayable",
      "type": "function"
    },
    {
      "inputs": [
        {
          "internalType": "address",
          "name": "_coverContract",
          "type": "address"
        }
      ],
      "name": "setCover",
      "outputs": [],
      "stateMutability": "nonpayable",
      "type": "function"
    },
    {
      "inputs": [
        {
          "internalType": "address",
          "name": "_governance",
          "type": "address"
        }
      ],
      "name": "setGovernance",
      "outputs": [],
      "stateMutability": "nonpayable",
      "type": "function"
    },
    {
      "inputs": [
        {
          "internalType": "uint256",
          "name": "poolId",
          "type": "uint256"
        },
        {
          "internalType": "address",
          "name": "user",
          "type": "address"
        },
        {
          "internalType": "enum CoverLib.DepositType",
          "name": "pdt",
          "type": "uint8"
        }
      ],
      "name": "setUserDepositToZero",
      "outputs": [],
      "stateMutability": "nonpayable",
      "type": "function"
    },
    {
      "inputs": [
        {
          "internalType": "address",
          "name": "_vaultContract",
          "type": "address"
        }
      ],
      "name": "setVault",
      "outputs": [],
      "stateMutability": "nonpayable",
      "type": "function"
    },
    {
      "inputs": [
        {
          "internalType": "address",
          "name": "newOwner",
          "type": "address"
        }
      ],
      "name": "transferOwnership",
      "outputs": [],
      "stateMutability": "nonpayable",
      "type": "function"
    },
    {
      "inputs": [
        {
          "internalType": "uint256",
          "name": "_poolId",
          "type": "uint256"
        },
        {
          "internalType": "uint256",
          "name": "_apy",
          "type": "uint256"
        },
        {
          "internalType": "uint256",
          "name": "_minPeriod",
          "type": "uint256"
        }
      ],
      "name": "updatePool",
      "outputs": [],
      "stateMutability": "nonpayable",
      "type": "function"
    },
    {
      "inputs": [
        {
          "internalType": "uint256",
          "name": "_poolId",
          "type": "uint256"
        },
        {
          "components": [
            {
              "internalType": "uint256",
              "name": "id",
              "type": "uint256"
            },
            {
              "internalType": "string",
              "name": "coverName",
              "type": "string"
            },
            {
              "internalType": "enum CoverLib.RiskType",
              "name": "riskType",
              "type": "uint8"
            },
            {
              "internalType": "string",
              "name": "chains",
              "type": "string"
            },
            {
              "internalType": "uint256",
              "name": "capacity",
              "type": "uint256"
            },
            {
              "internalType": "uint256",
              "name": "capacityAmount",
              "type": "uint256"
            },
            {
              "internalType": "uint256",
              "name": "coverValues",
              "type": "uint256"
            },
            {
              "internalType": "uint256",
              "name": "maxAmount",
              "type": "uint256"
            },
            {
              "internalType": "uint256",
              "name": "poolId",
              "type": "uint256"
            },
            {
              "internalType": "string",
              "name": "CID",
              "type": "string"
            },
            {
              "internalType": "enum CoverLib.AssetDepositType",
              "name": "adt",
              "type": "uint8"
            },
            {
              "internalType": "address",
              "name": "asset",
              "type": "address"
            }
          ],
          "internalType": "struct CoverLib.Cover",
          "name": "_cover",
          "type": "tuple"
        }
      ],
      "name": "updatePoolCovers",
      "outputs": [],
      "stateMutability": "nonpayable",
      "type": "function"
    },
    {
      "inputs": [],
      "name": "vaultContract",
      "outputs": [
        {
          "internalType": "address",
          "name": "",
          "type": "address"
        }
      ],
      "stateMutability": "view",
      "type": "function"
    },
    {
      "inputs": [
        {
          "internalType": "uint256",
          "name": "_vaultId",
          "type": "uint256"
        }
      ],
      "name": "vaultWithdraw",
      "outputs": [],
      "stateMutability": "nonpayable",
      "type": "function"
    }
  ],
  "bytecode": "0x60803461027657601f615ccd38819003918201601f19168301916001600160401b0383118484101761027b57808492604094855283398101031261027657610052602061004b83610291565b9201610291565b60016000556001600160a01b0390911690811561026057600180546001600160a01b031981168417909155604051929081906001600160a01b03167f8be0079c531659141344cd1fd0a4f28419497f9722a3daafe3b4186f6b6457e0600080a3601180546001600160a01b031990811690915560158054821692909217909155600280548216732514895c72f50d8bd4b4f9b1110f0d6bd2c97526908117909155600380548316735741306c21795fdcbb9b265ea0255f499dfe515c908117909155600480548416739331b55d9830ef609a2abcfac0fbce050a52fdea17815560058054851673eca2605f0bcf2ba5966372c99837b1f182d3d62017815560066020527f54cdd369e4e8a8515e52ca72ec816c2101831ad1f18bf44102ed171459c9b4f8805486169094179093557f92599ef52398a38e84e5b15ac236af99994b80b5e390e5524198cbc8e48da63780548516831790556001600160a01b039485166000818152604081208054871690941790935590547fd1eceb50b46aea74f6b42453ba5381363a7854e4547ee8ff2fef30dd11f58cdd80548616918716919091179055915473337610d27c682e347c9cd60bd4b3b107c9d34ddd9091527f44abd9ca46b16d583f86aa1f838cb006ce9d3219783a65b570216ad498a2825a805484169190941617909255600f8054821683179055601080549091169091179055615a2790816102a68239f35b631e4fbdf760e01b600052600060045260246000fd5b600080fd5b634e487b7160e01b600052604160045260246000fd5b51906001600160a01b03821682036102765756fe6080604052600436101561001257600080fd5b60003560e01c806302266147146141ea578063068bcd8d146141b35780630c021ae514614162578063173c08cc146137275780632274346b146136fe578063248a75b7146136d557806324b38efe1461358057806325f11e8d1461354c57806329ba7bb214613523578063318667631461304357806334808ec31461301a57806335c1d34914612fd857806358526da314612ad05780635aa6e67514612aa75780635f267c5514612a7e5780636817031b146129a15780636d00696c146129065780636f60537d146128dd578063715018a6146128805780637c366cc6146127a35780637eb111f0146126705780638da5cb5b146126475780638f2446301461262157806396f3a8ad146125e7578063996b8a6f146125be5780639abd9b05146125335780639fd36b15146124d8578063a2a8baaf14611ff8578063a4948d8514611f99578063ab033ea914611eaa578063ac4afa3814611d49578063b5d90c2814611d20578063c039a53f14611c50578063d27e52e814611c0e578063d86c044414611ab6578063d88ff1f4146119aa578063e0375fc014611437578063e9e0c8b614611383578063f2fde38b146112f9578063f420907c14610e9f578063f525cb6814610e81578063f6e8055814610e58578063fb839dda146108d0578063fde076961461029e5763fee721ed1461020b57600080fd5b3461029957610219366144a4565b9060018060a01b036012541633148015610285575b61023790614b7d565b6000526008602052604060002090815491600160401b83101561026f578261026791600161026d95018155614bc8565b90614be4565b005b634e487b7160e01b600052604160045260246000fd5b506015546001600160a01b0316331461022e565b600080fd5b34610299576020366003190112610299576102b7615986565b600435600052600960205260406000206040516102d3816143d4565b81548152604051916102f3836102ec8160018501614655565b03846143f0565b602082019283526040516103158161030e8160028601614655565b03826143f0565b604083015260ff60038201541661032b8161427f565b60608301526004810154608083015260058101549160a08101928352600682015460c082015260ff600e60078401549360e0840194855260088101546101008501526009810154610120850152600a81015461014085015282600b820154161515610160850152600c810154610180850152600d8101546101a085015201548181166101c084015260018060a01b038160081c166101e084015260a81c166103d28161429f565b6102008201523360005260076020526040600020600435600052602052604060002060008052602052604060002092600684015490516201518081029080820462015180149015171561071f5761042891614b20565b9360018401549161043a831515615333565b6004850161046281549761045a60ff8a166104548161427f565b15615389565b4210156153cd565b426007870155600260009760ff19161790556104a36104858460c08401516148e0565b8060c0840152606461049c826101a08601516146ef565b04906148e0565b6104b560ff6101c084015116826146ef565b61012083015261010082015260043586526008602052604086209384546104db81614b66565b956104e960405197886143f0565b81875288526020808920899188015b8383106107ef5750505050865b855181101561058657600c548891906001600160a01b03166105278289614b52565b515190803b156105825760248492604051958693849263106b5da160e01b845260048401525af19189831561057657600193610566575b505001610505565b61056f916143f0565b898961055e565b604051903d90823e3d90fd5b8380fd5b5085876101608401511515806107d2575b1561073557506011546105b2906001600160a01b0316614702565b906012925b60c0850151936012036012811161071f576105ec6001946105e66000976105e6670de0b6b3a7640000956148ed565b906146ef565b049052015560016102008201516106028161429f565b61060b8161429f565b036106ec576101e0015160405163a9059cbb60e01b81523360048201526024810184905290602090829060449082906000906001600160a01b03165af19081156106e05760009161068d575b506000805160206159d28339815191529161067461068392615942565b51604051918291339583615419565b0390a26001600055005b90506020813d6020116106d8575b816106a8602093836143f0565b81010312610299576000805160206159d2833981519152916106746106cf61068393614b2d565b92505091610657565b3d915061069b565b6040513d6000823e3d90fd5b506106836000805160206159d28339815191529161071a600080808088335af16107146158c6565b506158f6565b610674565b634e487b7160e01b600052601160045260246000fd5b90600461074e60018060a01b036101e087015116614702565b6101e086015160405163313ce56760e01b81529194919260209184919082906001600160a01b03165afa908115610576578091610792575b5060ff915016926105b7565b90506020823d6020116107ca575b816107ad602093836143f0565b810103126107c757506107c160ff916148d2565b88610786565b80fd5b3d91506107a0565b506101e08401516011546001600160a01b03908116911614610597565b600b6020600192604051610802816143b8565b855481526040516108198161030e81898b01614655565b8382015260ff60028701541661082e8161427f565b60408201526040516108478161030e8160038b01614655565b606082015260048601546080820152600586015460a0820152600686015460c0820152600786015460e082015260088601546101008201526040516108938161030e8160098b01614655565b610120820152600a86015460ff81166108ab8161429f565b610140830152858060a01b039060081c166101608201528152019201920191906104f8565b34610299576020366003190112610299576004356108ec615986565b600d54604051632bb2b24360e11b815260048101839052336024820152906001600160a01b03166101a082604481845afa9182156106e057600092610e27575b506020820191825115610de25760a060029101516109498161427f565b6109528161427f565b03610d9157600060249160405192838092632500ed8d60e21b82528760048301525afa9081156106e057600091610aac575b5060016101208201516109968161429f565b61099f8161429f565b03610a91576101400151905160405163a9059cbb60e01b8152336004820152602481019190915290602090829060449082906000906001600160a01b03165af180156106e057600090610a56575b6109f79150615942565b600d546001600160a01b0316803b15610299576040516307e2f9cf60e21b815260048101839052336024820152906000908290604490829084905af180156106e057610a45575b6001600055005b6000610a50916143f0565b80610a3e565b506020813d602011610a89575b81610a70602093836143f0565b8101031261029957610a846109f791614b2d565b6109ed565b3d9150610a63565b506000808080610aa79451335af16107146158c6565b6109f7565b903d8082843e610abc81846143f0565b820191602081840312610d8d578051906001600160401b038211610d75570190610160828403126107c7576040519261016084018481106001600160401b03821117610d79576040528251845260208301516001600160401b038111610d755781610b28918501615884565b602085015260408301516003811015610d7557604085015260608301516001600160401b038111610d755783019080601f83011215610d7557815191610b6d83614b66565b92610b7b60405194856143f0565b80845260208085019160051b83010191838311610d715760208101915b838310610c0d57505050505060608401526080820151608084015260a082015160a084015260c082015160c084015260e082015160e08401526101008201516101008401526101208201519060028210156107c75750610120830152610c019061014001615799565b61014082015283610984565b82516001600160401b038111610d6d578201610220818703601f190112610d6d5760405190610c3b826143d4565b6020810151825260408101516001600160401b038111610d6957876020610c6492840101615884565b602083015260608101516001600160401b038111610d6957876020610c8b92840101615884565b604083015260808101516003811015610d69579061022091606084015260a0810151608084015260c081015160a084015260e081015160c084015261010081015160e0840152610120810151610100840152610140810151610120840152610160810151610140840152610d026101808201614b2d565b6101608401526101a08101516101808401526101c08101516101a0840152610d2d6101e082016148d2565b6101c0840152610d406102008201615799565b6101e084015201516002811015610d6557610200820152815260209283019201610b98565b8880fd5b8980fd5b8780fd5b8580fd5b8280fd5b634e487b7160e01b83526041600452602483fd5b5080fd5b60405162461bcd60e51b8152602060048201526024808201527f4465706f736974206973206e6f7420726561647920666f72207769746864726160448201526377616c7360e01b6064820152608490fd5b60405162461bcd60e51b815260206004820152601d60248201527f4e6f20616374697665207769746864726177616c20666f7220757365720000006044820152606490fd5b610e4a9192506101a03d8111610e51575b610e4281836143f0565b8101906157ad565b908361092c565b503d610e38565b3461029957600036600319011261029957600c546040516001600160a01b039091168152602090f35b34610299576000366003190112610299576020600a54604051908152f35b3461029957602036600319011261029957610eb861420d565b6000906001600a54905b818111156110b7575050600d546040516374d4e49160e01b815291906001600160a01b0316602083600481845afa9283156106e057600093611083575b5060015b83811115610f1657602085604051908152f35b604051632bb2b24360e11b8152600481018290526001600160a01b03841660248201526101a081604481865afa9081156106e057600091611064575b5060208101519081610f6f575b5050610f6a90614b11565b610f03565b610180018051601154939792939192916001600160a01b039081169160009116828103610fe1575050610fa3919250614702565b9060125b6012036012811161071f57610fd2610fd9936105e6610f6a966105e6670de0b6b3a7640000956148ed565b0490614b20565b949086610f5f565b60049250610ff0602091614702565b945160405163313ce56760e01b815293849182906001600160a01b03165afa908115610576578091611028575b5060ff915016610fa7565b90506020823d821161105c575b81611042602093836143f0565b810103126107c7575061105660ff916148d2565b8961101d565b3d9150611035565b61107d91506101a03d8111610e5157610e4281836143f0565b86610f52565b9092506020813d6020116110af575b8161109f602093836143f0565b8101031261029957519184610eff565b3d9150611092565b60206110c38483615433565b0180516110da575b506110d590614b11565b610ec2565b816000959295526009602052604060002091604051916110f9836143d4565b835483526040516111118161030e8160018901614655565b602084015260405161112a8161030e8160028901614655565b604084015260ff6003850154166111408161427f565b606084015260048401546080840152600584015460a0840152600684015460c0840152600784015460e084015260088401546101008401526009840154610120840152600a840154610140840152600e60ff600b860154169461016085019515158652600c810154610180860152600d8101546101a086015201549260ff84166101c082015261020060ff6101e083019560018060a01b038160081c16875260a81c16916111ed8361429f565b01525192600090511515806112e0575b15611251575060115490915061121b906001600160a01b0316614702565b9060125b6012036012811161071f57610fd261124a936105e66110d5966105e6670de0b6b3a7640000956148ed565b93906110cb565b82516004919060209061126c906001600160a01b0316614702565b945160405163313ce56760e01b815293849182906001600160a01b03165afa9081156105765780916112a4575b5060ff91501661121f565b90506020823d82116112d8575b816112be602093836143f0565b810103126107c757506112d260ff916148d2565b88611299565b3d91506112b1565b5082516011546001600160a01b039081169116146111fd565b346102995760203660031901126102995761131261420d565b61131a6159a8565b6001600160a01b0316801561136d57600180546001600160a01b0319811683179091556001600160a01b03167f8be0079c531659141344cd1fd0a4f28419497f9722a3daafe3b4186f6b6457e0600080a3005b631e4fbdf760e01b600052600060045260246000fd5b34610299576040366003190112610299576024356001600160a01b0381168103610299576113b661014091600435615433565b6101206040519160018060a01b03815116835260208101516020840152604081015160408401526060810151606084015260808101516113f58161427f565b608084015260a081015160a084015260c081015160c084015260e081015160e0840152610100810151610100840152015161142f8161429f565b610120820152f35b346102995760603660031901126102995761145061420d565b60243560443591600283101561029957611468615986565b6013546001600160a01b031633148015611996575b15611952578160005260096020526040600020926040519261149e846143d4565b845484526040516114b68161030e8160018a01614655565b602085019081526040516114d18161030e8160028b01614655565b604086015260ff6003870154166114e78161427f565b606086015260048601546080860152600586015460a0860190815260068701549260c0870193845260078801549060e08801918252600889015497610100810198895260098a0154986101208201998a52600a8b015461014083015260ff600b8c0154169961016083019a15158b52600c8c0154610180840152600e600d8d01549c6101a085019d8e520154996101c084019360ff8c16855261020060ff6101e083019d8e60018060a01b038260081c16905260a81c16916115a88361429f565b015260018060a01b0316988960005260076020526040600020856000526020526040600020906115d78161429f565b600052602052604060002095600687015490516201518081029080820462015180149015171561071f5761160a91614b20565b9b600187019687549d8e151561161f90615333565b600482019182549160ff83166116348161427f565b1561163e90615389565b42101561164a906153cd565b42906007015560ff1916600217905560009c895190611668916148e0565b8091818b525190611678916146ef565b60649004611685916148e0565b925160ff1661169490846146ef565b90525288526008602052604088209586546116ae81614b66565b97604051986116bd908a6143f0565b8189528a526020808b208b918a015b8383106118715750505050885b875181101561174a57600c548a91906001600160a01b03166116fb828b614b52565b515190803b156105825760248492604051958693849263106b5da160e01b845260048401525af1918b83156105765760019361173a575b5050016116d9565b611743916143f0565b8b8b611732565b50888851151580611858575b156117c4575050601154611772906001600160a01b0316614702565b936012905b5190601203906012821161071f576000805160206159d2833981519152956105e66117ae926105e6670de0b6b3a7640000956148ed565b0490525490519061068360405192839283615419565b8151919591600491906020906117e2906001600160a01b0316614702565b975160405163313ce56760e01b815293849182906001600160a01b03165afa90811561057657809161181b575b5060ff91501690611777565b90506020823d602011611850575b81611836602093836143f0565b810103126107c7575061184a60ff916148d2565b8861180f565b3d9150611829565b5081516011546001600160a01b03908116911614611756565b600b6020600192604051611884816143b8565b8554815260405161189b8161030e81898b01614655565b8382015260ff6002870154166118b08161427f565b60408201526040516118c98161030e8160038b01614655565b606082015260048601546080820152600586015460a0820152600686015460c0820152600786015460e082015260088601546101008201526040516119158161030e8160098b01614655565b610120820152600a86015460ff811661192d8161429f565b610140830152858060a01b039060081c166101608201528152019201920191906116cc565b606460405162461bcd60e51b815260206004820152602060248201527f43616c6c6572206973206e6f7420746865207661756c7420636f6e74726163746044820152fd5b506015546001600160a01b0316331461147d565b3461029957600036600319011261029957600a546119c781614b66565b906119d560405192836143f0565b808252601f196119e482614b66565b0160005b818110611a9f57505060015b81811115611a6457826040518091602082016020835281518091526040830190602060408260051b8601019301916000905b828210611a3557505050500390f35b91936001919395506020611a548192603f198a820301865288516142a9565b9601920192018594939192611a26565b611a6d816148fb565b6000198201919081831161071f5782611a9491611a8d611a9a9588614b52565b5285614b52565b50614b11565b6119f4565b602090611aaa614854565b828287010152016119e8565b3461029957606036600319011261029957600435602435604435611ad86159a8565b82600052600960205260ff600b604060002001541615611bbe578115611b8b578015611b4d576000838152600960209081526040918290206004810185905560050183905581519384528301919091527f17b8644f386d1c7c7138ef98b3c8035622bbe94d7be9b26f71d2654a547c294391a2005b60405162461bcd60e51b8152602060048201526016602482015275125b9d985b1a59081b5a5b9a5b5d5b481c195c9a5bd960521b6044820152606490fd5b60405162461bcd60e51b815260206004820152600b60248201526a496e76616c69642041505960a81b6044820152606490fd5b60405162461bcd60e51b815260206004820152602260248201527f506f6f6c20646f6573206e6f74206578697374206f7220697320696e61637469604482015261766560f01b6064820152608490fd5b34610299576020366003190112610299576001600160a01b03611c2f61420d565b166000526006602052602060018060a01b0360406000205416604051908152f35b3461029957611c5e366145e8565b9190611c68615986565b6014546001600160a01b031633148015611d0c575b15611cc75760018060a01b03166000526007602052604060002090600052602052604060002090611cad8161429f565b600052602052600060016040822001556001600055600080f35b60405162461bcd60e51b815260206004820152601f60248201527f43616c6c6572206973206e6f742074686520706f6f6c2063616e6973746572006044820152606490fd5b506015546001600160a01b03163314611c7d565b3461029957600036600319011261029957600e546040516001600160a01b039091168152602090f35b3461029957602036600319011261029957600435600052600960205260406000208054906040519081806001830190611d8191614655565b03611d8c90836143f0565b60405180611d9d8160028501614655565b03611da890826143f0565b600382015460ff169160048101546005820154600683015460078401546008850154600986015491600a87015493600b88015460ff1695600c89015497600d8a015499600e01549a6040519e8f9e8f9182526020820161022090526102208201611e119161425a565b908082039060400152611e239161425a565b9b8d611e2e8261427f565b6060015260808d015260a08c015260c08b015260e08a015261010089015261012088015261014087015215156101608601526101808501526101a084015260ff8181166101c0850152600882901c6001600160a01b03166101e0850152611e9a9060a883901c1661429f565b60a81c60ff166102008301520390f35b3461029957602036600319011261029957611ec361420d565b611ecb6159a8565b600b54906001600160a01b038216611f5b576001600160a01b0316908115611f0c576001600160a01b03199081168217600b55600e80549091169091179055005b60405162461bcd60e51b815260206004820152602160248201527f476f7665726e616e636520616464726573732063616e6e6f74206265207a65726044820152606f60f81b6064820152608490fd5b60405162461bcd60e51b815260206004820152601660248201527511dbdd995c9b985b98d948185b1c9958591e481cd95d60521b6044820152606490fd5b3461029957611fa7366145d2565b9060018060a01b036012541633148015611fe4575b611fc590614b7d565b6000526009602052611fe0600c6040600020019182546148e0565b9055005b506015546001600160a01b03163314611fbc565b3461029957612006366145e8565b6000610160604051612017816143b8565b8281528260208201528260408201528260608201528260808201528260a08201528260c08201528260e0820152826101008201528261012082015282610140820152015260018060a01b03821660005260076020526040600020836000526020526040600020906120878161429f565b60005260205260406000206040519261209f8461439c565b60018060a01b0382541684526001820154926020850193845260028301549260408601938452856003820154916060820192835260ff60048201541660808301906120e98161427f565b8152600582015460a0840190815260068301549160c0850192835260ff600960078601549560e0880196875261010060088201549801978852015416956101208c01966121358161429f565b8752886000526009602052604060002097604051986121538a6143d4565b80548a5260405161216b8161030e8160018601614655565b60208b01526040516121848161030e8160028601614655565b60408b015260ff60038201541661219a8161427f565b60608b0152600481015460808b0152600e60058201549160a08c01928352600681015460c08d0152600781015460e08d015260088101546101008d015260098101546101208d0152600a8101546101408d015260ff600b8201541615156101608d0152600c8101546101808d0152600d8101546101a08d015201549a60ff8c166101c08c015261020060ff6101e08d019d8e60018060a01b038260081c16905260a81c169b019a61224a8161429f565b8b5286519151906201518082029180830462015180149015171561071f576122776020926122b494614b20565b600c54604051630414960560e21b81526001600160a01b039687166004820152602481019390935290949193849290911690829081906044820190565b03915afa9081156106e0576000916124a6575b50806124965750612301620151806122f987515b4287516122e78161427f565b6122f08161427f565b61248e576148e0565b0483516146ef565b875242811161245857506101809b600084525b519a519951905191516001600160a01b03909b169a926123338461427f565b519351945195519651976123468961429f565b51986123518a61429f565b516040519b6001600160a01b039091169a9061236c8d6143b8565b8c5260208c0190815260408c0191825260608c0192835260808c01936123918161427f565b845260a08c0194855260c08c0195865260e08c019687526101008c019788526101208c01986123bf8161429f565b89526101408c01996123d08161429f565b8a526101608c019a8b52604080519c516001600160a01b03168d52905160208d01529051908b01525160608a0152516124088161427f565b60808901525160a08801525160c08701525160e086015251610100850152516124308161429f565b610120840152516124408161429f565b610140830152516001600160a01b0316610160820152f35b6124639042906148e0565b9b620151808d019c8d811161071f576201517f019c8d1161071f57620151806101809d048452612314565b5089516148e0565b620151806122f9612301926122db565b906020823d6020116124d0575b816124c0602093836143f0565b810103126107c75750518e6122c7565b3d91506124b3565b34610299576124e6366145d2565b9060018060a01b03601254163314801561251f575b61250490614b7d565b6000526009602052611fe0600c604060002001918254614b20565b506015546001600160a01b031633146124fb565b346102995760203660031901126102995760043561254f6159a8565b80600052600960205260ff600b604060002001541615612584576000908152600960205260409020600b01805460ff19169055005b60405162461bcd60e51b8152602060048201526012602482015271506f6f6c206973206e6f742061637469766560701b6044820152606490fd5b34610299576000366003190112610299576010546040516001600160a01b039091168152602090f35b34610299576020366003190112610299576001600160a01b0361260861420d565b1660005260176020526020604060002054604051908152f35b3461029957602036600319011261029957602061263f60043561512b565b604051908152f35b34610299576000366003190112610299576001546040516001600160a01b039091168152602090f35b346102995760203660031901126102995761268c600435615002565b6040518091602082016020835281518091526040830190602060408260051b8601019301916000905b8282106126c457505050500390f35b919360019193955060208091603f198982030185528751908151815261016061276f612727612702868601516101808887015261018086019061425a565b60408601516127108161427f565b60408601526060860151858203606087015261425a565b6080850151608085015260a085015160a085015260c085015160c085015260e085015160e085015261010085015161010085015261012085015184820361012086015261425a565b9261014081015161277f8161429f565b61014084015281878060a01b039101511691015296019201920185949391926126b5565b34610299576020366003190112610299576127bc61420d565b6127c46159a8565b601254906001600160a01b038216612847576001600160a01b031690811561280257600c80546001600160a01b031990811684179091551617601255005b60405162461bcd60e51b815260206004820152601c60248201527f436f76657220616464726573732063616e6e6f74206265207a65726f000000006044820152606490fd5b60405162461bcd60e51b815260206004820152601160248201527010dbdd995c88185b1c9958591e481cd95d607a1b6044820152606490fd5b34610299576000366003190112610299576128996159a8565b600180546001600160a01b031981169091556000906001600160a01b03167f8be0079c531659141344cd1fd0a4f28419497f9722a3daafe3b4186f6b6457e08280a3005b3461029957600036600319011261029957600d546040516001600160a01b039091168152602090f35b3461029957612914366144a4565b6012546001600160a01b03163314801561298d575b61293290614b7d565b60005b82600052600860205260406000205481101561026d57826000526008602052612962816040600020614bc8565b505482511461297357600101612935565b6102679061026d9360005260086020526040600020614bc8565b506015546001600160a01b03163314612929565b34610299576020366003190112610299576129ba61420d565b6129c26159a8565b601354906001600160a01b038216612a45576001600160a01b0316908115612a0057600d80546001600160a01b031990811684179091551617601355005b60405162461bcd60e51b815260206004820152601c60248201527f5661756c7420616464726573732063616e6e6f74206265207a65726f000000006044820152606490fd5b60405162461bcd60e51b815260206004820152601160248201527015985d5b1d08185b1c9958591e481cd95d607a1b6044820152606490fd5b34610299576000366003190112610299576014546040516001600160a01b039091168152602090f35b3461029957600036600319011261029957600b546040516001600160a01b039091168152602090f35b34610299576020366003190112610299576004356001600160401b0381116102995761014060031982360301126102995760405190612b0e8261439c565b8060040135825260248101356003811015610299576020830190815260448201356001600160401b03811161029957612b4d906004369185010161445d565b926040810193845260648301356001600160401b03811161029957612b78906004369186010161445d565b6060820190815260808201926084850135845260a0830160a4860135815260c48601359160ff831683036102995760c0850192835260e085019160e4880135835261010488013597600289101561029957610124612bde9161010089019a8b5201614223565b966101208701978852612bef6159a8565b8851612bfa8161429f565b612c038161429f565b158015612fc5575b15612f8057600a546001810180911161071f57600a5586516000526009602052604060002095875187558a5160018801908051906001600160401b03821161026f578190612c59845461461b565b601f8111612f2d575b50602090601f8311600114612ec857600092612ebd575b50508160011b916000199060031b1c19161790555b51805160028801916001600160401b03821161026f57612cae835461461b565b601f8111612e75575b50602090601f8311600114612e04579180612d3a96949260ff99989694600092612df9575b50508160011b916000199060031b1c19161790555b51600488015560006006880155516005870155600060078701556000600987015560006008870155600b86016001851982541617905551612d318161427f565b60038601614b3a565b519182600d850155511693600e830191825490606403956064871161071f577ff01906dc0ac306fa816e50166a7ed46af1f05721cb90cea30beebdd8dede3a6d97612df497600c612ddd97015551612d918161429f565b612d9a8161429f565b9251610100600160a81b0360089190911b1660ff60a81b60a89490941b939093166001600160b01b031992909216610100600160a81b0319919091161717179055565b51925160405191829160208352602083019061425a565b0390a2005b015190508f80612cdc565b90601f1983169184600052816000209260005b818110612e5d575092600192859260ff9b9a9896612d3a9a989610612e44575b505050811b019055612cf1565b015160001960f88460031b161c191690558f8080612e37565b92936020600181928786015181550195019301612e17565b836000526020600020601f840160051c81019160208510612eb3575b601f0160051c01905b818110612ea75750612cb7565b60008155600101612e9a565b9091508190612e91565b015190508e80612c79565b60008581528281209350601f198516905b818110612f155750908460019594939210612efc575b505050811b019055612c8e565b015160001960f88460031b161c191690558e8080612eef565b92936020600181928786015181550195019301612ed9565b909150836000526020600020601f840160051c81019160208510612f76575b90601f859493920160051c01905b818110612f675750612c62565b60008155849350600101612f5a565b9091508190612f4c565b60405162461bcd60e51b815260206004820152601760248201527f57726f6e6720417373657420666f72204465706f7369740000000000000000006044820152606490fd5b5087516001600160a01b03161515612c0b565b346102995760203660031901126102995760043560165481101561029957613001602091614411565b905460405160039290921b1c6001600160a01b03168152f35b3461029957600036600319011261029957600f546040516001600160a01b039091168152602090f35b346102995760203660031901126102995761305c61420d565b600a54600091906001600160a01b03821660015b828111156134cb575061308284614b66565b9361309060405195866143f0565b80855261309f601f1991614b66565b0160005b818110613456575050600c546001600160a01b03169260009060015b848111156131c557866040518091602082016020835281518091526040830190602060408260051b8601019301916000905b82821061310057505050500390f35b919360019193955060208091603f19898203018552875190610160806131446131348551610180865261018086019061425a565b868601518582038887015261425a565b9360408101516131538161427f565b6040850152606081015160608501526080810151608085015260a081015160a085015260c081015160c085015260e081015160e08501526101008101516101008501526101208101516101208501526101408101511515610140850152015191015296019201920185949391926130f1565b806000526009602052604060002084600052600760205260406000208260005260205260406000206000805260205260406000206040516132058161439c565b60018060a01b038254168152600182015460208201526002820154604082015261012060ff600960038501549460608501958652826004820154166132498161427f565b6080860152600581015460a0860152600681015460c0860152600781015460e08601526008810154610100860152015416916132848361429f565b01526040516339e671f760e11b81526001600160a01b0385166004820152602481018490526020816044818c5afa9081156106e057600091613423575b506132cc91516146ef565b85600052600760205260406000208360005260205260406000206000805260205260016040600020015461330b575b505061330690614b11565b6130bf565b600382810154600088815260076020908152604080832088845282528083208380529091529081902092830154600190930154600486015460058701546006880154600a890154600b8a015495519c9960ff9687169891979296939593919291909116906133788e6143b8565b6040518e8161338a8160018601614655565b0361339590836143f0565b528d604051806002819401906133aa91614655565b036133b590836143f0565b602001526133c28161427f565b60408d01528960608d015260808c015260a08b015260c08a015260e089015261010088015261012087015215156101408601526101608501528061340590614b11565b93613410828a614b52565b5261341b9088614b52565b5087806132fb565b906020823d821161344e575b8161343c602093836143f0565b810103126107c75750516132cc6132c1565b3d915061342f565b602090604095949551613468816143b8565b60608152606083820152600060408201526000606082015260006080820152600060a0820152600060c0820152600060e08201526000610100820152600061012082015260006101408201526000610160820152828289010152019392936130a3565b81600094939452600760205260406000208160005260205260406000206000805260205260016040600020015461350e575b61350690614b11565b929192613070565b9361351b61350691614b11565b9490506134fd565b34610299576000366003190112610299576015546040516001600160a01b039091168152602090f35b34610299576020366003190112610299576004356000526009602052602060ff600b60406000200154166040519015158152f35b346102995760203660031901126102995761359961420d565b600f546040516370a0823160e01b81526001600160a01b038381166004830152909160209183916024918391165afa9081156106e0576000916136a3575b506010546001600160a01b031691600460206135f285614702565b946040519283809263313ce56760e01b82525afa80156106e057600090613669575b60ff915016601203916012831161071f57613663670de0b6b3a76400006136486020966105e683956105e661263f996148ed565b04923161365e60018060a01b0360115416614702565b6146ef565b04614b20565b506020813d60201161369b575b81613683602093836143f0565b810103126102995761369660ff916148d2565b613614565b3d9150613676565b90506020813d6020116136cd575b816136be602093836143f0565b810103126102995751826135d7565b3d91506136b1565b34610299576000366003190112610299576012546040516001600160a01b039091168152602090f35b34610299576000366003190112610299576013546040516001600160a01b039091168152602090f35b60c036600319011261029957604051600060c082016001600160401b0381118382101761414e5760405261375961420d565b825260208201916024358352604081016044358152606435936002851015610582576060830194855260843594600286101561414a576080840195865260a435926001600160a01b0384168403610d715760a085019384526137b9615986565b825186526009602052604086209360ff600b86015416156140fa57600e850197885460ff8160a81c1691516137ed8161429f565b6137f68161429f565b6137ff8361429f565b82036140a65782516001600160a01b0390811660089290921c16036140615760019061382a8161429f565b03613fec57815115613fa75751855182516040516323b872dd60e01b81526001600160a01b039283166004820152306024820152604481019190915291602091839160649183918c91165af1908115613f9c578791613f5e575b5015613f2157805161389b60068601918254614b20565b90558051875460081c6001600160a01b031697600460206138bb8b614702565b9a6040519283809263313ce56760e01b82525afa8015613f16578990613edc575b60ff915016905b600d61391260ff61390960646139028c600681015496879101546146ef565b04846148e0565b935416836146ef565b9260120360128111613ec8578a9b6105e6670de0b6b3a7640000936105e661393c949e9d9e6148ed565b049160098801556008870155600786015560018060a01b038751168652600760205260408620845187526020526040862083516139788161429f565b6139818161429f565b8752602052604086206001015415613db0576139e0613b3d9160018060a01b038951168852600760205260408820865189526020526040882085516139c58161429f565b6139ce8161429f565b89526020526001604089200154614b20565b9361016d60646139f46004890154886146ef565b040493600960018060a01b038a51168351928b60058b015494825195613a198761429f565b60405194613a268661439c565b85528d60208601928d845260408701908152606087018d8152608088019183835260a0890194855260c08901954287528c60e08b0198868a526101008c019a878c526101208d019e8f613a788261429f565b5251613a838161429f565b613a8c8161429f565b613d0957516001600160a01b039081168752600760209081526040808920935189529281528288208880529052952099518a546001600160a01b031916951694909417895592516001890155915160028801559051600387015551613afd90613af48161427f565b60048701614b3a565b516005850155516006840155516007830155516008820155019051613b218161429f565b613b2a8161429f565b60ff801983541691161790555b51615002565b93855b8551811015613bbb57600c546001600160a01b031690613b608188614b52565b5151823b15610d6557889260248492604051958693849263106b5da160e01b845260048401525af1918215613bb05788600193613ba0575b505001613b40565b613ba9916143f0565b8a88613b98565b6040513d8a823e3d90fd5b50601654869550879086805b828110613cd1575b5015613c71575b5080516001600160a01b0316865260176020526040862080546001810191908210613c5d5792600194927f6f85d9948d6ca3dd6ce6ce7d175da22b4e865827ae6fcd530ec7edac1240f928926040999555858060a01b039051169251613c4d895192839283528a6020840152878b84019101614655565b0390a25582519182526020820152f35b634e487b7160e01b88526011600452602488fd5b81516001600160a01b031690600160401b811015613cbd57806001613c999201601655614411565b81546001600160a01b0360039290921b91821b191692901b91909117905586613bd6565b634e487b7160e01b88526041600452602488fd5b613cda81614411565b9054855160039290921b1c6001600160a01b03908116911614613cff57600101613bc7565b5050600188613bcf565b516001600160a01b039081168752600760209081526040808920935189529281528288206001808a529152919096209a518b546001600160a01b0319169616959095178a555193890193909355915160028801559051600387015551613d7290613af48161427f565b516005850155516006840155516007830155516008820155019051613d968161429f565b613d9f8161429f565b60ff80198354169116179055613b37565b92613b3d9061016d6064613dc86004890154886146ef565b040493600960018060a01b038a51168351928b60058b015494825195613ded8761429f565b60405194613dfa8661439c565b85528d60208601928d845260408701908152606087018d8152608088019183835260a0890194855260c08901954287528c60e08b0198868a526101008c019a878c526101208d019e8f613e4c8261429f565b5251613e578161429f565b613e608161429f565b613d0957516001600160a01b039081168752600760209081526040808920935189529281528288208880529052952099518a546001600160a01b031916951694909417895592516001890155915160028801559051600387015551613d7290613af48161427f565b634e487b7160e01b8b52601160045260248bfd5b506020813d602011613f0e575b81613ef6602093836143f0565b81010312610d6557613f0960ff916148d2565b6138dc565b3d9150613ee9565b6040513d8b823e3d90fd5b60405162461bcd60e51b8152602060048201526015602482015274151bdad95b881d1c985b9cd9995c8819985a5b1959605a1b6044820152606490fd5b90506020813d602011613f94575b81613f79602093836143f0565b81010312613f9057613f8a90614b2d565b88613884565b8680fd5b3d9150613f6c565b6040513d89823e3d90fd5b60405162461bcd60e51b815260206004820152601d60248201527f416d6f756e74206d7573742062652067726561746572207468616e20300000006044820152606490fd5b50341561402357601154614008906001600160a01b0316614702565b9660126006860161401a348254614b20565b905534916138e3565b60405162461bcd60e51b81526020600482015260166024820152754465706f7369742063616e6e6f74206265207a65726f60501b6044820152606490fd5b60405162461bcd60e51b815260206004820152601f60248201527f506f6f6c20646f6573206e6f74206163636570742074686973206173736574006044820152606490fd5b60405162461bcd60e51b815260206004820152602660248201527f506f6f6c20646f6573206e6f74206163636570742074686973206465706f736960448201526574207479706560d01b6064820152608490fd5b60405162461bcd60e51b815260206004820152602260248201527f506f6f6c20697320696e616374697665206f7220646f6573206e6f74206578696044820152611cdd60f21b6064820152608490fd5b8480fd5b634e487b7160e01b82526041600452602482fd5b34610299576000366003190112610299576000600190600a545b8083111561418f57602082604051908152f35b906141a66141ac916141a08561512b565b90614b20565b92614b11565b919061417c565b34610299576020366003190112610299576141e66141d26004356148fb565b6040519182916020835260208301906142a9565b0390f35b3461029957602036600319011261029957602061263f61420861420d565b614702565b600435906001600160a01b038216820361029957565b35906001600160a01b038216820361029957565b60005b83811061424a5750506000910152565b818101518382015260200161423a565b9060209161427381518092818552858086019101614237565b601f01601f1916010190565b6003111561428957565b634e487b7160e01b600052602160045260246000fd5b6002111561428957565b9081518152610200806142e26142d06020860151610220602087015261022086019061425a565b6040860151858203604087015261425a565b9360608101516142f18161427f565b60608501526080810151608085015260a081015160a085015260c081015160c085015260e081015160e085015261010081015161010085015261012081015161012085015261014081015161014085015261016081015115156101608501526101808101516101808501526101a08101516101a085015260ff6101c0820151166101c085015260018060a01b036101e0820151166101e08501520151916143978361429f565b015290565b61014081019081106001600160401b0382111761026f57604052565b61018081019081106001600160401b0382111761026f57604052565b61022081019081106001600160401b0382111761026f57604052565b90601f801991011681019081106001600160401b0382111761026f57604052565b60165481101561442c57601660005260206000200190600090565b634e487b7160e01b600052603260045260246000fd5b6001600160401b03811161026f57601f01601f191660200190565b81601f820112156102995780359061447482614442565b9261448260405194856143f0565b8284526020838301011161029957816000926020809301838601378301015290565b90604060031983011261029957600435916024356001600160401b03811161029957610180818303600319011261029957604051916144e2836143b8565b8160040135835260248201356001600160401b0381116102995781600461450b9285010161445d565b60208401526044820135600381101561029957604084015260648201356001600160401b038111610299578160046145459285010161445d565b60608401526084820135608084015260a482013560a084015260c482013560c084015260e482013560e0840152610104820135610100840152610124820135906001600160401b0382116102995760046145a19284010161445d565b6101208301526101448101356002811015610299576101408301526145c99061016401614223565b61016082015290565b6040906003190112610299576004359060243590565b606090600319011261029957600435906024356001600160a01b0381168103610299579060443560028110156102995790565b90600182811c9216801561464b575b602083101461463557565b634e487b7160e01b600052602260045260246000fd5b91607f169161462a565b600092918154916146658361461b565b80835292600181169081156146bb575060011461468157505050565b60009081526020812093945091925b8383106146a1575060209250010190565b600181602092949394548385870101520191019190614690565b915050602093945060ff929192191683830152151560051b010190565b519069ffffffffffffffffffff8216820361029957565b8181029291811591840414171561071f57565b6001600160a01b039081166000908152600660205260409020541680156148045760a060049160405192838092633fabe5a360e21b82525afa9081156106e0576000916147b7575b506000811315614772576402540be4008102908082046402540be400149015171561071f5790565b60405162461bcd60e51b815260206004820152601960248201527f496e76616c69642070726963652066726f6d206f7261636c65000000000000006044820152606490fd5b9060a0823d60a0116147fc575b816147d160a093836143f0565b810103126107c757506147e3816146d8565b506147f56080602083015192016146d8565b503861474a565b3d91506147c4565b60405162461bcd60e51b815260206004820152602260248201527f50726963652066656564206e6f7420617661696c61626c6520666f7220617373604482015261195d60f21b6064820152608490fd5b60405190614861826143d4565b60006102008382815260606020820152606060408201528260608201528260808201528260a08201528260c08201528260e08201528261010082015282610120820152826101408201528261016082015282610180820152826101a0820152826101c0820152826101e08201520152565b519060ff8216820361029957565b9190820391821161071f57565b604d811161071f57600a0a90565b614903614854565b50600052600960205260406000206040519061491e826143d4565b805482526040516149368161030e8160018601614655565b602083015260405161494f8161030e8160028601614655565b604083015260ff6003820154166149658161427f565b606083015260048101546080830152600581015460a0830152600681015460c0830190815260078201549160e0840192835260088101546101008501526009810154610120850152600a810154610140850152600e60ff600b830154169161016086019215158352600c810154610180870152600d8101546101a087015201549060ff82166101c086015260ff6101e086019260018060a01b038160081c16845260a81c16614a138161429f565b61020086015251151580614af8575b15614a6f5750601154614a3d906001600160a01b0316614702565b906012905b5190601203916012831161071f576105e6614a69926105e6670de0b6b3a7640000956148ed565b04905290565b9060046020614a8660018060a01b03855116614702565b935160405163313ce56760e01b815292839182906001600160a01b03165afa80156106e057600090614abe575b60ff91501690614a42565b506020813d602011614af0575b81614ad8602093836143f0565b8101031261029957614aeb60ff916148d2565b614ab3565b3d9150614acb565b5080516011546001600160a01b03908116911614614a22565b600019811461071f5760010190565b9190820180921161071f57565b5190811515820361029957565b90614b448161427f565b60ff80198354169116179055565b805182101561442c5760209160051b010190565b6001600160401b03811161026f5760051b60200190565b15614b8457565b606460405162461bcd60e51b815260206004820152602060248201527f43616c6c6572206973206e6f742074686520636f76657220636f6e74726163746044820152fd5b805482101561442c57600052600b602060002091020190600090565b90614fec57815181556001810160208301518051906001600160401b03821161026f578190614c13845461461b565b601f8111614f99575b50602090601f8311600114614f3457600092614f29575b50508160011b916000199060031b1c19161790555b614c626040830151614c598161427f565b60028301614b3a565b6003810160608301518051906001600160401b03821161026f578190614c88845461461b565b601f8111614ed6575b50602090601f8311600114614e7157600092614e66575b50508160011b916000199060031b1c19161790555b6080820151600482015560a0820151600582015560c0820151600682015560e082015160078201556101008201516008820155600981016101208301518051906001600160401b03821161026f57614d15835461461b565b601f8111614e1e575b50602090601f8311600114614daf579180600a9492614da2979694600092614da4575b50508160011b916000199060031b1c19161790555b0190610140810151614d678161429f565b614d708161429f565b825461016092909201516001600160a81b031990921660ff919091161760089190911b610100600160a81b0316179055565b565b015190503880614d41565b90601f1983169184600052816000209260005b818110614e065750926001928592614da2999896600a989610614ded575b505050811b019055614d56565b015160001960f88460031b161c19169055388080614de0565b92936020600181928786015181550195019301614dc2565b836000526020600020601f840160051c81019160208510614e5c575b601f0160051c01905b818110614e505750614d1e565b60008155600101614e43565b9091508190614e3a565b015190503880614ca8565b60008581528281209350601f198516905b818110614ebe5750908460019594939210614ea5575b505050811b019055614cbd565b015160001960f88460031b161c19169055388080614e98565b92936020600181928786015181550195019301614e82565b909150836000526020600020601f840160051c81019160208510614f1f575b90601f859493920160051c01905b818110614f105750614c91565b60008155849350600101614f03565b9091508190614ef5565b015190503880614c33565b60008581528281209350601f198516905b818110614f815750908460019594939210614f68575b505050811b019055614c48565b015160001960f88460031b161c19169055388080614f5b565b92936020600181928786015181550195019301614f45565b909150836000526020600020601f840160051c81019160208510614fe2575b90601f859493920160051c01905b818110614fd35750614c1c565b60008155849350600101614fc6565b9091508190614fb8565b634e487b7160e01b600052600060045260246000fd5b60005260086020526040600020805461501a81614b66565b9161502860405193846143f0565b818352602083019060005260206000206000915b83831061504a575050505090565b600b602060019260405161505d816143b8565b855481526040516150748161030e81898b01614655565b8382015260ff6002870154166150898161427f565b60408201526040516150a28161030e8160038b01614655565b606082015260048601546080820152600586015460a0820152600686015460c0820152600786015460e082015260088601546101008201526040516150ee8161030e8160098b01614655565b610120820152600a86015460ff81166151068161429f565b610140830152858060a01b039060081c1661016082015281520192019201919061503c565b60005260096020526040600020604051615144816143d4565b8154815260405161515c8161030e8160018701614655565b60208201526040516151758161030e8160028701614655565b604082015260ff60038301541661518b8161427f565b606082015260048201546080820152600582015460a082015260068201549160c08201928352600781015460e083015260088101546101008301526009810154610120830152600a810154610140830152600e60ff600b830154169161016084019215158352600c810154610180850152600d8101546101a085015201549160ff83166101c082015261020060ff6101e083019460018060a01b038160081c16865260a81c169161523b8361429f565b01525115158061531a575b156152915750601154615261906001600160a01b0316614702565b906012905b5190601203916012831161071f576105e661528d926105e6670de0b6b3a7640000956148ed565b0490565b90600460206152a860018060a01b03855116614702565b935160405163313ce56760e01b815292839182906001600160a01b03165afa80156106e0576000906152e0575b60ff91501690615266565b506020813d602011615312575b816152fa602093836143f0565b810103126102995761530d60ff916148d2565b6152d5565b3d91506152ed565b5080516011546001600160a01b03908116911614615246565b1561533a57565b60405162461bcd60e51b815260206004820152602160248201527f4e6f206465706f73697420666f756e6420666f722074686973206164647265736044820152607360f81b6064820152608490fd5b1561539057565b60405162461bcd60e51b81526020600482015260156024820152744465706f736974206973206e6f742061637469766560581b6044820152606490fd5b156153d457565b60405162461bcd60e51b815260206004820152601c60248201527f4465706f73697420706572696f6420686173206e6f7420656e646564000000006044820152606490fd5b60409061543093928152816020820152019061425a565b90565b60006101206040516154448161439c565b8281528260208201528260408201528260608201528260808201528260a08201528260c08201528260e082015282610100820152015260018060a01b0382166000526007602052604060002081600052602052604060002060008052602052604060002091604051926154b68461439c565b80546001600160a01b031684526001810154602085015260028101546040850152600381015460608501908152600482015460808601949060ff166154fa8161427f565b855260058301549460a08701958652600684015460c0880190815260078501549260e0890193845260ff60096008880154976101008c019889520154166155408161429f565b6101208a0152806000526009602052604060002090604051615561816143d4565b825481526040516155798161030e8160018801614655565b60208201526040516155928161030e8160028801614655565b604082015260ff6003840154166155a88161427f565b60608201526004830154608082015261020060ff600e60058601549560a08501968752600681015460c0860152600781015460e086015260088101546101008601526009810154610120860152600a81015461014086015282600b820154161515610160860152600c810154610180860152600d8101546101a086015201548181166101c085015260018060a01b038160081c166101e085015260a81c16916156508361429f565b015282519151906201518082029180830462015180149015171561071f5761567d6020926156ba94614b20565b600c54604051630414960560e21b81526001600160a01b039b8c166004820152602481019390935290999193849290911690829081906044820190565b03915afa9081156106e057600091615764575b5092620151809261570a926157129695801560001461575c575051915b4291516156f68161427f565b6156ff8161427f565b615753575b506148e0565b0490516146ef565b905242811161572357506000905290565b61572e9042906148e0565b6201518081019081811161071f576201517f0190811161071f57620151809004905290565b90505138615704565b9050916156ea565b906020823d602011615791575b8161577e602093836143f0565b810103126107c7575051620151806156cd565b3d9150615771565b51906001600160a01b038216820361029957565b90816101a0910312610299576040519060006101a083016001600160401b0381118482101761414e576040526157e282615799565b83526020820151602084015260408201516040840152606082015160608401526080820151608084015260a08201516003811015610d8d5760a084015260c082015160c084015260e082015160e08401526101008201516101008401526101208201516101208401526101408201516101408401526101608201519060028210156107c7575061016083015261587b9061018001615799565b61018082015290565b81601f8201121561029957805161589a81614442565b926158a860405194856143f0565b81845260208284010111610299576154309160208085019101614237565b3d156158f1573d906158d782614442565b916158e560405193846143f0565b82523d6000602084013e565b606090565b156158fd57565b60405162461bcd60e51b815260206004820152601c60248201527f4e6174697665206173736574207472616e73666572206661696c6564000000006044820152606490fd5b1561594957565b60405162461bcd60e51b8152602060048201526015602482015274115490cc8c081d1c985b9cd9995c8819985a5b1959605a1b6044820152606490fd5b600260005414615997576002600055565b633ee5aeb560e01b60005260046000fd5b6001546001600160a01b031633036159bc57565b63118cdaa760e01b6000523360045260246000fdfe485f1bb6524c663555797e00171a10f341656e59b02d6b557a0a38ba7d5d9751a2646970667358221220665e341a1e27d6f9010c33ddb4dc237172e7d32c270131b65ab2ac79e9b9168c64736f6c634300081c0033",
  "linkReferences": {},
  "deployedLinkReferences": {}
}